{"contracts/AgroTrust.sol":{"AgroTrust":{"abi":[{"inputs":[],"stateMutability":"nonpayable","type":"constructor"},{"anonymous":false,"inputs":[{"indexed":true,"internalType":"string","name":"batchId","type":"string"},{"indexed":false,"internalType":"string","name":"giTag","type":"string"},{"indexed":false,"internalType":"uint256","name":"timestamp","type":"uint256"}],"name":"BatchCreated","type":"event"},{"anonymous":false,"inputs":[{"indexed":true,"internalType":"string","name":"batchId","type":"string"},{"indexed":false,"internalType":"string","name":"certificateType","type":"string"}],"name":"CertificateAdded","type":"event"},{"anonymous":false,"inputs":[{"indexed":true,"internalType":"string","name":"batchId","type":"string"},{"indexed":false,"internalType":"string","name":"cropName","type":"string"}],"name":"CultivationDetailsAdded","type":"event"},{"anonymous":false,"inputs":[{"indexed":true,"internalType":"string","name":"batchId","type":"string"},{"indexed":false,"internalType":"string","name":"farmerName","type":"string"}],"name":"FarmerInfoAdded","type":"event"},{"anonymous":false,"inputs":[{"indexed":true,"internalType":"string","name":"batchId","type":"string"},{"indexed":false,"internalType":"string","name":"labName","type":"string"}],"name":"LabResultAdded","type":"event"},{"anonymous":false,"inputs":[{"indexed":true,"internalType":"string","name":"batchId","type":"string"},{"indexed":false,"internalType":"string","name":"processorName","type":"string"}],"name":"ProcessingInfoAdded","type":"event"},{"anonymous":false,"inputs":[{"indexed":true,"internalType":"string","name":"batchId","type":"string"}],"name":"TraceDataAdded","type":"event"},{"anonymous":false,"inputs":[{"indexed":true,"internalType":"string","name":"batchId","type":"string"},{"indexed":false,"internalType":"string","name":"from","type":"string"},{"indexed":false,"internalType":"string","name":"to","type":"string"}],"name":"TransferRecorded","type":"event"},{"anonymous":false,"inputs":[{"indexed":true,"internalType":"address","name":"user","type":"address"}],"name":"UserAuthorized","type":"event"},{"anonymous":false,"inputs":[{"indexed":true,"internalType":"address","name":"user","type":"address"}],"name":"UserRevoked","type":"event"},{"inputs":[{"internalType":"string","name":"_batchId","type":"string"},{"internalType":"string","name":"_issuedBy","type":"string"},{"internalType":"string","name":"_certificateType","type":"string"},{"internalType":"uint256","name":"_issueDate","type":"uint256"},{"internalType":"string","name":"_certificateId","type":"string"}],"name":"addCertificate","outputs":[],"stateMutability":"nonpayable","type":"function"},{"inputs":[{"internalType":"string","name":"_batchId","type":"string"},{"internalType":"string","name":"_soilType","type":"string"},{"internalType":"string","name":"_irrigationType","type":"string"},{"internalType":"string","name":"_pesticideUsed","type":"string"},{"internalType":"uint256","name":"_sowingDate","type":"uint256"},{"internalType":"uint256","name":"_area","type":"uint256"}],"name":"addCultivationDetails","outputs":[],"stateMutability":"nonpayable","type":"function"},{"inputs":[{"internalType":"string","name":"_batchId","type":"string"},{"internalType":"string","name":"_farmerName","type":"string"},{"internalType":"string","name":"_farmLocation","type":"string"},{"internalType":"string","name":"_contact","type":"string"},{"internalType":"string","name":"_farmerId","type":"string"}],"name":"addFarmerInfo","outputs":[],"stateMutability":"nonpayable","type":"function"},{"inputs":[{"internalType":"string","name":"_batchId","type":"string"},{"internalType":"string","name":"_labName","type":"string"},{"internalType":"string","name":"_result","type":"string"},{"internalType":"uint256","name":"_testDate","type":"uint256"},{"internalType":"string","name":"_reportHash","type":"string"}],"name":"addLabResult","outputs":[],"stateMutability":"nonpayable","type":"function"},{"inputs":[{"internalType":"string","name":"_batchId","type":"string"},{"internalType":"string","name":"_processorName","type":"string"},{"internalType":"string","name":"_method","type":"string"},{"internalType":"uint256","name":"_processingDate","type":"uint256"},{"internalType":"string","name":"_processingUnitId","type":"string"}],"name":"addProcessingInfo","outputs":[],"stateMutability":"nonpayable","type":"function"},{"inputs":[{"internalType":"string","name":"_batchId","type":"string"},{"internalType":"string","name":"_notes","type":"string"},{"internalType":"string","name":"_qrCodeHash","type":"string"}],"name":"addTraceData","outputs":[],"stateMutability":"nonpayable","type":"function"},{"inputs":[{"internalType":"string","name":"_batchId","type":"string"},{"internalType":"string","name":"_from","type":"string"},{"internalType":"string","name":"_to","type":"string"},{"internalType":"string","name":"_purpose","type":"string"}],"name":"addTransferRecord","outputs":[],"stateMutability":"nonpayable","type":"function"},{"inputs":[{"internalType":"address","name":"_user","type":"address"}],"name":"authorizeUser","outputs":[],"stateMutability":"nonpayable","type":"function"},{"inputs":[{"internalType":"address","name":"","type":"address"}],"name":"authorizedUsers","outputs":[{"internalType":"bool","name":"","type":"bool"}],"stateMutability":"view","type":"function"},{"inputs":[{"internalType":"string","name":"","type":"string"}],"name":"batches","outputs":[{"internalType":"string","name":"cropName","type":"string"},{"internalType":"string","name":"variety","type":"string"},{"internalType":"string","name":"location","type":"string"},{"internalType":"uint256","name":"harvestDate","type":"uint256"},{"internalType":"bool","name":"exists","type":"bool"}],"stateMutability":"view","type":"function"},{"inputs":[{"internalType":"string","name":"","type":"string"}],"name":"certificates","outputs":[{"internalType":"string","name":"issuedBy","type":"string"},{"internalType":"string","name":"certificateType","type":"string"},{"internalType":"uint256","name":"issueDate","type":"uint256"},{"internalType":"string","name":"certificateId","type":"string"},{"internalType":"bool","name":"exists","type":"bool"}],"stateMutability":"view","type":"function"},{"inputs":[{"internalType":"string","name":"_batchId","type":"string"}],"name":"checkBatchExists","outputs":[{"internalType":"bool","name":"","type":"bool"}],"stateMutability":"view","type":"function"},{"inputs":[{"internalType":"string","name":"_batchId","type":"string"},{"internalType":"string","name":"_cropName","type":"string"},{"internalType":"string","name":"_variety","type":"string"},{"internalType":"string","name":"_location","type":"string"},{"internalType":"uint256","name":"_harvestDate","type":"uint256"}],"name":"createBatch","outputs":[],"stateMutability":"nonpayable","type":"function"},{"inputs":[{"internalType":"string","name":"","type":"string"}],"name":"cultivationData","outputs":[{"internalType":"string","name":"soilType","type":"string"},{"internalType":"string","name":"irrigationType","type":"string"},{"internalType":"string","name":"pesticideUsed","type":"string"},{"internalType":"uint256","name":"sowingDate","type":"uint256"},{"internalType":"uint256","name":"area","type":"uint256"},{"internalType":"bool","name":"exists","type":"bool"}],"stateMutability":"view","type":"function"},{"inputs":[{"internalType":"string","name":"","type":"string"}],"name":"farmerData","outputs":[{"internalType":"string","name":"farmerName","type":"string"},{"internalType":"string","name":"farmLocation","type":"string"},{"internalType":"string","name":"contact","type":"string"},{"internalType":"string","name":"farmerId","type":"string"},{"internalType":"bool","name":"exists","type":"bool"}],"stateMutability":"view","type":"function"},{"inputs":[{"internalType":"string","name":"_batchId","type":"string"}],"name":"getBatch","outputs":[{"components":[{"internalType":"string","name":"cropName","type":"string"},{"internalType":"string","name":"variety","type":"string"},{"internalType":"string","name":"location","type":"string"},{"internalType":"uint256","name":"harvestDate","type":"uint256"},{"internalType":"bool","name":"exists","type":"bool"}],"internalType":"struct AgroTrust.Batch","name":"","type":"tuple"}],"stateMutability":"view","type":"function"},{"inputs":[{"internalType":"string","name":"_batchId","type":"string"}],"name":"getCertificate","outputs":[{"components":[{"internalType":"string","name":"issuedBy","type":"string"},{"internalType":"string","name":"certificateType","type":"string"},{"internalType":"uint256","name":"issueDate","type":"uint256"},{"internalType":"string","name":"certificateId","type":"string"},{"internalType":"bool","name":"exists","type":"bool"}],"internalType":"struct AgroTrust.Certificate","name":"","type":"tuple"}],"stateMutability":"view","type":"function"},{"inputs":[{"internalType":"string","name":"_batchId","type":"string"}],"name":"getCultivationDetails","outputs":[{"components":[{"internalType":"string","name":"soilType","type":"string"},{"internalType":"string","name":"irrigationType","type":"string"},{"internalType":"string","name":"pesticideUsed","type":"string"},{"internalType":"uint256","name":"sowingDate","type":"uint256"},{"internalType":"uint256","name":"area","type":"uint256"},{"internalType":"bool","name":"exists","type":"bool"}],"internalType":"struct AgroTrust.CultivationDetails","name":"","type":"tuple"}],"stateMutability":"view","type":"function"},{"inputs":[{"internalType":"string","name":"_batchId","type":"string"}],"name":"getFarmerInfo","outputs":[{"components":[{"internalType":"string","name":"farmerName","type":"string"},{"internalType":"string","name":"farmLocation","type":"string"},{"internalType":"string","name":"contact","type":"string"},{"internalType":"string","name":"farmerId","type":"string"},{"internalType":"bool","name":"exists","type":"bool"}],"internalType":"struct AgroTrust.FarmerInfo","name":"","type":"tuple"}],"stateMutability":"view","type":"function"},{"inputs":[{"internalType":"string","name":"_batchId","type":"string"}],"name":"getLabResult","outputs":[{"components":[{"internalType":"string","name":"labName","type":"string"},{"internalType":"string","name":"result","type":"string"},{"internalType":"uint256","name":"testDate","type":"uint256"},{"internalType":"string","name":"reportHash","type":"string"},{"internalType":"bool","name":"exists","type":"bool"}],"internalType":"struct AgroTrust.LabResult","name":"","type":"tuple"}],"stateMutability":"view","type":"function"},{"inputs":[{"internalType":"string","name":"_batchId","type":"string"}],"name":"getProcessingInfo","outputs":[{"components":[{"internalType":"string","name":"processorName","type":"string"},{"internalType":"string","name":"method","type":"string"},{"internalType":"uint256","name":"processingDate","type":"uint256"},{"internalType":"string","name":"processingUnitId","type":"string"},{"internalType":"bool","name":"exists","type":"bool"}],"internalType":"struct AgroTrust.ProcessingInfo","name":"","type":"tuple"}],"stateMutability":"view","type":"function"},{"inputs":[{"internalType":"string","name":"_batchId","type":"string"}],"name":"getTraceNotes","outputs":[{"components":[{"internalType":"string","name":"notes","type":"string"},{"internalType":"string","name":"qrCodeHash","type":"string"},{"internalType":"bool","name":"exists","type":"bool"}],"internalType":"struct AgroTrust.TraceData","name":"","type":"tuple"}],"stateMutability":"view","type":"function"},{"inputs":[{"internalType":"string","name":"_batchId","type":"string"}],"name":"getTransferRecordCount","outputs":[{"internalType":"uint256","name":"","type":"uint256"}],"stateMutability":"view","type":"function"},{"inputs":[{"internalType":"string","name":"_batchId","type":"string"}],"name":"getTransferRecords","outputs":[{"components":[{"internalType":"string","name":"from","type":"string"},{"internalType":"string","name":"to","type":"string"},{"internalType":"string","name":"purpose","type":"string"},{"internalType":"uint256","name":"transferDate","type":"uint256"}],"internalType":"struct AgroTrust.TransferRecord[]","name":"","type":"tuple[]"}],"stateMutability":"view","type":"function"},{"inputs":[{"internalType":"string","name":"","type":"string"}],"name":"labResults","outputs":[{"internalType":"string","name":"labName","type":"string"},{"internalType":"string","name":"result","type":"string"},{"internalType":"uint256","name":"testDate","type":"uint256"},{"internalType":"string","name":"reportHash","type":"string"},{"internalType":"bool","name":"exists","type":"bool"}],"stateMutability":"view","type":"function"},{"inputs":[],"name":"owner","outputs":[{"internalType":"address","name":"","type":"address"}],"stateMutability":"view","type":"function"},{"inputs":[{"internalType":"string","name":"","type":"string"}],"name":"processingData","outputs":[{"internalType":"string","name":"processorName","type":"string"},{"internalType":"string","name":"method","type":"string"},{"internalType":"uint256","name":"processingDate","type":"uint256"},{"internalType":"string","name":"processingUnitId","type":"string"},{"internalType":"bool","name":"exists","type":"bool"}],"stateMutability":"view","type":"function"},{"inputs":[{"internalType":"address","name":"_user","type":"address"}],"name":"revokeUser","outputs":[],"stateMutability":"nonpayable","type":"function"},{"inputs":[{"internalType":"string","name":"","type":"string"}],"name":"traceRecords","outputs":[{"internalType":"string","name":"notes","type":"string"},{"internalType":"string","name":"qrCodeHash","type":"string"},{"internalType":"bool","name":"exists","type":"bool"}],"stateMutability":"view","type":"function"},{"inputs":[{"internalType":"string","name":"","type":"string"},{"internalType":"uint256","name":"","type":"uint256"}],"name":"transferLogs","outputs":[{"internalType":"string","name":"from","type":"string"},{"internalType":"string","name":"to","type":"string"},{"internalType":"string","name":"purpose","type":"string"},{"internalType":"uint256","name":"transferDate","type":"uint256"}],"stateMutability":"view","type":"function"}],"evm":{"bytecode":{"linkReferences":{},"object":"60808060405234610040573360018060a01b031960005416176000553360005260016020526040600020600160ff1982541617905561367b90816100468239f35b600080fdfe6080604052600436101561001257600080fd5b60003560e01c8063067230081461279e5780630a1bb2111461268f57806312f2d4ad146121325780631828983a146120ef57806336ce367a14611b195780633d1b869314611acf5780634dd7845a146119f75780634ead36c51461190957806367c2a360146118935780636f3c899814611843578063749b713e146117f35780637803866b1461168e5780637ef1446a146115bd578063820b29dc1461144b5780638a84532c146114025780638ced45e9146113b25780638da5cb5b146113895780638f2b91ea146112eb578063958c5c1b14610f865780639b6d0e3014610dfe5780639bd37cb814610cf0578063cad16eef146107a8578063cd8d4ca91461069a578063ed0f2e7514610650578063ef097fc4146105dd578063f158dfe514610500578063f19ac0d514610482578063f9ca42741461032e578063fa0f9dbe146102725763fcf7e5b11461016657600080fd5b3461026d5760208060031936011261026d57600435906001600160401b03821161026d576101ca8161019e6060943690600401612e9b565b6000604080516101ad81612e5f565b878152878582015201528160405193828580945193849201612f6b565b8101600981520301902090610260604051926101e584612e5f565b6040516101fd816101f68185613043565b0382612e7a565b845261024d60ff6002604051936102228561021b8160018501613043565b0386612e7a565b8688019485520154169360408601941515855260405196879682885251918701526080860190612f8e565b9051848203601f19016040860152612f8e565b9051151560608301520390f35b600080fd5b3461026d57602036600319011261026d576004356001600160401b03811161026d576102bd60206102aa610314933690600401612e9b565b8160405193828580945193849201612f6b565b81016009815203019020604051906102e0826102d98184613043565b0383612e7a565b61032260ff6002604051936102fc8561021b8160018501613043565b01541691604051948594606086526060860190612f8e565b908482036020860152612f8e565b90151560408301520390f35b3461026d5760208060031936011261026d57600435906001600160401b03821161026d5761036260a0923690600401612e9b565b906103a3816040519361037485612e0e565b600060806060968781528785820152876040820152828882015201528160405193828580945193849201612f6b565b810160028152030190209061046f604051936103be85612e0e565b6040516103cf816101f68188613043565b85526040516103e5816101f68160018901613043565b83860190815260405191610407836104008160028a01613043565b0384612e7a565b6040870192835261045f61044960ff600460038a015499858c019a8b520154169660808a0197151588526040519a8b9a828c5251918b015260c08a0190612f8e565b925192601f1993848a83030160408b0152612f8e565b9251918784030190870152612f8e565b9151608084015251151560a08301520390f35b3461026d57602036600319011261026d576004356001600160401b03811161026d576104e86104d960206104bd6104fc943690600401612e9b565b6104c56135aa565b508160405193828580945193849201612f6b565b810160058152030190206135d7565b604051918291602083526020830190612fb3565b0390f35b3461026d57602036600319011261026d576004356001600160401b03811161026d5761053860206102aa6105ab933690600401612e9b565b8101600481520301902060405190610554826102d98184613043565b604051610568816101f68160018601613043565b6040519161057d836104008160028501613043565b6105c76003820154936105b960ff60056004860154950154169460405198899860c08a5260c08a0190612f8e565b9088820360208a0152612f8e565b908682036040880152612f8e565b9260608501526080840152151560a08301520390f35b3461026d57602036600319011261026d576004356001600160a01b038181169182900361026d5761061390600054163314613146565b806000526001602052604060002060ff1981541690557fb43ac7bf01d16ebcb8c868a4c03fecb1f6984ea4fa1a52c116ef282b8dbb17c5600080a2005b3461026d57602036600319011261026d576004356001600160401b03811161026d576104e861068b60206104bd6104fc943690600401612e9b565b810160078152030190206135d7565b3461026d576106a836612ef1565b93919060018060a01b03600054163314801561078f575b6106c89061319c565b604051948351916020968781818801956106e3818389612f6b565b810160028152030190206004015460ff166106fd906131f9565b6040519361070a85612e0e565b86855287850152604084015260608301526080820160019052846040518080938651809261073792612f6b565b810160068152030190209061074b9161323c565b610754906131d9565b91604051918183928352820161076991612f8e565b037f3ec9558f8e31341d443d91d650fbcea03f0bbe6d24d2e0d24e8f421536ba79bd91a2005b503360009081526001602052604090205460ff166106bf565b3461026d5760c036600319011261026d576004356001600160401b03811161026d576107d8903690600401612e9b565b6024356001600160401b03811161026d576107f7903690600401612e9b565b6044356001600160401b03811161026d57610816903690600401612e9b565b6064356001600160401b03811161026d57610835903690600401612e9b565b9060018060a01b036000541633148015610cd7575b6108539061319c565b61088360ff6004604051602081816108718b83815193849201612f6b565b810160028152030190200154166131f9565b6040519261089084612e44565b835260208301526040820152608435606082015260a4356080820152600160a082015260405160208184516108c88183858901612f6b565b810160048152030190209080519283516001600160401b038111610b48576108f08454613009565b601f8111610c93575b506020601f8211600114610c2a578192939495600092610c1f575b50508160011b916000199060031b1c19161783555b60208201519283516001600160401b038111610b485761094c6001830154613009565b601f8111610bd8575b506020601f8211600114610b69578192939495600092610b5e575b50508160011b916000199060031b1c19161760018201555b60408301519283516001600160401b038111610b48576109ab6002840154613009565b601f8111610b01575b506020601f8211600114610a8b57918160a092600594610a1a9798600092610a80575b50508160011b916000199060031b1c19161760028501555b60608101516003850155608081015160048501550151151591019060ff801983541691151516179055565b7fdc0edd93d108c2ac79c6cf89fa9345d7bfc5fcea6c0de8c3a1920414a500bd68610a7b610a666040516020818651610a568183858b01612f6b565b81016002815203019020936131d9565b92604051918291602083526020830190613043565b0390a2005b0151905088806109d7565b601f198216956002850160005260206000209660005b818110610ae9575092610a1a9697600595936001938360a09710610ad0575b505050811b0160028501556109ef565b015160001960f88460031b161c19169055888080610ac0565b83830151895560019098019760209384019301610aa1565b600284016000526020600020601f830160051c810160208410610b41575b601f830160051c82018110610b355750506109b4565b60008155600101610b1f565b5080610b1f565b634e487b7160e01b600052604160045260246000fd5b015190508580610970565b6001830160005260206000209060005b601f1984168110610bc0575060019394959683601f19811610610ba7575b505050811b016001820155610988565b015160001960f88460031b161c19169055858080610b97565b9091602060018192858b015181550193019101610b79565b600183016000526020600020601f830160051c810160208410610c18575b601f830160051c82018110610c0c575050610955565b60008155600101610bf6565b5080610bf6565b015190508580610914565b8460005260206000209060005b601f1984168110610c7b575060019394959683601f19811610610c62575b505050811b018355610929565b015160001960f88460031b161c19169055858080610c55565b9091602060018192858b015181550193019101610c37565b846000526020600020601f830160051c810160208410610cd0575b601f830160051c82018110610cc45750506108f9565b60008155600101610cae565b5080610cae565b503360009081526001602052604090205460ff1661084a565b3461026d57610cfe36612ef1565b93919060018060a01b036000541633148015610de5575b610d1e9061319c565b60405194835191602096878181880195610d39818389612f6b565b810160028152030190206004015460ff16610d53906131f9565b60405193610d6085612e0e565b868552878501526040840152606083015260808201600190528460405180809386518092610d8d92612f6b565b8101600581520301902090610da19161323c565b610daa906131d9565b916040519181839283528201610dbf91612f8e565b037fbf68b6c807826ba70f2d9b022a71229d2a854cb7264e05e07f027ce3ba4cf30291a2005b503360009081526001602052604090205460ff16610d15565b3461026d5760208060031936011261026d576001600160401b0360043581811161026d57826102aa610e34923690600401612e9b565b810160088152030190208054918211610b4857829060405192610e5c838260051b0185612e7a565b8084528284018092600052836000206000915b838310610f135750505050604051918083019381845251809452604083019360408160051b85010192916000955b828710610eaa5785850386f35b909192938280600192603f19898203018552875190610ef9610ee7610ed784516080808652850190612f8e565b8585015184820387860152612f8e565b60408401518382036040850152612f8e565b916060809101519101529601920196019592919092610e9d565b600486600192604099989951610f2881612e29565b604051610f39816101f6818a613043565b8152604051610f4e816101f681898b01613043565b83820152604051610f66816101f68160028b01613043565b604082015260038601546060820152815201920192019190959495610e6f565b3461026d57606036600319011261026d576001600160401b0360043581811161026d57610fb7903690600401612e9b565b60243582811161026d57610fcf903690600401612e9b565b9160443581811161026d57610fe8903690600401612e9b565b6000546001600160a01b0316331480156112d2575b6110069061319c565b60405191835161102760ff60046020968781818b019661087181838a612f6b565b6040519561103487612e5f565b8652838601928352604086019361105c81600193848852604051809381928b51928391612f6b565b810160098152030190209651908151848111610b48578061107d8a54613009565b93601f94858111611281575b50839085831160011461121e57600092611213575b5050600019600383901b1c191690841b1788555b8288019451908151948511610b48576110cb8654613009565b8381116111cd575b5080928511600114611158575092808061112197946111269a979460029760009461114d575b50501b916000199060031b1c19161790555b51151591019060ff801983541691151516179055565b6131d9565b7f2d33d74cca76ea140d21832e718983d638a88b2959a1b070bcfc844952552d0f600080a2005b015192508b806110f9565b9190601f9493941984168660005283600020936000905b8282106111b65750509260029592859261112199966111269c99961061119d575b505050811b01905561110b565b015160001960f88460031b161c19169055898080611190565b80888697829497870151815501960194019061116f565b86600052816000208480880160051c82019284891061120a575b0160051c019085905b8281106111fe5750506110d3565b600081550185906111f0565b925081926111e7565b015190508a8061109e565b90869350601f198316918c600052856000209260005b8782821061126b5750508411611252575b505050811b0188556110b2565b015160001960f88460031b161c191690558a8080611245565b8385015186558a97909501949384019301611234565b9091508a600052836000208580850160051c8201928686106112c9575b918891869594930160051c01915b8281106112ba575050611089565b600081558594508891016112ac565b9250819261129e565b503360009081526001602052604090205460ff16610ffd565b3461026d57602036600319011261026d576004356001600160401b03811161026d5760206102aa611320923690600401612e9b565b8101600781520301902060405161133b816101f68185613043565b6104fc6040519261135a846113538160018501613043565b0385612e7a565b60028101549060ff600460405192611379846113538160038501613043565b015416916040519586958661310b565b3461026d57600036600319011261026d576000546040516001600160a01b039091168152602090f35b3461026d57602036600319011261026d576004356001600160401b03811161026d5760ff60046113eb60206102aa819536908501612e9b565b810160028152030190200154166040519015158152f35b3461026d57602036600319011261026d576004356001600160401b03811161026d5761143860206102aa81933690600401612e9b565b8101600881520301902054604051908152f35b3461026d5760208060031936011261026d57600435906001600160401b03821161026d5761147f60a0923690600401612e9b565b906115b06114c3826040519461149486612e0e565b600060806060978881528885820152886040820152888082015201528160405193828580945193849201612f6b565b81016003815203019020604051936114da85612e0e565b6040516114eb816101f68186613043565b855261159f60405191611505836104008160018801613043565b85870192835260405190611520826102d98160028901613043565b6040880191825261158e61157860ff60046040519861154d8a6115468160038501613043565b038b612e7a565b858d01998a520154169860808b019915158a526040519b8c9b828d5251918c015260c08b0190612f8e565b945194601f1995868b83030160408c0152612f8e565b915190848984030190890152612f8e565b915190858303016080860152612f8e565b9051151560a08301520390f35b3461026d57602036600319011261026d576004356001600160401b03811161026d576115f560206102aa611661933690600401612e9b565b8101600281520301902060405190611611826102d98184613043565b604051611625816101f68160018601613043565b61167d60405161163c816101f68160028801613043565b61166f60ff60046003870154960154169360405197889760a0895260a0890190612f8e565b908782036020890152612f8e565b908582036040870152612f8e565b916060840152151560808301520390f35b3461026d5760208060031936011261026d57600435906001600160401b03821161026d576116c260c0923690600401612e9b565b61170882604051926116d384612e44565b600060a06060958681528685820152866040820152828782015282608082015201528160405193828580945193849201612f6b565b81016004815203019020916040519261172084612e44565b604051611731816101f68185613043565b84526117da60405161174a816101f68160018701613043565b83860190815260405190611765826102d98160028801613043565b604087019182526003840154958088019687526117ca6117b460ff600560048901549860808d01998a520154169760a08b0198151589526040519b8c9b828d5251918c015260e08b0190612f8e565b925192601f1993848b83030160408c0152612f8e565b9251918884030190880152612f8e565b925160808501525160a084015251151560c08301520390f35b3461026d57602036600319011261026d576004356001600160401b03811161026d5760206102aa611828923690600401612e9b565b8101600681520301902060405161133b816101f68185613043565b3461026d57602036600319011261026d576004356001600160401b03811161026d5760206102aa611878923690600401612e9b565b8101600581520301902060405161133b816101f68185613043565b3461026d57602036600319011261026d576004356001600160a01b038181169182900361026d576118c990600054163314613146565b8060005260016020526040600020600160ff198254161790557fb0be505cf6e26533f3066ac7722c3f8a5e8a123f43187c7832d333c49603b146600080a2005b3461026d57604036600319011261026d576004356001600160401b03811161026d57611939903690600401612e9b565b6119556020602435928160405193828580945193849201612f6b565b81016008815203019020805482101561026d576119d191611975916130d9565b5060405190611988826102d98184613043565b6119ed604051916119a0836104008160018501613043565b6119df6003604051926119ba846113538160028501613043565b015493604051968796608088526080880190612f8e565b908682036020880152612f8e565b908482036040860152612f8e565b9060608301520390f35b3461026d57602036600319011261026d576004356001600160401b03811161026d57611a2f60206102aa6105ab933690600401612e9b565b8101600381520301902060405190611a4b826102d98184613043565b611ac360405191611a63836104008160018501613043565b611ab5604051611a7a816101f68160028701613043565b6105b960ff600460405195611a9d87611a968160038501613043565b0388612e7a565b0154169560405198899860a08a5260a08a0190612f8e565b908482036060860152612f8e565b90151560808301520390f35b3461026d57602036600319011261026d576004356001600160401b03811161026d576104e8611b0a60206104bd6104fc943690600401612e9b565b810160068152030190206135d7565b3461026d5760a036600319011261026d576004356001600160401b03811161026d57611b49903690600401612e9b565b6024356001600160401b03811161026d57611b68903690600401612e9b565b906044356001600160401b03811161026d57611b88903690600401612e9b565b6064356001600160401b03811161026d57611ba7903690600401612e9b565b6000546001600160a01b0316331480156120d6575b611bc59061319c565b6040519060ff600485519360208181890196611be281838a612f6b565b8101600281520301902001541661209a5783511561205557611c3a9160209160405194611c0e86612e0e565b878652838601526040850152608435606085015260016080850152604051809381928751928391612f6b565b810160028152030190209080518051906001600160401b038211610b48578190611c648554613009565b601f8111612005575b50602090601f8311600114611f9957600092611f8e575b50508160011b916000199060031b1c19161782555b60208101518051906001600160401b038211610b48578190611cbe6001860154613009565b601f8111611f3b575b50602090601f8311600114611ec957600092611ebe575b50508160011b916000199060031b1c19161760018301555b60408101518051906001600160401b038211610b4857611d196002850154613009565b601f8111611e73575b50602090601f8311600114611dd2579360046080611da795857fecbf2b320132381834a8a7b4ef8177133abdd15d8f4c6602b4f7515400423fd5999661112196611dbc9a600092611dc7575b50508160011b916000199060031b1c19161760028501555b606081015160038501550151151591019060ff801983541691151516179055565b92604051918291604083526040830190612f8e565b4260208301520390a2005b015190508c80611d6e565b906002850160005260206000209160005b601f1985168110611e5b57506080611da79560018661112196611dbc9a966004967fecbf2b320132381834a8a7b4ef8177133abdd15d8f4c6602b4f7515400423fd59d9a601f19811610611e42575b505050811b016002850155611d86565b015160001960f88460031b161c191690558c8080611e32565b91926020600181928685015181550194019201611de3565b600285016000526020600020601f840160051c81019160208510611eb4575b601f0160051c01905b818110611ea85750611d22565b60008155600101611e9b565b9091508190611e92565b015190508680611cde565b9250600185016000526020600020906000935b601f1984168510611f20576001945083601f19811610611f07575b505050811b016001830155611cf6565b015160001960f88460031b161c19169055868080611ef7565b81810151835560209485019460019093019290910190611edc565b909150600185016000526020600020601f840160051c810160208510611f87575b90849392915b601f830160051c82018110611f78575050611cc7565b60008155859450600101611f62565b5080611f5c565b015190508680611c84565b9250846000526020600020906000935b601f1984168510611fea576001945083601f19811610611fd1575b505050811b018255611c99565b015160001960f88460031b161c19169055868080611fc4565b81810151835560209485019460019093019290910190611fa9565b909150846000526020600020601f840160051c81016020851061204e575b90849392915b601f830160051c8201811061203f575050611c6d565b60008155859450600101612029565b5080612023565b60405162461bcd60e51b815260206004820152601860248201527f42617463682049442063616e6e6f7420626520656d70747900000000000000006044820152606490fd5b60405162461bcd60e51b8152602060048201526014602482015273426174636820616c72656164792065786973747360601b6044820152606490fd5b503360009081526001602052604090205460ff16611bbc565b3461026d57602036600319011261026d576004356001600160a01b0381169081900361026d576000526001602052602060ff604060002054166040519015158152f35b3461026d57608036600319011261026d576004356001600160401b03811161026d57612162903690600401612e9b565b6024356001600160401b03811161026d57612181903690600401612e9b565b6044356001600160401b03811161026d576121a0903690600401612e9b565b916064356001600160401b03811161026d576121c0903690600401612e9b565b6000546001600160a01b031633148015612676575b6121de9061319c565b612212602060405161220160ff60048751938581818b019661087181838a612f6b565b604051809381928751928391612f6b565b810160088152030190206040519161222983612e29565b8483528560208401526040830152426060830152805468010000000000000000811015610b485761225f916001820181556130d9565b9190916126605780518051906001600160401b038211610b485781906122858554613009565b601f8111612610575b50602090601f83116001146125a457600092612599575b50508160011b916000199060031b1c19161782555b60208101518051906001600160401b038211610b485781906122df6001860154613009565b601f8111612546575b50602090601f83116001146124d4576000926124c9575b50508160011b916000199060031b1c19161760018301555b60408101518051906001600160401b038211610b485761233a6002850154613009565b601f811161247e575b50602090601f83116001146123df579360036060610a7b95856123b1966123c69a967fc2193173b83438ad63820a84ce0fb84b539d7f63f0da296bb52f417f9aac32d09c9a6000926123d4575b50508160011b9160001990861b1c19161760028501555b01519101556131d9565b94604051938493604085526040850190612f8e565b908382036020850152612f8e565b015190508d80612390565b90601f198316916002860160005260206000209260005b8181106124665750610a7b956001866123c69a967fc2193173b83438ad63820a84ce0fb84b539d7f63f0da296bb52f417f9aac32d09c9a966003966123b19a6060971061244e575b505050811b0160028501556123a7565b015160001983881b60f8161c191690558d808061243e565b929360206001819287860151815501950193016123f6565b600285016000526020600020601f840160051c810191602085106124bf575b601f0160051c01905b8181106124b35750612343565b600081556001016124a6565b909150819061249d565b0151905087806122ff565b9250600185016000526020600020906000935b601f198416851061252b576001945083601f19811610612512575b505050811b016001830155612317565b015160001960f88460031b161c19169055878080612502565b818101518355602094850194600190930192909101906124e7565b909150600185016000526020600020601f840160051c810160208510612592575b90849392915b601f830160051c820181106125835750506122e8565b6000815585945060010161256d565b5080612567565b0151905087806122a5565b9250846000526020600020906000935b601f19841685106125f5576001945083601f198116106125dc575b505050811b0182556122ba565b015160001960f88460031b161c191690558780806125cf565b818101518355602094850194600190930192909101906125b4565b909150846000526020600020601f840160051c810160208510612659575b90849392915b601f830160051c8201811061264a57505061228e565b60008155859450600101612634565b508061262e565b634e487b7160e01b600052600060045260246000fd5b503360009081526001602052604090205460ff166121d5565b3461026d5761269d36612ef1565b9391929060018060a01b036000541633148015612785575b6126be9061319c565b604051948351916020968781818801956126d9818389612f6b565b810160028152030190206004015460ff166126f3906131f9565b6040519361270085612e0e565b84528587850152604084015260608301526080820160019052846040518080938651809261272d92612f6b565b81016007815203019020906127419161323c565b61274a906131d9565b91604051918183928352820161275f91612f8e565b037f9fad722725d0a8d47409199aaef3c4642bd4796564c69f37aa36d8657434647191a2005b503360009081526001602052604090205460ff166126b5565b3461026d5760a036600319011261026d576004356001600160401b03811161026d576127ce903690600401612e9b565b6024356001600160401b03811161026d576127ed903690600401612e9b565b906044356001600160401b03811161026d5761280d903690600401612e9b565b6064356001600160401b03811161026d5761282c903690600401612e9b565b6084356001600160401b03811161026d5761284b903690600401612e9b565b9060018060a01b036000541633148015612df5575b6128699061319c565b61288760ff6004604051602081816108718b83815193849201612f6b565b6040519261289484612e0e565b8584526020840152604083015260608201526001608082015260405160208184516128c28183858901612f6b565b6003818301528101030190209080518051906001600160401b038211610b485781906128ee8554613009565b601f8111612da5575b50602090601f8311600114612d3957600092612d2e575b50508160011b916000199060031b1c19161782555b60208101518051906001600160401b038211610b485781906129486001860154613009565b601f8111612cdb575b50602090601f8311600114612c6957600092612c5e575b50508160011b916000199060031b1c19161760018301555b60408101518051906001600160401b038211610b485781906129a56002860154613009565b601f8111612c0b575b50602090601f8311600114612b9957600092612b8e575b50508160011b916000199060031b1c19161760028301555b60608101518051906001600160401b038211610b4857612a006003850154613009565b601f8111612b43575b50602090601f8311600114612aa4579360046080612a8495857f82582d8b639f0d4c5597a5d7983e8525acdc8048269e653519313bcea93487b3999661112196610a7b9a600092612a99575b50508160011b916000199060031b1c19161760038501555b0151151591019060ff801983541691151516179055565b92604051918291602083526020830190612f8e565b015190508c80612a55565b90601f198316916003860160005260206000209260005b818110612b2b5750612a849560018661112196610a7b9a966004967f82582d8b639f0d4c5597a5d7983e8525acdc8048269e653519313bcea93487b39d9a60809710612b12575b505050811b016003850155612a6d565b015160001960f88460031b161c191690558c8080612b02565b92936020600181928786015181550195019301612abb565b600385016000526020600020601f840160051c81019160208510612b84575b601f0160051c01905b818110612b785750612a09565b60008155600101612b6b565b9091508190612b62565b0151905086806129c5565b9250600285016000526020600020906000935b601f1984168510612bf0576001945083601f19811610612bd7575b505050811b0160028301556129dd565b015160001960f88460031b161c19169055868080612bc7565b81810151835560209485019460019093019290910190612bac565b909150600285016000526020600020601f840160051c810160208510612c57575b90849392915b601f830160051c82018110612c485750506129ae565b60008155859450600101612c32565b5080612c2c565b015190508680612968565b9250600185016000526020600020906000935b601f1984168510612cc0576001945083601f19811610612ca7575b505050811b016001830155612980565b015160001960f88460031b161c19169055868080612c97565b81810151835560209485019460019093019290910190612c7c565b909150600185016000526020600020601f840160051c810160208510612d27575b90849392915b601f830160051c82018110612d18575050612951565b60008155859450600101612d02565b5080612cfc565b01519050868061290e565b9250846000526020600020906000935b601f1984168510612d8a576001945083601f19811610612d71575b505050811b018255612923565b015160001960f88460031b161c19169055868080612d64565b81810151835560209485019460019093019290910190612d49565b909150846000526020600020601f840160051c810160208510612dee575b90849392915b601f830160051c82018110612ddf5750506128f7565b60008155859450600101612dc9565b5080612dc3565b503360009081526001602052604090205460ff16612860565b60a081019081106001600160401b03821117610b4857604052565b608081019081106001600160401b03821117610b4857604052565b60c081019081106001600160401b03821117610b4857604052565b606081019081106001600160401b03821117610b4857604052565b90601f801991011681019081106001600160401b03821117610b4857604052565b81601f8201121561026d578035906001600160401b038211610b485760405192612ecf601f8401601f191660200185612e7a565b8284526020838301011161026d57816000926020809301838601378301015290565b9060a060031983011261026d576001600160401b0360043581811161026d5783612f1d91600401612e9b565b9260243582811161026d5781612f3591600401612e9b565b9260443583811161026d5782612f4d91600401612e9b565b926064359260843591821161026d57612f6891600401612e9b565b90565b60005b838110612f7e5750506000910152565b8181015183820152602001612f6e565b90602091612fa781518092818552858086019101612f6b565b601f01601f1916010190565b90608080612ffe612fe2612fd0865160a0875260a0870190612f8e565b60208701518682036020880152612f8e565b6040860151604086015260608601518582036060870152612f8e565b930151151591015290565b90600182811c92168015613039575b602083101461302357565b634e487b7160e01b600052602260045260246000fd5b91607f1691613018565b906000929180549161305483613009565b9182825260019384811690816000146130b65750600114613076575b50505050565b90919394506000526020928360002092846000945b8386106130a2575050505001019038808080613070565b80548587018301529401938590820161308b565b9294505050602093945060ff191683830152151560051b01019038808080613070565b80548210156130f55760005260206000209060021b0190600090565b634e487b7160e01b600052603260045260246000fd5b9361312b61313e936116616080969499989960a0895260a0890190612f8e565b9160408601528482036060860152612f8e565b931515910152565b1561314d57565b60405162461bcd60e51b815260206004820152602160248201527f4f6e6c79206f776e65722063616e2063616c6c20746869732066756e6374696f6044820152603760f91b6064820152608490fd5b156131a357565b60405162461bcd60e51b815260206004820152600e60248201526d139bdd08185d5d1a1bdc9a5e995960921b6044820152606490fd5b6131f190602060405192828480945193849201612f6b565b810103902090565b1561320057565b60405162461bcd60e51b815260206004820152601460248201527310985d18da08191bd95cc81b9bdd08195e1a5cdd60621b6044820152606490fd5b90805180516001600160401b0390818111610b48578061325c8654613009565b93601f94858111613558575b506020908583116001146134f3576000926134e8575b50508160011b916000199060031b1c19161784555b60018085016020850151805190848211610b485781906132b38454613009565b878111613495575b5060209087831160011461343257600092613427575b5050600019600383901b1c191690831b1790555b60408401516002860155600385019260608501518051938411610b485761330c8554613009565b8281116133df575b50602091841160011461336e5792808061336198979460049794608097600094613363575b50501b916000199060031b1c19161790550151151591019060ff801983541691151516179055565b565b015192503880613339565b90601f9392931983169185600052816000209260005b8181106133c95750926080959285926133619a999660049996106133b0575b505050811b019055612a6d565b015160001960f88460031b161c191690553880806133a3565b8284015185559386019360209384019301613384565b8560005260206000208380870160051c8201926020881061341e575b0160051c019084905b828110613412575050613314565b60008155018490613404565b925081926133fb565b0151905038806132d1565b90859350601f1983169185600052816000209260005b81811061347d57508411613464575b505050811b0190556132e5565b015160001960f88460031b161c19169055388080613457565b82840151855588969094019360209384019301613448565b9091508360005260206000208780850160051c820192602086106134df575b918791869594930160051c01915b8281106134d05750506132bb565b600081558594508791016134c2565b925081926134b4565b01519050388061327e565b60008881528281209350601f198516905b8181106135405750908460019594939210613527575b505050811b018455613293565b015160001960f88460031b161c1916905538808061351a565b92936020600181928786015181550195019301613504565b9091506000878152602081208680860160051c820193602087106135a1575b908695949392910160051c01915b828110613593575050613268565b818155859450600101613585565b93508193613577565b604051906135b782612e0e565b600060808360608152606060208201528260408201526060808201520152565b906040516135e481612e0e565b608060ff600483956040516135fd816101f68185613043565b8552604051613613816101f68160018601613043565b602086015260028101546040860152604051613636816101f68160038601613043565b6060860152015416151591015256fea26469706673582212205ea4fbd0928e01a029329f542e01d366477397e132ba5f0f34a7137dd778d7c964736f6c63430008140033","opcodes":"PUSH1 0x80 DUP1 PUSH1 0x40 MSTORE CALLVALUE PUSH2 0x40 JUMPI CALLER PUSH1 0x1 DUP1 PUSH1 0xA0 SHL SUB NOT PUSH1 0x0 SLOAD AND OR PUSH1 0x0 SSTORE CALLER PUSH1 0x0 MSTORE PUSH1 0x1 PUSH1 0x20 MSTORE PUSH1 0x40 PUSH1 0x0 KECCAK256 PUSH1 0x1 PUSH1 0xFF NOT DUP3 SLOAD AND OR SWAP1 SSTORE PUSH2 0x367B SWAP1 DUP2 PUSH2 0x46 DUP3 CODECOPY RETURN JUMPDEST PUSH1 0x0 DUP1 REVERT INVALID PUSH1 0x80 PUSH1 0x40 MSTORE PUSH1 0x4 CALLDATASIZE LT ISZERO PUSH2 0x12 JUMPI PUSH1 0x0 DUP1 REVERT JUMPDEST PUSH1 0x0 CALLDATALOAD PUSH1 0xE0 SHR DUP1 PUSH4 0x6723008 EQ PUSH2 0x279E JUMPI DUP1 PUSH4 0xA1BB211 EQ PUSH2 0x268F JUMPI DUP1 PUSH4 0x12F2D4AD EQ PUSH2 0x2132 JUMPI DUP1 PUSH4 0x1828983A EQ PUSH2 0x20EF JUMPI DUP1 PUSH4 0x36CE367A EQ PUSH2 0x1B19 JUMPI DUP1 PUSH4 0x3D1B8693 EQ PUSH2 0x1ACF JUMPI DUP1 PUSH4 0x4DD7845A EQ PUSH2 0x19F7 JUMPI DUP1 PUSH4 0x4EAD36C5 EQ PUSH2 0x1909 JUMPI DUP1 PUSH4 0x67C2A360 EQ PUSH2 0x1893 JUMPI DUP1 PUSH4 0x6F3C8998 EQ PUSH2 0x1843 JUMPI DUP1 PUSH4 0x749B713E EQ PUSH2 0x17F3 JUMPI DUP1 PUSH4 0x7803866B EQ PUSH2 0x168E JUMPI DUP1 PUSH4 0x7EF1446A EQ PUSH2 0x15BD JUMPI DUP1 PUSH4 0x820B29DC EQ PUSH2 0x144B JUMPI DUP1 PUSH4 0x8A84532C EQ PUSH2 0x1402 JUMPI DUP1 PUSH4 0x8CED45E9 EQ PUSH2 0x13B2 JUMPI DUP1 PUSH4 0x8DA5CB5B EQ PUSH2 0x1389 JUMPI DUP1 PUSH4 0x8F2B91EA EQ PUSH2 0x12EB JUMPI DUP1 PUSH4 0x958C5C1B EQ PUSH2 0xF86 JUMPI DUP1 PUSH4 0x9B6D0E30 EQ PUSH2 0xDFE JUMPI DUP1 PUSH4 0x9BD37CB8 EQ PUSH2 0xCF0 JUMPI DUP1 PUSH4 0xCAD16EEF EQ PUSH2 0x7A8 JUMPI DUP1 PUSH4 0xCD8D4CA9 EQ PUSH2 0x69A JUMPI DUP1 PUSH4 0xED0F2E75 EQ PUSH2 0x650 JUMPI DUP1 PUSH4 0xEF097FC4 EQ PUSH2 0x5DD JUMPI DUP1 PUSH4 0xF158DFE5 EQ PUSH2 0x500 JUMPI DUP1 PUSH4 0xF19AC0D5 EQ PUSH2 0x482 JUMPI DUP1 PUSH4 0xF9CA4274 EQ PUSH2 0x32E JUMPI DUP1 PUSH4 0xFA0F9DBE EQ PUSH2 0x272 JUMPI PUSH4 0xFCF7E5B1 EQ PUSH2 0x166 JUMPI PUSH1 0x0 DUP1 REVERT JUMPDEST CALLVALUE PUSH2 0x26D JUMPI PUSH1 0x20 DUP1 PUSH1 0x3 NOT CALLDATASIZE ADD SLT PUSH2 0x26D JUMPI PUSH1 0x4 CALLDATALOAD SWAP1 PUSH1 0x1 PUSH1 0x1 PUSH1 0x40 SHL SUB DUP3 GT PUSH2 0x26D JUMPI PUSH2 0x1CA DUP2 PUSH2 0x19E PUSH1 0x60 SWAP5 CALLDATASIZE SWAP1 PUSH1 0x4 ADD PUSH2 0x2E9B JUMP JUMPDEST PUSH1 0x0 PUSH1 0x40 DUP1 MLOAD PUSH2 0x1AD DUP2 PUSH2 0x2E5F JUMP JUMPDEST DUP8 DUP2 MSTORE DUP8 DUP6 DUP3 ADD MSTORE ADD MSTORE DUP2 PUSH1 0x40 MLOAD SWAP4 DUP3 DUP6 DUP1 SWAP5 MLOAD SWAP4 DUP5 SWAP3 ADD PUSH2 0x2F6B JUMP JUMPDEST DUP2 ADD PUSH1 0x9 DUP2 MSTORE SUB ADD SWAP1 KECCAK256 SWAP1 PUSH2 0x260 PUSH1 0x40 MLOAD SWAP3 PUSH2 0x1E5 DUP5 PUSH2 0x2E5F JUMP JUMPDEST PUSH1 0x40 MLOAD PUSH2 0x1FD DUP2 PUSH2 0x1F6 DUP2 DUP6 PUSH2 0x3043 JUMP JUMPDEST SUB DUP3 PUSH2 0x2E7A JUMP JUMPDEST DUP5 MSTORE PUSH2 0x24D PUSH1 0xFF PUSH1 0x2 PUSH1 0x40 MLOAD SWAP4 PUSH2 0x222 DUP6 PUSH2 0x21B DUP2 PUSH1 0x1 DUP6 ADD PUSH2 0x3043 JUMP JUMPDEST SUB DUP7 PUSH2 0x2E7A JUMP JUMPDEST DUP7 DUP9 ADD SWAP5 DUP6 MSTORE ADD SLOAD AND SWAP4 PUSH1 0x40 DUP7 ADD SWAP5 ISZERO ISZERO DUP6 MSTORE PUSH1 0x40 MLOAD SWAP7 DUP8 SWAP7 DUP3 DUP9 MSTORE MLOAD SWAP2 DUP8 ADD MSTORE PUSH1 0x80 DUP7 ADD SWAP1 PUSH2 0x2F8E JUMP JUMPDEST SWAP1 MLOAD DUP5 DUP3 SUB PUSH1 0x1F NOT ADD PUSH1 0x40 DUP7 ADD MSTORE PUSH2 0x2F8E JUMP JUMPDEST SWAP1 MLOAD ISZERO ISZERO PUSH1 0x60 DUP4 ADD MSTORE SUB SWAP1 RETURN JUMPDEST PUSH1 0x0 DUP1 REVERT JUMPDEST CALLVALUE PUSH2 0x26D JUMPI PUSH1 0x20 CALLDATASIZE PUSH1 0x3 NOT ADD SLT PUSH2 0x26D JUMPI PUSH1 0x4 CALLDATALOAD PUSH1 0x1 PUSH1 0x1 PUSH1 0x40 SHL SUB DUP2 GT PUSH2 0x26D JUMPI PUSH2 0x2BD PUSH1 0x20 PUSH2 0x2AA PUSH2 0x314 SWAP4 CALLDATASIZE SWAP1 PUSH1 0x4 ADD PUSH2 0x2E9B JUMP JUMPDEST DUP2 PUSH1 0x40 MLOAD SWAP4 DUP3 DUP6 DUP1 SWAP5 MLOAD SWAP4 DUP5 SWAP3 ADD PUSH2 0x2F6B JUMP JUMPDEST DUP2 ADD PUSH1 0x9 DUP2 MSTORE SUB ADD SWAP1 KECCAK256 PUSH1 0x40 MLOAD SWAP1 PUSH2 0x2E0 DUP3 PUSH2 0x2D9 DUP2 DUP5 PUSH2 0x3043 JUMP JUMPDEST SUB DUP4 PUSH2 0x2E7A JUMP JUMPDEST PUSH2 0x322 PUSH1 0xFF PUSH1 0x2 PUSH1 0x40 MLOAD SWAP4 PUSH2 0x2FC DUP6 PUSH2 0x21B DUP2 PUSH1 0x1 DUP6 ADD PUSH2 0x3043 JUMP JUMPDEST ADD SLOAD AND SWAP2 PUSH1 0x40 MLOAD SWAP5 DUP6 SWAP5 PUSH1 0x60 DUP7 MSTORE PUSH1 0x60 DUP7 ADD SWAP1 PUSH2 0x2F8E JUMP JUMPDEST SWAP1 DUP5 DUP3 SUB PUSH1 0x20 DUP7 ADD MSTORE PUSH2 0x2F8E JUMP JUMPDEST SWAP1 ISZERO ISZERO PUSH1 0x40 DUP4 ADD MSTORE SUB SWAP1 RETURN JUMPDEST CALLVALUE PUSH2 0x26D JUMPI PUSH1 0x20 DUP1 PUSH1 0x3 NOT CALLDATASIZE ADD SLT PUSH2 0x26D JUMPI PUSH1 0x4 CALLDATALOAD SWAP1 PUSH1 0x1 PUSH1 0x1 PUSH1 0x40 SHL SUB DUP3 GT PUSH2 0x26D JUMPI PUSH2 0x362 PUSH1 0xA0 SWAP3 CALLDATASIZE SWAP1 PUSH1 0x4 ADD PUSH2 0x2E9B JUMP JUMPDEST SWAP1 PUSH2 0x3A3 DUP2 PUSH1 0x40 MLOAD SWAP4 PUSH2 0x374 DUP6 PUSH2 0x2E0E JUMP JUMPDEST PUSH1 0x0 PUSH1 0x80 PUSH1 0x60 SWAP7 DUP8 DUP2 MSTORE DUP8 DUP6 DUP3 ADD MSTORE DUP8 PUSH1 0x40 DUP3 ADD MSTORE DUP3 DUP9 DUP3 ADD MSTORE ADD MSTORE DUP2 PUSH1 0x40 MLOAD SWAP4 DUP3 DUP6 DUP1 SWAP5 MLOAD SWAP4 DUP5 SWAP3 ADD PUSH2 0x2F6B JUMP JUMPDEST DUP2 ADD PUSH1 0x2 DUP2 MSTORE SUB ADD SWAP1 KECCAK256 SWAP1 PUSH2 0x46F PUSH1 0x40 MLOAD SWAP4 PUSH2 0x3BE DUP6 PUSH2 0x2E0E JUMP JUMPDEST PUSH1 0x40 MLOAD PUSH2 0x3CF DUP2 PUSH2 0x1F6 DUP2 DUP9 PUSH2 0x3043 JUMP JUMPDEST DUP6 MSTORE PUSH1 0x40 MLOAD PUSH2 0x3E5 DUP2 PUSH2 0x1F6 DUP2 PUSH1 0x1 DUP10 ADD PUSH2 0x3043 JUMP JUMPDEST DUP4 DUP7 ADD SWAP1 DUP2 MSTORE PUSH1 0x40 MLOAD SWAP2 PUSH2 0x407 DUP4 PUSH2 0x400 DUP2 PUSH1 0x2 DUP11 ADD PUSH2 0x3043 JUMP JUMPDEST SUB DUP5 PUSH2 0x2E7A JUMP JUMPDEST PUSH1 0x40 DUP8 ADD SWAP3 DUP4 MSTORE PUSH2 0x45F PUSH2 0x449 PUSH1 0xFF PUSH1 0x4 PUSH1 0x3 DUP11 ADD SLOAD SWAP10 DUP6 DUP13 ADD SWAP11 DUP12 MSTORE ADD SLOAD AND SWAP7 PUSH1 0x80 DUP11 ADD SWAP8 ISZERO ISZERO DUP9 MSTORE PUSH1 0x40 MLOAD SWAP11 DUP12 SWAP11 DUP3 DUP13 MSTORE MLOAD SWAP2 DUP12 ADD MSTORE PUSH1 0xC0 DUP11 ADD SWAP1 PUSH2 0x2F8E JUMP JUMPDEST SWAP3 MLOAD SWAP3 PUSH1 0x1F NOT SWAP4 DUP5 DUP11 DUP4 SUB ADD PUSH1 0x40 DUP12 ADD MSTORE PUSH2 0x2F8E JUMP JUMPDEST SWAP3 MLOAD SWAP2 DUP8 DUP5 SUB ADD SWAP1 DUP8 ADD MSTORE PUSH2 0x2F8E JUMP JUMPDEST SWAP2 MLOAD PUSH1 0x80 DUP5 ADD MSTORE MLOAD ISZERO ISZERO PUSH1 0xA0 DUP4 ADD MSTORE SUB SWAP1 RETURN JUMPDEST CALLVALUE PUSH2 0x26D JUMPI PUSH1 0x20 CALLDATASIZE PUSH1 0x3 NOT ADD SLT PUSH2 0x26D JUMPI PUSH1 0x4 CALLDATALOAD PUSH1 0x1 PUSH1 0x1 PUSH1 0x40 SHL SUB DUP2 GT PUSH2 0x26D JUMPI PUSH2 0x4E8 PUSH2 0x4D9 PUSH1 0x20 PUSH2 0x4BD PUSH2 0x4FC SWAP5 CALLDATASIZE SWAP1 PUSH1 0x4 ADD PUSH2 0x2E9B JUMP JUMPDEST PUSH2 0x4C5 PUSH2 0x35AA JUMP JUMPDEST POP DUP2 PUSH1 0x40 MLOAD SWAP4 DUP3 DUP6 DUP1 SWAP5 MLOAD SWAP4 DUP5 SWAP3 ADD PUSH2 0x2F6B JUMP JUMPDEST DUP2 ADD PUSH1 0x5 DUP2 MSTORE SUB ADD SWAP1 KECCAK256 PUSH2 0x35D7 JUMP JUMPDEST PUSH1 0x40 MLOAD SWAP2 DUP3 SWAP2 PUSH1 0x20 DUP4 MSTORE PUSH1 0x20 DUP4 ADD SWAP1 PUSH2 0x2FB3 JUMP JUMPDEST SUB SWAP1 RETURN JUMPDEST CALLVALUE PUSH2 0x26D JUMPI PUSH1 0x20 CALLDATASIZE PUSH1 0x3 NOT ADD SLT PUSH2 0x26D JUMPI PUSH1 0x4 CALLDATALOAD PUSH1 0x1 PUSH1 0x1 PUSH1 0x40 SHL SUB DUP2 GT PUSH2 0x26D JUMPI PUSH2 0x538 PUSH1 0x20 PUSH2 0x2AA PUSH2 0x5AB SWAP4 CALLDATASIZE SWAP1 PUSH1 0x4 ADD PUSH2 0x2E9B JUMP JUMPDEST DUP2 ADD PUSH1 0x4 DUP2 MSTORE SUB ADD SWAP1 KECCAK256 PUSH1 0x40 MLOAD SWAP1 PUSH2 0x554 DUP3 PUSH2 0x2D9 DUP2 DUP5 PUSH2 0x3043 JUMP JUMPDEST PUSH1 0x40 MLOAD PUSH2 0x568 DUP2 PUSH2 0x1F6 DUP2 PUSH1 0x1 DUP7 ADD PUSH2 0x3043 JUMP JUMPDEST PUSH1 0x40 MLOAD SWAP2 PUSH2 0x57D DUP4 PUSH2 0x400 DUP2 PUSH1 0x2 DUP6 ADD PUSH2 0x3043 JUMP JUMPDEST PUSH2 0x5C7 PUSH1 0x3 DUP3 ADD SLOAD SWAP4 PUSH2 0x5B9 PUSH1 0xFF PUSH1 0x5 PUSH1 0x4 DUP7 ADD SLOAD SWAP6 ADD SLOAD AND SWAP5 PUSH1 0x40 MLOAD SWAP9 DUP10 SWAP9 PUSH1 0xC0 DUP11 MSTORE PUSH1 0xC0 DUP11 ADD SWAP1 PUSH2 0x2F8E JUMP JUMPDEST SWAP1 DUP9 DUP3 SUB PUSH1 0x20 DUP11 ADD MSTORE PUSH2 0x2F8E JUMP JUMPDEST SWAP1 DUP7 DUP3 SUB PUSH1 0x40 DUP9 ADD MSTORE PUSH2 0x2F8E JUMP JUMPDEST SWAP3 PUSH1 0x60 DUP6 ADD MSTORE PUSH1 0x80 DUP5 ADD MSTORE ISZERO ISZERO PUSH1 0xA0 DUP4 ADD MSTORE SUB SWAP1 RETURN JUMPDEST CALLVALUE PUSH2 0x26D JUMPI PUSH1 0x20 CALLDATASIZE PUSH1 0x3 NOT ADD SLT PUSH2 0x26D JUMPI PUSH1 0x4 CALLDATALOAD PUSH1 0x1 PUSH1 0x1 PUSH1 0xA0 SHL SUB DUP2 DUP2 AND SWAP2 DUP3 SWAP1 SUB PUSH2 0x26D JUMPI PUSH2 0x613 SWAP1 PUSH1 0x0 SLOAD AND CALLER EQ PUSH2 0x3146 JUMP JUMPDEST DUP1 PUSH1 0x0 MSTORE PUSH1 0x1 PUSH1 0x20 MSTORE PUSH1 0x40 PUSH1 0x0 KECCAK256 PUSH1 0xFF NOT DUP2 SLOAD AND SWAP1 SSTORE PUSH32 0xB43AC7BF01D16EBCB8C868A4C03FECB1F6984EA4FA1A52C116EF282B8DBB17C5 PUSH1 0x0 DUP1 LOG2 STOP JUMPDEST CALLVALUE PUSH2 0x26D JUMPI PUSH1 0x20 CALLDATASIZE PUSH1 0x3 NOT ADD SLT PUSH2 0x26D JUMPI PUSH1 0x4 CALLDATALOAD PUSH1 0x1 PUSH1 0x1 PUSH1 0x40 SHL SUB DUP2 GT PUSH2 0x26D JUMPI PUSH2 0x4E8 PUSH2 0x68B PUSH1 0x20 PUSH2 0x4BD PUSH2 0x4FC SWAP5 CALLDATASIZE SWAP1 PUSH1 0x4 ADD PUSH2 0x2E9B JUMP JUMPDEST DUP2 ADD PUSH1 0x7 DUP2 MSTORE SUB ADD SWAP1 KECCAK256 PUSH2 0x35D7 JUMP JUMPDEST CALLVALUE PUSH2 0x26D JUMPI PUSH2 0x6A8 CALLDATASIZE PUSH2 0x2EF1 JUMP JUMPDEST SWAP4 SWAP2 SWAP1 PUSH1 0x1 DUP1 PUSH1 0xA0 SHL SUB PUSH1 0x0 SLOAD AND CALLER EQ DUP1 ISZERO PUSH2 0x78F JUMPI JUMPDEST PUSH2 0x6C8 SWAP1 PUSH2 0x319C JUMP JUMPDEST PUSH1 0x40 MLOAD SWAP5 DUP4 MLOAD SWAP2 PUSH1 0x20 SWAP7 DUP8 DUP2 DUP2 DUP9 ADD SWAP6 PUSH2 0x6E3 DUP2 DUP4 DUP10 PUSH2 0x2F6B JUMP JUMPDEST DUP2 ADD PUSH1 0x2 DUP2 MSTORE SUB ADD SWAP1 KECCAK256 PUSH1 0x4 ADD SLOAD PUSH1 0xFF AND PUSH2 0x6FD SWAP1 PUSH2 0x31F9 JUMP JUMPDEST PUSH1 0x40 MLOAD SWAP4 PUSH2 0x70A DUP6 PUSH2 0x2E0E JUMP JUMPDEST DUP7 DUP6 MSTORE DUP8 DUP6 ADD MSTORE PUSH1 0x40 DUP5 ADD MSTORE PUSH1 0x60 DUP4 ADD MSTORE PUSH1 0x80 DUP3 ADD PUSH1 0x1 SWAP1 MSTORE DUP5 PUSH1 0x40 MLOAD DUP1 DUP1 SWAP4 DUP7 MLOAD DUP1 SWAP3 PUSH2 0x737 SWAP3 PUSH2 0x2F6B JUMP JUMPDEST DUP2 ADD PUSH1 0x6 DUP2 MSTORE SUB ADD SWAP1 KECCAK256 SWAP1 PUSH2 0x74B SWAP2 PUSH2 0x323C JUMP JUMPDEST PUSH2 0x754 SWAP1 PUSH2 0x31D9 JUMP JUMPDEST SWAP2 PUSH1 0x40 MLOAD SWAP2 DUP2 DUP4 SWAP3 DUP4 MSTORE DUP3 ADD PUSH2 0x769 SWAP2 PUSH2 0x2F8E JUMP JUMPDEST SUB PUSH32 0x3EC9558F8E31341D443D91D650FBCEA03F0BBE6D24D2E0D24E8F421536BA79BD SWAP2 LOG2 STOP JUMPDEST POP CALLER PUSH1 0x0 SWAP1 DUP2 MSTORE PUSH1 0x1 PUSH1 0x20 MSTORE PUSH1 0x40 SWAP1 KECCAK256 SLOAD PUSH1 0xFF AND PUSH2 0x6BF JUMP JUMPDEST CALLVALUE PUSH2 0x26D JUMPI PUSH1 0xC0 CALLDATASIZE PUSH1 0x3 NOT ADD SLT PUSH2 0x26D JUMPI PUSH1 0x4 CALLDATALOAD PUSH1 0x1 PUSH1 0x1 PUSH1 0x40 SHL SUB DUP2 GT PUSH2 0x26D JUMPI PUSH2 0x7D8 SWAP1 CALLDATASIZE SWAP1 PUSH1 0x4 ADD PUSH2 0x2E9B JUMP JUMPDEST PUSH1 0x24 CALLDATALOAD PUSH1 0x1 PUSH1 0x1 PUSH1 0x40 SHL SUB DUP2 GT PUSH2 0x26D JUMPI PUSH2 0x7F7 SWAP1 CALLDATASIZE SWAP1 PUSH1 0x4 ADD PUSH2 0x2E9B JUMP JUMPDEST PUSH1 0x44 CALLDATALOAD PUSH1 0x1 PUSH1 0x1 PUSH1 0x40 SHL SUB DUP2 GT PUSH2 0x26D JUMPI PUSH2 0x816 SWAP1 CALLDATASIZE SWAP1 PUSH1 0x4 ADD PUSH2 0x2E9B JUMP JUMPDEST PUSH1 0x64 CALLDATALOAD PUSH1 0x1 PUSH1 0x1 PUSH1 0x40 SHL SUB DUP2 GT PUSH2 0x26D JUMPI PUSH2 0x835 SWAP1 CALLDATASIZE SWAP1 PUSH1 0x4 ADD PUSH2 0x2E9B JUMP JUMPDEST SWAP1 PUSH1 0x1 DUP1 PUSH1 0xA0 SHL SUB PUSH1 0x0 SLOAD AND CALLER EQ DUP1 ISZERO PUSH2 0xCD7 JUMPI JUMPDEST PUSH2 0x853 SWAP1 PUSH2 0x319C JUMP JUMPDEST PUSH2 0x883 PUSH1 0xFF PUSH1 0x4 PUSH1 0x40 MLOAD PUSH1 0x20 DUP2 DUP2 PUSH2 0x871 DUP12 DUP4 DUP2 MLOAD SWAP4 DUP5 SWAP3 ADD PUSH2 0x2F6B JUMP JUMPDEST DUP2 ADD PUSH1 0x2 DUP2 MSTORE SUB ADD SWAP1 KECCAK256 ADD SLOAD AND PUSH2 0x31F9 JUMP JUMPDEST PUSH1 0x40 MLOAD SWAP3 PUSH2 0x890 DUP5 PUSH2 0x2E44 JUMP JUMPDEST DUP4 MSTORE PUSH1 0x20 DUP4 ADD MSTORE PUSH1 0x40 DUP3 ADD MSTORE PUSH1 0x84 CALLDATALOAD PUSH1 0x60 DUP3 ADD MSTORE PUSH1 0xA4 CALLDATALOAD PUSH1 0x80 DUP3 ADD MSTORE PUSH1 0x1 PUSH1 0xA0 DUP3 ADD MSTORE PUSH1 0x40 MLOAD PUSH1 0x20 DUP2 DUP5 MLOAD PUSH2 0x8C8 DUP2 DUP4 DUP6 DUP10 ADD PUSH2 0x2F6B JUMP JUMPDEST DUP2 ADD PUSH1 0x4 DUP2 MSTORE SUB ADD SWAP1 KECCAK256 SWAP1 DUP1 MLOAD SWAP3 DUP4 MLOAD PUSH1 0x1 PUSH1 0x1 PUSH1 0x40 SHL SUB DUP2 GT PUSH2 0xB48 JUMPI PUSH2 0x8F0 DUP5 SLOAD PUSH2 0x3009 JUMP JUMPDEST PUSH1 0x1F DUP2 GT PUSH2 0xC93 JUMPI JUMPDEST POP PUSH1 0x20 PUSH1 0x1F DUP3 GT PUSH1 0x1 EQ PUSH2 0xC2A JUMPI DUP2 SWAP3 SWAP4 SWAP5 SWAP6 PUSH1 0x0 SWAP3 PUSH2 0xC1F JUMPI JUMPDEST POP POP DUP2 PUSH1 0x1 SHL SWAP2 PUSH1 0x0 NOT SWAP1 PUSH1 0x3 SHL SHR NOT AND OR DUP4 SSTORE JUMPDEST PUSH1 0x20 DUP3 ADD MLOAD SWAP3 DUP4 MLOAD PUSH1 0x1 PUSH1 0x1 PUSH1 0x40 SHL SUB DUP2 GT PUSH2 0xB48 JUMPI PUSH2 0x94C PUSH1 0x1 DUP4 ADD SLOAD PUSH2 0x3009 JUMP JUMPDEST PUSH1 0x1F DUP2 GT PUSH2 0xBD8 JUMPI JUMPDEST POP PUSH1 0x20 PUSH1 0x1F DUP3 GT PUSH1 0x1 EQ PUSH2 0xB69 JUMPI DUP2 SWAP3 SWAP4 SWAP5 SWAP6 PUSH1 0x0 SWAP3 PUSH2 0xB5E JUMPI JUMPDEST POP POP DUP2 PUSH1 0x1 SHL SWAP2 PUSH1 0x0 NOT SWAP1 PUSH1 0x3 SHL SHR NOT AND OR PUSH1 0x1 DUP3 ADD SSTORE JUMPDEST PUSH1 0x40 DUP4 ADD MLOAD SWAP3 DUP4 MLOAD PUSH1 0x1 PUSH1 0x1 PUSH1 0x40 SHL SUB DUP2 GT PUSH2 0xB48 JUMPI PUSH2 0x9AB PUSH1 0x2 DUP5 ADD SLOAD PUSH2 0x3009 JUMP JUMPDEST PUSH1 0x1F DUP2 GT PUSH2 0xB01 JUMPI JUMPDEST POP PUSH1 0x20 PUSH1 0x1F DUP3 GT PUSH1 0x1 EQ PUSH2 0xA8B JUMPI SWAP2 DUP2 PUSH1 0xA0 SWAP3 PUSH1 0x5 SWAP5 PUSH2 0xA1A SWAP8 SWAP9 PUSH1 0x0 SWAP3 PUSH2 0xA80 JUMPI JUMPDEST POP POP DUP2 PUSH1 0x1 SHL SWAP2 PUSH1 0x0 NOT SWAP1 PUSH1 0x3 SHL SHR NOT AND OR PUSH1 0x2 DUP6 ADD SSTORE JUMPDEST PUSH1 0x60 DUP2 ADD MLOAD PUSH1 0x3 DUP6 ADD SSTORE PUSH1 0x80 DUP2 ADD MLOAD PUSH1 0x4 DUP6 ADD SSTORE ADD MLOAD ISZERO ISZERO SWAP2 ADD SWAP1 PUSH1 0xFF DUP1 NOT DUP4 SLOAD AND SWAP2 ISZERO ISZERO AND OR SWAP1 SSTORE JUMP JUMPDEST PUSH32 0xDC0EDD93D108C2AC79C6CF89FA9345D7BFC5FCEA6C0DE8C3A1920414A500BD68 PUSH2 0xA7B PUSH2 0xA66 PUSH1 0x40 MLOAD PUSH1 0x20 DUP2 DUP7 MLOAD PUSH2 0xA56 DUP2 DUP4 DUP6 DUP12 ADD PUSH2 0x2F6B JUMP JUMPDEST DUP2 ADD PUSH1 0x2 DUP2 MSTORE SUB ADD SWAP1 KECCAK256 SWAP4 PUSH2 0x31D9 JUMP JUMPDEST SWAP3 PUSH1 0x40 MLOAD SWAP2 DUP3 SWAP2 PUSH1 0x20 DUP4 MSTORE PUSH1 0x20 DUP4 ADD SWAP1 PUSH2 0x3043 JUMP JUMPDEST SUB SWAP1 LOG2 STOP JUMPDEST ADD MLOAD SWAP1 POP DUP9 DUP1 PUSH2 0x9D7 JUMP JUMPDEST PUSH1 0x1F NOT DUP3 AND SWAP6 PUSH1 0x2 DUP6 ADD PUSH1 0x0 MSTORE PUSH1 0x20 PUSH1 0x0 KECCAK256 SWAP7 PUSH1 0x0 JUMPDEST DUP2 DUP2 LT PUSH2 0xAE9 JUMPI POP SWAP3 PUSH2 0xA1A SWAP7 SWAP8 PUSH1 0x5 SWAP6 SWAP4 PUSH1 0x1 SWAP4 DUP4 PUSH1 0xA0 SWAP8 LT PUSH2 0xAD0 JUMPI JUMPDEST POP POP POP DUP2 SHL ADD PUSH1 0x2 DUP6 ADD SSTORE PUSH2 0x9EF JUMP JUMPDEST ADD MLOAD PUSH1 0x0 NOT PUSH1 0xF8 DUP5 PUSH1 0x3 SHL AND SHR NOT AND SWAP1 SSTORE DUP9 DUP1 DUP1 PUSH2 0xAC0 JUMP JUMPDEST DUP4 DUP4 ADD MLOAD DUP10 SSTORE PUSH1 0x1 SWAP1 SWAP9 ADD SWAP8 PUSH1 0x20 SWAP4 DUP5 ADD SWAP4 ADD PUSH2 0xAA1 JUMP JUMPDEST PUSH1 0x2 DUP5 ADD PUSH1 0x0 MSTORE PUSH1 0x20 PUSH1 0x0 KECCAK256 PUSH1 0x1F DUP4 ADD PUSH1 0x5 SHR DUP2 ADD PUSH1 0x20 DUP5 LT PUSH2 0xB41 JUMPI JUMPDEST PUSH1 0x1F DUP4 ADD PUSH1 0x5 SHR DUP3 ADD DUP2 LT PUSH2 0xB35 JUMPI POP POP PUSH2 0x9B4 JUMP JUMPDEST PUSH1 0x0 DUP2 SSTORE PUSH1 0x1 ADD PUSH2 0xB1F JUMP JUMPDEST POP DUP1 PUSH2 0xB1F JUMP JUMPDEST PUSH4 0x4E487B71 PUSH1 0xE0 SHL PUSH1 0x0 MSTORE PUSH1 0x41 PUSH1 0x4 MSTORE PUSH1 0x24 PUSH1 0x0 REVERT JUMPDEST ADD MLOAD SWAP1 POP DUP6 DUP1 PUSH2 0x970 JUMP JUMPDEST PUSH1 0x1 DUP4 ADD PUSH1 0x0 MSTORE PUSH1 0x20 PUSH1 0x0 KECCAK256 SWAP1 PUSH1 0x0 JUMPDEST PUSH1 0x1F NOT DUP5 AND DUP2 LT PUSH2 0xBC0 JUMPI POP PUSH1 0x1 SWAP4 SWAP5 SWAP6 SWAP7 DUP4 PUSH1 0x1F NOT DUP2 AND LT PUSH2 0xBA7 JUMPI JUMPDEST POP POP POP DUP2 SHL ADD PUSH1 0x1 DUP3 ADD SSTORE PUSH2 0x988 JUMP JUMPDEST ADD MLOAD PUSH1 0x0 NOT PUSH1 0xF8 DUP5 PUSH1 0x3 SHL AND SHR NOT AND SWAP1 SSTORE DUP6 DUP1 DUP1 PUSH2 0xB97 JUMP JUMPDEST SWAP1 SWAP2 PUSH1 0x20 PUSH1 0x1 DUP2 SWAP3 DUP6 DUP12 ADD MLOAD DUP2 SSTORE ADD SWAP4 ADD SWAP2 ADD PUSH2 0xB79 JUMP JUMPDEST PUSH1 0x1 DUP4 ADD PUSH1 0x0 MSTORE PUSH1 0x20 PUSH1 0x0 KECCAK256 PUSH1 0x1F DUP4 ADD PUSH1 0x5 SHR DUP2 ADD PUSH1 0x20 DUP5 LT PUSH2 0xC18 JUMPI JUMPDEST PUSH1 0x1F DUP4 ADD PUSH1 0x5 SHR DUP3 ADD DUP2 LT PUSH2 0xC0C JUMPI POP POP PUSH2 0x955 JUMP JUMPDEST PUSH1 0x0 DUP2 SSTORE PUSH1 0x1 ADD PUSH2 0xBF6 JUMP JUMPDEST POP DUP1 PUSH2 0xBF6 JUMP JUMPDEST ADD MLOAD SWAP1 POP DUP6 DUP1 PUSH2 0x914 JUMP JUMPDEST DUP5 PUSH1 0x0 MSTORE PUSH1 0x20 PUSH1 0x0 KECCAK256 SWAP1 PUSH1 0x0 JUMPDEST PUSH1 0x1F NOT DUP5 AND DUP2 LT PUSH2 0xC7B JUMPI POP PUSH1 0x1 SWAP4 SWAP5 SWAP6 SWAP7 DUP4 PUSH1 0x1F NOT DUP2 AND LT PUSH2 0xC62 JUMPI JUMPDEST POP POP POP DUP2 SHL ADD DUP4 SSTORE PUSH2 0x929 JUMP JUMPDEST ADD MLOAD PUSH1 0x0 NOT PUSH1 0xF8 DUP5 PUSH1 0x3 SHL AND SHR NOT AND SWAP1 SSTORE DUP6 DUP1 DUP1 PUSH2 0xC55 JUMP JUMPDEST SWAP1 SWAP2 PUSH1 0x20 PUSH1 0x1 DUP2 SWAP3 DUP6 DUP12 ADD MLOAD DUP2 SSTORE ADD SWAP4 ADD SWAP2 ADD PUSH2 0xC37 JUMP JUMPDEST DUP5 PUSH1 0x0 MSTORE PUSH1 0x20 PUSH1 0x0 KECCAK256 PUSH1 0x1F DUP4 ADD PUSH1 0x5 SHR DUP2 ADD PUSH1 0x20 DUP5 LT PUSH2 0xCD0 JUMPI JUMPDEST PUSH1 0x1F DUP4 ADD PUSH1 0x5 SHR DUP3 ADD DUP2 LT PUSH2 0xCC4 JUMPI POP POP PUSH2 0x8F9 JUMP JUMPDEST PUSH1 0x0 DUP2 SSTORE PUSH1 0x1 ADD PUSH2 0xCAE JUMP JUMPDEST POP DUP1 PUSH2 0xCAE JUMP JUMPDEST POP CALLER PUSH1 0x0 SWAP1 DUP2 MSTORE PUSH1 0x1 PUSH1 0x20 MSTORE PUSH1 0x40 SWAP1 KECCAK256 SLOAD PUSH1 0xFF AND PUSH2 0x84A JUMP JUMPDEST CALLVALUE PUSH2 0x26D JUMPI PUSH2 0xCFE CALLDATASIZE PUSH2 0x2EF1 JUMP JUMPDEST SWAP4 SWAP2 SWAP1 PUSH1 0x1 DUP1 PUSH1 0xA0 SHL SUB PUSH1 0x0 SLOAD AND CALLER EQ DUP1 ISZERO PUSH2 0xDE5 JUMPI JUMPDEST PUSH2 0xD1E SWAP1 PUSH2 0x319C JUMP JUMPDEST PUSH1 0x40 MLOAD SWAP5 DUP4 MLOAD SWAP2 PUSH1 0x20 SWAP7 DUP8 DUP2 DUP2 DUP9 ADD SWAP6 PUSH2 0xD39 DUP2 DUP4 DUP10 PUSH2 0x2F6B JUMP JUMPDEST DUP2 ADD PUSH1 0x2 DUP2 MSTORE SUB ADD SWAP1 KECCAK256 PUSH1 0x4 ADD SLOAD PUSH1 0xFF AND PUSH2 0xD53 SWAP1 PUSH2 0x31F9 JUMP JUMPDEST PUSH1 0x40 MLOAD SWAP4 PUSH2 0xD60 DUP6 PUSH2 0x2E0E JUMP JUMPDEST DUP7 DUP6 MSTORE DUP8 DUP6 ADD MSTORE PUSH1 0x40 DUP5 ADD MSTORE PUSH1 0x60 DUP4 ADD MSTORE PUSH1 0x80 DUP3 ADD PUSH1 0x1 SWAP1 MSTORE DUP5 PUSH1 0x40 MLOAD DUP1 DUP1 SWAP4 DUP7 MLOAD DUP1 SWAP3 PUSH2 0xD8D SWAP3 PUSH2 0x2F6B JUMP JUMPDEST DUP2 ADD PUSH1 0x5 DUP2 MSTORE SUB ADD SWAP1 KECCAK256 SWAP1 PUSH2 0xDA1 SWAP2 PUSH2 0x323C JUMP JUMPDEST PUSH2 0xDAA SWAP1 PUSH2 0x31D9 JUMP JUMPDEST SWAP2 PUSH1 0x40 MLOAD SWAP2 DUP2 DUP4 SWAP3 DUP4 MSTORE DUP3 ADD PUSH2 0xDBF SWAP2 PUSH2 0x2F8E JUMP JUMPDEST SUB PUSH32 0xBF68B6C807826BA70F2D9B022A71229D2A854CB7264E05E07F027CE3BA4CF302 SWAP2 LOG2 STOP JUMPDEST POP CALLER PUSH1 0x0 SWAP1 DUP2 MSTORE PUSH1 0x1 PUSH1 0x20 MSTORE PUSH1 0x40 SWAP1 KECCAK256 SLOAD PUSH1 0xFF AND PUSH2 0xD15 JUMP JUMPDEST CALLVALUE PUSH2 0x26D JUMPI PUSH1 0x20 DUP1 PUSH1 0x3 NOT CALLDATASIZE ADD SLT PUSH2 0x26D JUMPI PUSH1 0x1 PUSH1 0x1 PUSH1 0x40 SHL SUB PUSH1 0x4 CALLDATALOAD DUP2 DUP2 GT PUSH2 0x26D JUMPI DUP3 PUSH2 0x2AA PUSH2 0xE34 SWAP3 CALLDATASIZE SWAP1 PUSH1 0x4 ADD PUSH2 0x2E9B JUMP JUMPDEST DUP2 ADD PUSH1 0x8 DUP2 MSTORE SUB ADD SWAP1 KECCAK256 DUP1 SLOAD SWAP2 DUP3 GT PUSH2 0xB48 JUMPI DUP3 SWAP1 PUSH1 0x40 MLOAD SWAP3 PUSH2 0xE5C DUP4 DUP3 PUSH1 0x5 SHL ADD DUP6 PUSH2 0x2E7A JUMP JUMPDEST DUP1 DUP5 MSTORE DUP3 DUP5 ADD DUP1 SWAP3 PUSH1 0x0 MSTORE DUP4 PUSH1 0x0 KECCAK256 PUSH1 0x0 SWAP2 JUMPDEST DUP4 DUP4 LT PUSH2 0xF13 JUMPI POP POP POP POP PUSH1 0x40 MLOAD SWAP2 DUP1 DUP4 ADD SWAP4 DUP2 DUP5 MSTORE MLOAD DUP1 SWAP5 MSTORE PUSH1 0x40 DUP4 ADD SWAP4 PUSH1 0x40 DUP2 PUSH1 0x5 SHL DUP6 ADD ADD SWAP3 SWAP2 PUSH1 0x0 SWAP6 JUMPDEST DUP3 DUP8 LT PUSH2 0xEAA JUMPI DUP6 DUP6 SUB DUP7 RETURN JUMPDEST SWAP1 SWAP2 SWAP3 SWAP4 DUP3 DUP1 PUSH1 0x1 SWAP3 PUSH1 0x3F NOT DUP10 DUP3 SUB ADD DUP6 MSTORE DUP8 MLOAD SWAP1 PUSH2 0xEF9 PUSH2 0xEE7 PUSH2 0xED7 DUP5 MLOAD PUSH1 0x80 DUP1 DUP7 MSTORE DUP6 ADD SWAP1 PUSH2 0x2F8E JUMP JUMPDEST DUP6 DUP6 ADD MLOAD DUP5 DUP3 SUB DUP8 DUP7 ADD MSTORE PUSH2 0x2F8E JUMP JUMPDEST PUSH1 0x40 DUP5 ADD MLOAD DUP4 DUP3 SUB PUSH1 0x40 DUP6 ADD MSTORE PUSH2 0x2F8E JUMP JUMPDEST SWAP2 PUSH1 0x60 DUP1 SWAP2 ADD MLOAD SWAP2 ADD MSTORE SWAP7 ADD SWAP3 ADD SWAP7 ADD SWAP6 SWAP3 SWAP2 SWAP1 SWAP3 PUSH2 0xE9D JUMP JUMPDEST PUSH1 0x4 DUP7 PUSH1 0x1 SWAP3 PUSH1 0x40 SWAP10 SWAP9 SWAP10 MLOAD PUSH2 0xF28 DUP2 PUSH2 0x2E29 JUMP JUMPDEST PUSH1 0x40 MLOAD PUSH2 0xF39 DUP2 PUSH2 0x1F6 DUP2 DUP11 PUSH2 0x3043 JUMP JUMPDEST DUP2 MSTORE PUSH1 0x40 MLOAD PUSH2 0xF4E DUP2 PUSH2 0x1F6 DUP2 DUP10 DUP12 ADD PUSH2 0x3043 JUMP JUMPDEST DUP4 DUP3 ADD MSTORE PUSH1 0x40 MLOAD PUSH2 0xF66 DUP2 PUSH2 0x1F6 DUP2 PUSH1 0x2 DUP12 ADD PUSH2 0x3043 JUMP JUMPDEST PUSH1 0x40 DUP3 ADD MSTORE PUSH1 0x3 DUP7 ADD SLOAD PUSH1 0x60 DUP3 ADD MSTORE DUP2 MSTORE ADD SWAP3 ADD SWAP3 ADD SWAP2 SWAP1 SWAP6 SWAP5 SWAP6 PUSH2 0xE6F JUMP JUMPDEST CALLVALUE PUSH2 0x26D JUMPI PUSH1 0x60 CALLDATASIZE PUSH1 0x3 NOT ADD SLT PUSH2 0x26D JUMPI PUSH1 0x1 PUSH1 0x1 PUSH1 0x40 SHL SUB PUSH1 0x4 CALLDATALOAD DUP2 DUP2 GT PUSH2 0x26D JUMPI PUSH2 0xFB7 SWAP1 CALLDATASIZE SWAP1 PUSH1 0x4 ADD PUSH2 0x2E9B JUMP JUMPDEST PUSH1 0x24 CALLDATALOAD DUP3 DUP2 GT PUSH2 0x26D JUMPI PUSH2 0xFCF SWAP1 CALLDATASIZE SWAP1 PUSH1 0x4 ADD PUSH2 0x2E9B JUMP JUMPDEST SWAP2 PUSH1 0x44 CALLDATALOAD DUP2 DUP2 GT PUSH2 0x26D JUMPI PUSH2 0xFE8 SWAP1 CALLDATASIZE SWAP1 PUSH1 0x4 ADD PUSH2 0x2E9B JUMP JUMPDEST PUSH1 0x0 SLOAD PUSH1 0x1 PUSH1 0x1 PUSH1 0xA0 SHL SUB AND CALLER EQ DUP1 ISZERO PUSH2 0x12D2 JUMPI JUMPDEST PUSH2 0x1006 SWAP1 PUSH2 0x319C JUMP JUMPDEST PUSH1 0x40 MLOAD SWAP2 DUP4 MLOAD PUSH2 0x1027 PUSH1 0xFF PUSH1 0x4 PUSH1 0x20 SWAP7 DUP8 DUP2 DUP2 DUP12 ADD SWAP7 PUSH2 0x871 DUP2 DUP4 DUP11 PUSH2 0x2F6B JUMP JUMPDEST PUSH1 0x40 MLOAD SWAP6 PUSH2 0x1034 DUP8 PUSH2 0x2E5F JUMP JUMPDEST DUP7 MSTORE DUP4 DUP7 ADD SWAP3 DUP4 MSTORE PUSH1 0x40 DUP7 ADD SWAP4 PUSH2 0x105C DUP2 PUSH1 0x1 SWAP4 DUP5 DUP9 MSTORE PUSH1 0x40 MLOAD DUP1 SWAP4 DUP2 SWAP3 DUP12 MLOAD SWAP3 DUP4 SWAP2 PUSH2 0x2F6B JUMP JUMPDEST DUP2 ADD PUSH1 0x9 DUP2 MSTORE SUB ADD SWAP1 KECCAK256 SWAP7 MLOAD SWAP1 DUP2 MLOAD DUP5 DUP2 GT PUSH2 0xB48 JUMPI DUP1 PUSH2 0x107D DUP11 SLOAD PUSH2 0x3009 JUMP JUMPDEST SWAP4 PUSH1 0x1F SWAP5 DUP6 DUP2 GT PUSH2 0x1281 JUMPI JUMPDEST POP DUP4 SWAP1 DUP6 DUP4 GT PUSH1 0x1 EQ PUSH2 0x121E JUMPI PUSH1 0x0 SWAP3 PUSH2 0x1213 JUMPI JUMPDEST POP POP PUSH1 0x0 NOT PUSH1 0x3 DUP4 SWAP1 SHL SHR NOT AND SWAP1 DUP5 SHL OR DUP9 SSTORE JUMPDEST DUP3 DUP9 ADD SWAP5 MLOAD SWAP1 DUP2 MLOAD SWAP5 DUP6 GT PUSH2 0xB48 JUMPI PUSH2 0x10CB DUP7 SLOAD PUSH2 0x3009 JUMP JUMPDEST DUP4 DUP2 GT PUSH2 0x11CD JUMPI JUMPDEST POP DUP1 SWAP3 DUP6 GT PUSH1 0x1 EQ PUSH2 0x1158 JUMPI POP SWAP3 DUP1 DUP1 PUSH2 0x1121 SWAP8 SWAP5 PUSH2 0x1126 SWAP11 SWAP8 SWAP5 PUSH1 0x2 SWAP8 PUSH1 0x0 SWAP5 PUSH2 0x114D JUMPI JUMPDEST POP POP SHL SWAP2 PUSH1 0x0 NOT SWAP1 PUSH1 0x3 SHL SHR NOT AND OR SWAP1 SSTORE JUMPDEST MLOAD ISZERO ISZERO SWAP2 ADD SWAP1 PUSH1 0xFF DUP1 NOT DUP4 SLOAD AND SWAP2 ISZERO ISZERO AND OR SWAP1 SSTORE JUMP JUMPDEST PUSH2 0x31D9 JUMP JUMPDEST PUSH32 0x2D33D74CCA76EA140D21832E718983D638A88B2959A1B070BCFC844952552D0F PUSH1 0x0 DUP1 LOG2 STOP JUMPDEST ADD MLOAD SWAP3 POP DUP12 DUP1 PUSH2 0x10F9 JUMP JUMPDEST SWAP2 SWAP1 PUSH1 0x1F SWAP5 SWAP4 SWAP5 NOT DUP5 AND DUP7 PUSH1 0x0 MSTORE DUP4 PUSH1 0x0 KECCAK256 SWAP4 PUSH1 0x0 SWAP1 JUMPDEST DUP3 DUP3 LT PUSH2 0x11B6 JUMPI POP POP SWAP3 PUSH1 0x2 SWAP6 SWAP3 DUP6 SWAP3 PUSH2 0x1121 SWAP10 SWAP7 PUSH2 0x1126 SWAP13 SWAP10 SWAP7 LT PUSH2 0x119D JUMPI JUMPDEST POP POP POP DUP2 SHL ADD SWAP1 SSTORE PUSH2 0x110B JUMP JUMPDEST ADD MLOAD PUSH1 0x0 NOT PUSH1 0xF8 DUP5 PUSH1 0x3 SHL AND SHR NOT AND SWAP1 SSTORE DUP10 DUP1 DUP1 PUSH2 0x1190 JUMP JUMPDEST DUP1 DUP9 DUP7 SWAP8 DUP3 SWAP5 SWAP8 DUP8 ADD MLOAD DUP2 SSTORE ADD SWAP7 ADD SWAP5 ADD SWAP1 PUSH2 0x116F JUMP JUMPDEST DUP7 PUSH1 0x0 MSTORE DUP2 PUSH1 0x0 KECCAK256 DUP5 DUP1 DUP9 ADD PUSH1 0x5 SHR DUP3 ADD SWAP3 DUP5 DUP10 LT PUSH2 0x120A JUMPI JUMPDEST ADD PUSH1 0x5 SHR ADD SWAP1 DUP6 SWAP1 JUMPDEST DUP3 DUP2 LT PUSH2 0x11FE JUMPI POP POP PUSH2 0x10D3 JUMP JUMPDEST PUSH1 0x0 DUP2 SSTORE ADD DUP6 SWAP1 PUSH2 0x11F0 JUMP JUMPDEST SWAP3 POP DUP2 SWAP3 PUSH2 0x11E7 JUMP JUMPDEST ADD MLOAD SWAP1 POP DUP11 DUP1 PUSH2 0x109E JUMP JUMPDEST SWAP1 DUP7 SWAP4 POP PUSH1 0x1F NOT DUP4 AND SWAP2 DUP13 PUSH1 0x0 MSTORE DUP6 PUSH1 0x0 KECCAK256 SWAP3 PUSH1 0x0 JUMPDEST DUP8 DUP3 DUP3 LT PUSH2 0x126B JUMPI POP POP DUP5 GT PUSH2 0x1252 JUMPI JUMPDEST POP POP POP DUP2 SHL ADD DUP9 SSTORE PUSH2 0x10B2 JUMP JUMPDEST ADD MLOAD PUSH1 0x0 NOT PUSH1 0xF8 DUP5 PUSH1 0x3 SHL AND SHR NOT AND SWAP1 SSTORE DUP11 DUP1 DUP1 PUSH2 0x1245 JUMP JUMPDEST DUP4 DUP6 ADD MLOAD DUP7 SSTORE DUP11 SWAP8 SWAP1 SWAP6 ADD SWAP5 SWAP4 DUP5 ADD SWAP4 ADD PUSH2 0x1234 JUMP JUMPDEST SWAP1 SWAP2 POP DUP11 PUSH1 0x0 MSTORE DUP4 PUSH1 0x0 KECCAK256 DUP6 DUP1 DUP6 ADD PUSH1 0x5 SHR DUP3 ADD SWAP3 DUP7 DUP7 LT PUSH2 0x12C9 JUMPI JUMPDEST SWAP2 DUP9 SWAP2 DUP7 SWAP6 SWAP5 SWAP4 ADD PUSH1 0x5 SHR ADD SWAP2 JUMPDEST DUP3 DUP2 LT PUSH2 0x12BA JUMPI POP POP PUSH2 0x1089 JUMP JUMPDEST PUSH1 0x0 DUP2 SSTORE DUP6 SWAP5 POP DUP9 SWAP2 ADD PUSH2 0x12AC JUMP JUMPDEST SWAP3 POP DUP2 SWAP3 PUSH2 0x129E JUMP JUMPDEST POP CALLER PUSH1 0x0 SWAP1 DUP2 MSTORE PUSH1 0x1 PUSH1 0x20 MSTORE PUSH1 0x40 SWAP1 KECCAK256 SLOAD PUSH1 0xFF AND PUSH2 0xFFD JUMP JUMPDEST CALLVALUE PUSH2 0x26D JUMPI PUSH1 0x20 CALLDATASIZE PUSH1 0x3 NOT ADD SLT PUSH2 0x26D JUMPI PUSH1 0x4 CALLDATALOAD PUSH1 0x1 PUSH1 0x1 PUSH1 0x40 SHL SUB DUP2 GT PUSH2 0x26D JUMPI PUSH1 0x20 PUSH2 0x2AA PUSH2 0x1320 SWAP3 CALLDATASIZE SWAP1 PUSH1 0x4 ADD PUSH2 0x2E9B JUMP JUMPDEST DUP2 ADD PUSH1 0x7 DUP2 MSTORE SUB ADD SWAP1 KECCAK256 PUSH1 0x40 MLOAD PUSH2 0x133B DUP2 PUSH2 0x1F6 DUP2 DUP6 PUSH2 0x3043 JUMP JUMPDEST PUSH2 0x4FC PUSH1 0x40 MLOAD SWAP3 PUSH2 0x135A DUP5 PUSH2 0x1353 DUP2 PUSH1 0x1 DUP6 ADD PUSH2 0x3043 JUMP JUMPDEST SUB DUP6 PUSH2 0x2E7A JUMP JUMPDEST PUSH1 0x2 DUP2 ADD SLOAD SWAP1 PUSH1 0xFF PUSH1 0x4 PUSH1 0x40 MLOAD SWAP3 PUSH2 0x1379 DUP5 PUSH2 0x1353 DUP2 PUSH1 0x3 DUP6 ADD PUSH2 0x3043 JUMP JUMPDEST ADD SLOAD AND SWAP2 PUSH1 0x40 MLOAD SWAP6 DUP7 SWAP6 DUP7 PUSH2 0x310B JUMP JUMPDEST CALLVALUE PUSH2 0x26D JUMPI PUSH1 0x0 CALLDATASIZE PUSH1 0x3 NOT ADD SLT PUSH2 0x26D JUMPI PUSH1 0x0 SLOAD PUSH1 0x40 MLOAD PUSH1 0x1 PUSH1 0x1 PUSH1 0xA0 SHL SUB SWAP1 SWAP2 AND DUP2 MSTORE PUSH1 0x20 SWAP1 RETURN JUMPDEST CALLVALUE PUSH2 0x26D JUMPI PUSH1 0x20 CALLDATASIZE PUSH1 0x3 NOT ADD SLT PUSH2 0x26D JUMPI PUSH1 0x4 CALLDATALOAD PUSH1 0x1 PUSH1 0x1 PUSH1 0x40 SHL SUB DUP2 GT PUSH2 0x26D JUMPI PUSH1 0xFF PUSH1 0x4 PUSH2 0x13EB PUSH1 0x20 PUSH2 0x2AA DUP2 SWAP6 CALLDATASIZE SWAP1 DUP6 ADD PUSH2 0x2E9B JUMP JUMPDEST DUP2 ADD PUSH1 0x2 DUP2 MSTORE SUB ADD SWAP1 KECCAK256 ADD SLOAD AND PUSH1 0x40 MLOAD SWAP1 ISZERO ISZERO DUP2 MSTORE RETURN JUMPDEST CALLVALUE PUSH2 0x26D JUMPI PUSH1 0x20 CALLDATASIZE PUSH1 0x3 NOT ADD SLT PUSH2 0x26D JUMPI PUSH1 0x4 CALLDATALOAD PUSH1 0x1 PUSH1 0x1 PUSH1 0x40 SHL SUB DUP2 GT PUSH2 0x26D JUMPI PUSH2 0x1438 PUSH1 0x20 PUSH2 0x2AA DUP2 SWAP4 CALLDATASIZE SWAP1 PUSH1 0x4 ADD PUSH2 0x2E9B JUMP JUMPDEST DUP2 ADD PUSH1 0x8 DUP2 MSTORE SUB ADD SWAP1 KECCAK256 SLOAD PUSH1 0x40 MLOAD SWAP1 DUP2 MSTORE RETURN JUMPDEST CALLVALUE PUSH2 0x26D JUMPI PUSH1 0x20 DUP1 PUSH1 0x3 NOT CALLDATASIZE ADD SLT PUSH2 0x26D JUMPI PUSH1 0x4 CALLDATALOAD SWAP1 PUSH1 0x1 PUSH1 0x1 PUSH1 0x40 SHL SUB DUP3 GT PUSH2 0x26D JUMPI PUSH2 0x147F PUSH1 0xA0 SWAP3 CALLDATASIZE SWAP1 PUSH1 0x4 ADD PUSH2 0x2E9B JUMP JUMPDEST SWAP1 PUSH2 0x15B0 PUSH2 0x14C3 DUP3 PUSH1 0x40 MLOAD SWAP5 PUSH2 0x1494 DUP7 PUSH2 0x2E0E JUMP JUMPDEST PUSH1 0x0 PUSH1 0x80 PUSH1 0x60 SWAP8 DUP9 DUP2 MSTORE DUP9 DUP6 DUP3 ADD MSTORE DUP9 PUSH1 0x40 DUP3 ADD MSTORE DUP9 DUP1 DUP3 ADD MSTORE ADD MSTORE DUP2 PUSH1 0x40 MLOAD SWAP4 DUP3 DUP6 DUP1 SWAP5 MLOAD SWAP4 DUP5 SWAP3 ADD PUSH2 0x2F6B JUMP JUMPDEST DUP2 ADD PUSH1 0x3 DUP2 MSTORE SUB ADD SWAP1 KECCAK256 PUSH1 0x40 MLOAD SWAP4 PUSH2 0x14DA DUP6 PUSH2 0x2E0E JUMP JUMPDEST PUSH1 0x40 MLOAD PUSH2 0x14EB DUP2 PUSH2 0x1F6 DUP2 DUP7 PUSH2 0x3043 JUMP JUMPDEST DUP6 MSTORE PUSH2 0x159F PUSH1 0x40 MLOAD SWAP2 PUSH2 0x1505 DUP4 PUSH2 0x400 DUP2 PUSH1 0x1 DUP9 ADD PUSH2 0x3043 JUMP JUMPDEST DUP6 DUP8 ADD SWAP3 DUP4 MSTORE PUSH1 0x40 MLOAD SWAP1 PUSH2 0x1520 DUP3 PUSH2 0x2D9 DUP2 PUSH1 0x2 DUP10 ADD PUSH2 0x3043 JUMP JUMPDEST PUSH1 0x40 DUP9 ADD SWAP2 DUP3 MSTORE PUSH2 0x158E PUSH2 0x1578 PUSH1 0xFF PUSH1 0x4 PUSH1 0x40 MLOAD SWAP9 PUSH2 0x154D DUP11 PUSH2 0x1546 DUP2 PUSH1 0x3 DUP6 ADD PUSH2 0x3043 JUMP JUMPDEST SUB DUP12 PUSH2 0x2E7A JUMP JUMPDEST DUP6 DUP14 ADD SWAP10 DUP11 MSTORE ADD SLOAD AND SWAP9 PUSH1 0x80 DUP12 ADD SWAP10 ISZERO ISZERO DUP11 MSTORE PUSH1 0x40 MLOAD SWAP12 DUP13 SWAP12 DUP3 DUP14 MSTORE MLOAD SWAP2 DUP13 ADD MSTORE PUSH1 0xC0 DUP12 ADD SWAP1 PUSH2 0x2F8E JUMP JUMPDEST SWAP5 MLOAD SWAP5 PUSH1 0x1F NOT SWAP6 DUP7 DUP12 DUP4 SUB ADD PUSH1 0x40 DUP13 ADD MSTORE PUSH2 0x2F8E JUMP JUMPDEST SWAP2 MLOAD SWAP1 DUP5 DUP10 DUP5 SUB ADD SWAP1 DUP10 ADD MSTORE PUSH2 0x2F8E JUMP JUMPDEST SWAP2 MLOAD SWAP1 DUP6 DUP4 SUB ADD PUSH1 0x80 DUP7 ADD MSTORE PUSH2 0x2F8E JUMP JUMPDEST SWAP1 MLOAD ISZERO ISZERO PUSH1 0xA0 DUP4 ADD MSTORE SUB SWAP1 RETURN JUMPDEST CALLVALUE PUSH2 0x26D JUMPI PUSH1 0x20 CALLDATASIZE PUSH1 0x3 NOT ADD SLT PUSH2 0x26D JUMPI PUSH1 0x4 CALLDATALOAD PUSH1 0x1 PUSH1 0x1 PUSH1 0x40 SHL SUB DUP2 GT PUSH2 0x26D JUMPI PUSH2 0x15F5 PUSH1 0x20 PUSH2 0x2AA PUSH2 0x1661 SWAP4 CALLDATASIZE SWAP1 PUSH1 0x4 ADD PUSH2 0x2E9B JUMP JUMPDEST DUP2 ADD PUSH1 0x2 DUP2 MSTORE SUB ADD SWAP1 KECCAK256 PUSH1 0x40 MLOAD SWAP1 PUSH2 0x1611 DUP3 PUSH2 0x2D9 DUP2 DUP5 PUSH2 0x3043 JUMP JUMPDEST PUSH1 0x40 MLOAD PUSH2 0x1625 DUP2 PUSH2 0x1F6 DUP2 PUSH1 0x1 DUP7 ADD PUSH2 0x3043 JUMP JUMPDEST PUSH2 0x167D PUSH1 0x40 MLOAD PUSH2 0x163C DUP2 PUSH2 0x1F6 DUP2 PUSH1 0x2 DUP9 ADD PUSH2 0x3043 JUMP JUMPDEST PUSH2 0x166F PUSH1 0xFF PUSH1 0x4 PUSH1 0x3 DUP8 ADD SLOAD SWAP7 ADD SLOAD AND SWAP4 PUSH1 0x40 MLOAD SWAP8 DUP9 SWAP8 PUSH1 0xA0 DUP10 MSTORE PUSH1 0xA0 DUP10 ADD SWAP1 PUSH2 0x2F8E JUMP JUMPDEST SWAP1 DUP8 DUP3 SUB PUSH1 0x20 DUP10 ADD MSTORE PUSH2 0x2F8E JUMP JUMPDEST SWAP1 DUP6 DUP3 SUB PUSH1 0x40 DUP8 ADD MSTORE PUSH2 0x2F8E JUMP JUMPDEST SWAP2 PUSH1 0x60 DUP5 ADD MSTORE ISZERO ISZERO PUSH1 0x80 DUP4 ADD MSTORE SUB SWAP1 RETURN JUMPDEST CALLVALUE PUSH2 0x26D JUMPI PUSH1 0x20 DUP1 PUSH1 0x3 NOT CALLDATASIZE ADD SLT PUSH2 0x26D JUMPI PUSH1 0x4 CALLDATALOAD SWAP1 PUSH1 0x1 PUSH1 0x1 PUSH1 0x40 SHL SUB DUP3 GT PUSH2 0x26D JUMPI PUSH2 0x16C2 PUSH1 0xC0 SWAP3 CALLDATASIZE SWAP1 PUSH1 0x4 ADD PUSH2 0x2E9B JUMP JUMPDEST PUSH2 0x1708 DUP3 PUSH1 0x40 MLOAD SWAP3 PUSH2 0x16D3 DUP5 PUSH2 0x2E44 JUMP JUMPDEST PUSH1 0x0 PUSH1 0xA0 PUSH1 0x60 SWAP6 DUP7 DUP2 MSTORE DUP7 DUP6 DUP3 ADD MSTORE DUP7 PUSH1 0x40 DUP3 ADD MSTORE DUP3 DUP8 DUP3 ADD MSTORE DUP3 PUSH1 0x80 DUP3 ADD MSTORE ADD MSTORE DUP2 PUSH1 0x40 MLOAD SWAP4 DUP3 DUP6 DUP1 SWAP5 MLOAD SWAP4 DUP5 SWAP3 ADD PUSH2 0x2F6B JUMP JUMPDEST DUP2 ADD PUSH1 0x4 DUP2 MSTORE SUB ADD SWAP1 KECCAK256 SWAP2 PUSH1 0x40 MLOAD SWAP3 PUSH2 0x1720 DUP5 PUSH2 0x2E44 JUMP JUMPDEST PUSH1 0x40 MLOAD PUSH2 0x1731 DUP2 PUSH2 0x1F6 DUP2 DUP6 PUSH2 0x3043 JUMP JUMPDEST DUP5 MSTORE PUSH2 0x17DA PUSH1 0x40 MLOAD PUSH2 0x174A DUP2 PUSH2 0x1F6 DUP2 PUSH1 0x1 DUP8 ADD PUSH2 0x3043 JUMP JUMPDEST DUP4 DUP7 ADD SWAP1 DUP2 MSTORE PUSH1 0x40 MLOAD SWAP1 PUSH2 0x1765 DUP3 PUSH2 0x2D9 DUP2 PUSH1 0x2 DUP9 ADD PUSH2 0x3043 JUMP JUMPDEST PUSH1 0x40 DUP8 ADD SWAP2 DUP3 MSTORE PUSH1 0x3 DUP5 ADD SLOAD SWAP6 DUP1 DUP9 ADD SWAP7 DUP8 MSTORE PUSH2 0x17CA PUSH2 0x17B4 PUSH1 0xFF PUSH1 0x5 PUSH1 0x4 DUP10 ADD SLOAD SWAP9 PUSH1 0x80 DUP14 ADD SWAP10 DUP11 MSTORE ADD SLOAD AND SWAP8 PUSH1 0xA0 DUP12 ADD SWAP9 ISZERO ISZERO DUP10 MSTORE PUSH1 0x40 MLOAD SWAP12 DUP13 SWAP12 DUP3 DUP14 MSTORE MLOAD SWAP2 DUP13 ADD MSTORE PUSH1 0xE0 DUP12 ADD SWAP1 PUSH2 0x2F8E JUMP JUMPDEST SWAP3 MLOAD SWAP3 PUSH1 0x1F NOT SWAP4 DUP5 DUP12 DUP4 SUB ADD PUSH1 0x40 DUP13 ADD MSTORE PUSH2 0x2F8E JUMP JUMPDEST SWAP3 MLOAD SWAP2 DUP9 DUP5 SUB ADD SWAP1 DUP9 ADD MSTORE PUSH2 0x2F8E JUMP JUMPDEST SWAP3 MLOAD PUSH1 0x80 DUP6 ADD MSTORE MLOAD PUSH1 0xA0 DUP5 ADD MSTORE MLOAD ISZERO ISZERO PUSH1 0xC0 DUP4 ADD MSTORE SUB SWAP1 RETURN JUMPDEST CALLVALUE PUSH2 0x26D JUMPI PUSH1 0x20 CALLDATASIZE PUSH1 0x3 NOT ADD SLT PUSH2 0x26D JUMPI PUSH1 0x4 CALLDATALOAD PUSH1 0x1 PUSH1 0x1 PUSH1 0x40 SHL SUB DUP2 GT PUSH2 0x26D JUMPI PUSH1 0x20 PUSH2 0x2AA PUSH2 0x1828 SWAP3 CALLDATASIZE SWAP1 PUSH1 0x4 ADD PUSH2 0x2E9B JUMP JUMPDEST DUP2 ADD PUSH1 0x6 DUP2 MSTORE SUB ADD SWAP1 KECCAK256 PUSH1 0x40 MLOAD PUSH2 0x133B DUP2 PUSH2 0x1F6 DUP2 DUP6 PUSH2 0x3043 JUMP JUMPDEST CALLVALUE PUSH2 0x26D JUMPI PUSH1 0x20 CALLDATASIZE PUSH1 0x3 NOT ADD SLT PUSH2 0x26D JUMPI PUSH1 0x4 CALLDATALOAD PUSH1 0x1 PUSH1 0x1 PUSH1 0x40 SHL SUB DUP2 GT PUSH2 0x26D JUMPI PUSH1 0x20 PUSH2 0x2AA PUSH2 0x1878 SWAP3 CALLDATASIZE SWAP1 PUSH1 0x4 ADD PUSH2 0x2E9B JUMP JUMPDEST DUP2 ADD PUSH1 0x5 DUP2 MSTORE SUB ADD SWAP1 KECCAK256 PUSH1 0x40 MLOAD PUSH2 0x133B DUP2 PUSH2 0x1F6 DUP2 DUP6 PUSH2 0x3043 JUMP JUMPDEST CALLVALUE PUSH2 0x26D JUMPI PUSH1 0x20 CALLDATASIZE PUSH1 0x3 NOT ADD SLT PUSH2 0x26D JUMPI PUSH1 0x4 CALLDATALOAD PUSH1 0x1 PUSH1 0x1 PUSH1 0xA0 SHL SUB DUP2 DUP2 AND SWAP2 DUP3 SWAP1 SUB PUSH2 0x26D JUMPI PUSH2 0x18C9 SWAP1 PUSH1 0x0 SLOAD AND CALLER EQ PUSH2 0x3146 JUMP JUMPDEST DUP1 PUSH1 0x0 MSTORE PUSH1 0x1 PUSH1 0x20 MSTORE PUSH1 0x40 PUSH1 0x0 KECCAK256 PUSH1 0x1 PUSH1 0xFF NOT DUP3 SLOAD AND OR SWAP1 SSTORE PUSH32 0xB0BE505CF6E26533F3066AC7722C3F8A5E8A123F43187C7832D333C49603B146 PUSH1 0x0 DUP1 LOG2 STOP JUMPDEST CALLVALUE PUSH2 0x26D JUMPI PUSH1 0x40 CALLDATASIZE PUSH1 0x3 NOT ADD SLT PUSH2 0x26D JUMPI PUSH1 0x4 CALLDATALOAD PUSH1 0x1 PUSH1 0x1 PUSH1 0x40 SHL SUB DUP2 GT PUSH2 0x26D JUMPI PUSH2 0x1939 SWAP1 CALLDATASIZE SWAP1 PUSH1 0x4 ADD PUSH2 0x2E9B JUMP JUMPDEST PUSH2 0x1955 PUSH1 0x20 PUSH1 0x24 CALLDATALOAD SWAP3 DUP2 PUSH1 0x40 MLOAD SWAP4 DUP3 DUP6 DUP1 SWAP5 MLOAD SWAP4 DUP5 SWAP3 ADD PUSH2 0x2F6B JUMP JUMPDEST DUP2 ADD PUSH1 0x8 DUP2 MSTORE SUB ADD SWAP1 KECCAK256 DUP1 SLOAD DUP3 LT ISZERO PUSH2 0x26D JUMPI PUSH2 0x19D1 SWAP2 PUSH2 0x1975 SWAP2 PUSH2 0x30D9 JUMP JUMPDEST POP PUSH1 0x40 MLOAD SWAP1 PUSH2 0x1988 DUP3 PUSH2 0x2D9 DUP2 DUP5 PUSH2 0x3043 JUMP JUMPDEST PUSH2 0x19ED PUSH1 0x40 MLOAD SWAP2 PUSH2 0x19A0 DUP4 PUSH2 0x400 DUP2 PUSH1 0x1 DUP6 ADD PUSH2 0x3043 JUMP JUMPDEST PUSH2 0x19DF PUSH1 0x3 PUSH1 0x40 MLOAD SWAP3 PUSH2 0x19BA DUP5 PUSH2 0x1353 DUP2 PUSH1 0x2 DUP6 ADD PUSH2 0x3043 JUMP JUMPDEST ADD SLOAD SWAP4 PUSH1 0x40 MLOAD SWAP7 DUP8 SWAP7 PUSH1 0x80 DUP9 MSTORE PUSH1 0x80 DUP9 ADD SWAP1 PUSH2 0x2F8E JUMP JUMPDEST SWAP1 DUP7 DUP3 SUB PUSH1 0x20 DUP9 ADD MSTORE PUSH2 0x2F8E JUMP JUMPDEST SWAP1 DUP5 DUP3 SUB PUSH1 0x40 DUP7 ADD MSTORE PUSH2 0x2F8E JUMP JUMPDEST SWAP1 PUSH1 0x60 DUP4 ADD MSTORE SUB SWAP1 RETURN JUMPDEST CALLVALUE PUSH2 0x26D JUMPI PUSH1 0x20 CALLDATASIZE PUSH1 0x3 NOT ADD SLT PUSH2 0x26D JUMPI PUSH1 0x4 CALLDATALOAD PUSH1 0x1 PUSH1 0x1 PUSH1 0x40 SHL SUB DUP2 GT PUSH2 0x26D JUMPI PUSH2 0x1A2F PUSH1 0x20 PUSH2 0x2AA PUSH2 0x5AB SWAP4 CALLDATASIZE SWAP1 PUSH1 0x4 ADD PUSH2 0x2E9B JUMP JUMPDEST DUP2 ADD PUSH1 0x3 DUP2 MSTORE SUB ADD SWAP1 KECCAK256 PUSH1 0x40 MLOAD SWAP1 PUSH2 0x1A4B DUP3 PUSH2 0x2D9 DUP2 DUP5 PUSH2 0x3043 JUMP JUMPDEST PUSH2 0x1AC3 PUSH1 0x40 MLOAD SWAP2 PUSH2 0x1A63 DUP4 PUSH2 0x400 DUP2 PUSH1 0x1 DUP6 ADD PUSH2 0x3043 JUMP JUMPDEST PUSH2 0x1AB5 PUSH1 0x40 MLOAD PUSH2 0x1A7A DUP2 PUSH2 0x1F6 DUP2 PUSH1 0x2 DUP8 ADD PUSH2 0x3043 JUMP JUMPDEST PUSH2 0x5B9 PUSH1 0xFF PUSH1 0x4 PUSH1 0x40 MLOAD SWAP6 PUSH2 0x1A9D DUP8 PUSH2 0x1A96 DUP2 PUSH1 0x3 DUP6 ADD PUSH2 0x3043 JUMP JUMPDEST SUB DUP9 PUSH2 0x2E7A JUMP JUMPDEST ADD SLOAD AND SWAP6 PUSH1 0x40 MLOAD SWAP9 DUP10 SWAP9 PUSH1 0xA0 DUP11 MSTORE PUSH1 0xA0 DUP11 ADD SWAP1 PUSH2 0x2F8E JUMP JUMPDEST SWAP1 DUP5 DUP3 SUB PUSH1 0x60 DUP7 ADD MSTORE PUSH2 0x2F8E JUMP JUMPDEST SWAP1 ISZERO ISZERO PUSH1 0x80 DUP4 ADD MSTORE SUB SWAP1 RETURN JUMPDEST CALLVALUE PUSH2 0x26D JUMPI PUSH1 0x20 CALLDATASIZE PUSH1 0x3 NOT ADD SLT PUSH2 0x26D JUMPI PUSH1 0x4 CALLDATALOAD PUSH1 0x1 PUSH1 0x1 PUSH1 0x40 SHL SUB DUP2 GT PUSH2 0x26D JUMPI PUSH2 0x4E8 PUSH2 0x1B0A PUSH1 0x20 PUSH2 0x4BD PUSH2 0x4FC SWAP5 CALLDATASIZE SWAP1 PUSH1 0x4 ADD PUSH2 0x2E9B JUMP JUMPDEST DUP2 ADD PUSH1 0x6 DUP2 MSTORE SUB ADD SWAP1 KECCAK256 PUSH2 0x35D7 JUMP JUMPDEST CALLVALUE PUSH2 0x26D JUMPI PUSH1 0xA0 CALLDATASIZE PUSH1 0x3 NOT ADD SLT PUSH2 0x26D JUMPI PUSH1 0x4 CALLDATALOAD PUSH1 0x1 PUSH1 0x1 PUSH1 0x40 SHL SUB DUP2 GT PUSH2 0x26D JUMPI PUSH2 0x1B49 SWAP1 CALLDATASIZE SWAP1 PUSH1 0x4 ADD PUSH2 0x2E9B JUMP JUMPDEST PUSH1 0x24 CALLDATALOAD PUSH1 0x1 PUSH1 0x1 PUSH1 0x40 SHL SUB DUP2 GT PUSH2 0x26D JUMPI PUSH2 0x1B68 SWAP1 CALLDATASIZE SWAP1 PUSH1 0x4 ADD PUSH2 0x2E9B JUMP JUMPDEST SWAP1 PUSH1 0x44 CALLDATALOAD PUSH1 0x1 PUSH1 0x1 PUSH1 0x40 SHL SUB DUP2 GT PUSH2 0x26D JUMPI PUSH2 0x1B88 SWAP1 CALLDATASIZE SWAP1 PUSH1 0x4 ADD PUSH2 0x2E9B JUMP JUMPDEST PUSH1 0x64 CALLDATALOAD PUSH1 0x1 PUSH1 0x1 PUSH1 0x40 SHL SUB DUP2 GT PUSH2 0x26D JUMPI PUSH2 0x1BA7 SWAP1 CALLDATASIZE SWAP1 PUSH1 0x4 ADD PUSH2 0x2E9B JUMP JUMPDEST PUSH1 0x0 SLOAD PUSH1 0x1 PUSH1 0x1 PUSH1 0xA0 SHL SUB AND CALLER EQ DUP1 ISZERO PUSH2 0x20D6 JUMPI JUMPDEST PUSH2 0x1BC5 SWAP1 PUSH2 0x319C JUMP JUMPDEST PUSH1 0x40 MLOAD SWAP1 PUSH1 0xFF PUSH1 0x4 DUP6 MLOAD SWAP4 PUSH1 0x20 DUP2 DUP2 DUP10 ADD SWAP7 PUSH2 0x1BE2 DUP2 DUP4 DUP11 PUSH2 0x2F6B JUMP JUMPDEST DUP2 ADD PUSH1 0x2 DUP2 MSTORE SUB ADD SWAP1 KECCAK256 ADD SLOAD AND PUSH2 0x209A JUMPI DUP4 MLOAD ISZERO PUSH2 0x2055 JUMPI PUSH2 0x1C3A SWAP2 PUSH1 0x20 SWAP2 PUSH1 0x40 MLOAD SWAP5 PUSH2 0x1C0E DUP7 PUSH2 0x2E0E JUMP JUMPDEST DUP8 DUP7 MSTORE DUP4 DUP7 ADD MSTORE PUSH1 0x40 DUP6 ADD MSTORE PUSH1 0x84 CALLDATALOAD PUSH1 0x60 DUP6 ADD MSTORE PUSH1 0x1 PUSH1 0x80 DUP6 ADD MSTORE PUSH1 0x40 MLOAD DUP1 SWAP4 DUP2 SWAP3 DUP8 MLOAD SWAP3 DUP4 SWAP2 PUSH2 0x2F6B JUMP JUMPDEST DUP2 ADD PUSH1 0x2 DUP2 MSTORE SUB ADD SWAP1 KECCAK256 SWAP1 DUP1 MLOAD DUP1 MLOAD SWAP1 PUSH1 0x1 PUSH1 0x1 PUSH1 0x40 SHL SUB DUP3 GT PUSH2 0xB48 JUMPI DUP2 SWAP1 PUSH2 0x1C64 DUP6 SLOAD PUSH2 0x3009 JUMP JUMPDEST PUSH1 0x1F DUP2 GT PUSH2 0x2005 JUMPI JUMPDEST POP PUSH1 0x20 SWAP1 PUSH1 0x1F DUP4 GT PUSH1 0x1 EQ PUSH2 0x1F99 JUMPI PUSH1 0x0 SWAP3 PUSH2 0x1F8E JUMPI JUMPDEST POP POP DUP2 PUSH1 0x1 SHL SWAP2 PUSH1 0x0 NOT SWAP1 PUSH1 0x3 SHL SHR NOT AND OR DUP3 SSTORE JUMPDEST PUSH1 0x20 DUP2 ADD MLOAD DUP1 MLOAD SWAP1 PUSH1 0x1 PUSH1 0x1 PUSH1 0x40 SHL SUB DUP3 GT PUSH2 0xB48 JUMPI DUP2 SWAP1 PUSH2 0x1CBE PUSH1 0x1 DUP7 ADD SLOAD PUSH2 0x3009 JUMP JUMPDEST PUSH1 0x1F DUP2 GT PUSH2 0x1F3B JUMPI JUMPDEST POP PUSH1 0x20 SWAP1 PUSH1 0x1F DUP4 GT PUSH1 0x1 EQ PUSH2 0x1EC9 JUMPI PUSH1 0x0 SWAP3 PUSH2 0x1EBE JUMPI JUMPDEST POP POP DUP2 PUSH1 0x1 SHL SWAP2 PUSH1 0x0 NOT SWAP1 PUSH1 0x3 SHL SHR NOT AND OR PUSH1 0x1 DUP4 ADD SSTORE JUMPDEST PUSH1 0x40 DUP2 ADD MLOAD DUP1 MLOAD SWAP1 PUSH1 0x1 PUSH1 0x1 PUSH1 0x40 SHL SUB DUP3 GT PUSH2 0xB48 JUMPI PUSH2 0x1D19 PUSH1 0x2 DUP6 ADD SLOAD PUSH2 0x3009 JUMP JUMPDEST PUSH1 0x1F DUP2 GT PUSH2 0x1E73 JUMPI JUMPDEST POP PUSH1 0x20 SWAP1 PUSH1 0x1F DUP4 GT PUSH1 0x1 EQ PUSH2 0x1DD2 JUMPI SWAP4 PUSH1 0x4 PUSH1 0x80 PUSH2 0x1DA7 SWAP6 DUP6 PUSH32 0xECBF2B320132381834A8A7B4EF8177133ABDD15D8F4C6602B4F7515400423FD5 SWAP10 SWAP7 PUSH2 0x1121 SWAP7 PUSH2 0x1DBC SWAP11 PUSH1 0x0 SWAP3 PUSH2 0x1DC7 JUMPI JUMPDEST POP POP DUP2 PUSH1 0x1 SHL SWAP2 PUSH1 0x0 NOT SWAP1 PUSH1 0x3 SHL SHR NOT AND OR PUSH1 0x2 DUP6 ADD SSTORE JUMPDEST PUSH1 0x60 DUP2 ADD MLOAD PUSH1 0x3 DUP6 ADD SSTORE ADD MLOAD ISZERO ISZERO SWAP2 ADD SWAP1 PUSH1 0xFF DUP1 NOT DUP4 SLOAD AND SWAP2 ISZERO ISZERO AND OR SWAP1 SSTORE JUMP JUMPDEST SWAP3 PUSH1 0x40 MLOAD SWAP2 DUP3 SWAP2 PUSH1 0x40 DUP4 MSTORE PUSH1 0x40 DUP4 ADD SWAP1 PUSH2 0x2F8E JUMP JUMPDEST TIMESTAMP PUSH1 0x20 DUP4 ADD MSTORE SUB SWAP1 LOG2 STOP JUMPDEST ADD MLOAD SWAP1 POP DUP13 DUP1 PUSH2 0x1D6E JUMP JUMPDEST SWAP1 PUSH1 0x2 DUP6 ADD PUSH1 0x0 MSTORE PUSH1 0x20 PUSH1 0x0 KECCAK256 SWAP2 PUSH1 0x0 JUMPDEST PUSH1 0x1F NOT DUP6 AND DUP2 LT PUSH2 0x1E5B JUMPI POP PUSH1 0x80 PUSH2 0x1DA7 SWAP6 PUSH1 0x1 DUP7 PUSH2 0x1121 SWAP7 PUSH2 0x1DBC SWAP11 SWAP7 PUSH1 0x4 SWAP7 PUSH32 0xECBF2B320132381834A8A7B4EF8177133ABDD15D8F4C6602B4F7515400423FD5 SWAP14 SWAP11 PUSH1 0x1F NOT DUP2 AND LT PUSH2 0x1E42 JUMPI JUMPDEST POP POP POP DUP2 SHL ADD PUSH1 0x2 DUP6 ADD SSTORE PUSH2 0x1D86 JUMP JUMPDEST ADD MLOAD PUSH1 0x0 NOT PUSH1 0xF8 DUP5 PUSH1 0x3 SHL AND SHR NOT AND SWAP1 SSTORE DUP13 DUP1 DUP1 PUSH2 0x1E32 JUMP JUMPDEST SWAP2 SWAP3 PUSH1 0x20 PUSH1 0x1 DUP2 SWAP3 DUP7 DUP6 ADD MLOAD DUP2 SSTORE ADD SWAP5 ADD SWAP3 ADD PUSH2 0x1DE3 JUMP JUMPDEST PUSH1 0x2 DUP6 ADD PUSH1 0x0 MSTORE PUSH1 0x20 PUSH1 0x0 KECCAK256 PUSH1 0x1F DUP5 ADD PUSH1 0x5 SHR DUP2 ADD SWAP2 PUSH1 0x20 DUP6 LT PUSH2 0x1EB4 JUMPI JUMPDEST PUSH1 0x1F ADD PUSH1 0x5 SHR ADD SWAP1 JUMPDEST DUP2 DUP2 LT PUSH2 0x1EA8 JUMPI POP PUSH2 0x1D22 JUMP JUMPDEST PUSH1 0x0 DUP2 SSTORE PUSH1 0x1 ADD PUSH2 0x1E9B JUMP JUMPDEST SWAP1 SWAP2 POP DUP2 SWAP1 PUSH2 0x1E92 JUMP JUMPDEST ADD MLOAD SWAP1 POP DUP7 DUP1 PUSH2 0x1CDE JUMP JUMPDEST SWAP3 POP PUSH1 0x1 DUP6 ADD PUSH1 0x0 MSTORE PUSH1 0x20 PUSH1 0x0 KECCAK256 SWAP1 PUSH1 0x0 SWAP4 JUMPDEST PUSH1 0x1F NOT DUP5 AND DUP6 LT PUSH2 0x1F20 JUMPI PUSH1 0x1 SWAP5 POP DUP4 PUSH1 0x1F NOT DUP2 AND LT PUSH2 0x1F07 JUMPI JUMPDEST POP POP POP DUP2 SHL ADD PUSH1 0x1 DUP4 ADD SSTORE PUSH2 0x1CF6 JUMP JUMPDEST ADD MLOAD PUSH1 0x0 NOT PUSH1 0xF8 DUP5 PUSH1 0x3 SHL AND SHR NOT AND SWAP1 SSTORE DUP7 DUP1 DUP1 PUSH2 0x1EF7 JUMP JUMPDEST DUP2 DUP2 ADD MLOAD DUP4 SSTORE PUSH1 0x20 SWAP5 DUP6 ADD SWAP5 PUSH1 0x1 SWAP1 SWAP4 ADD SWAP3 SWAP1 SWAP2 ADD SWAP1 PUSH2 0x1EDC JUMP JUMPDEST SWAP1 SWAP2 POP PUSH1 0x1 DUP6 ADD PUSH1 0x0 MSTORE PUSH1 0x20 PUSH1 0x0 KECCAK256 PUSH1 0x1F DUP5 ADD PUSH1 0x5 SHR DUP2 ADD PUSH1 0x20 DUP6 LT PUSH2 0x1F87 JUMPI JUMPDEST SWAP1 DUP5 SWAP4 SWAP3 SWAP2 JUMPDEST PUSH1 0x1F DUP4 ADD PUSH1 0x5 SHR DUP3 ADD DUP2 LT PUSH2 0x1F78 JUMPI POP POP PUSH2 0x1CC7 JUMP JUMPDEST PUSH1 0x0 DUP2 SSTORE DUP6 SWAP5 POP PUSH1 0x1 ADD PUSH2 0x1F62 JUMP JUMPDEST POP DUP1 PUSH2 0x1F5C JUMP JUMPDEST ADD MLOAD SWAP1 POP DUP7 DUP1 PUSH2 0x1C84 JUMP JUMPDEST SWAP3 POP DUP5 PUSH1 0x0 MSTORE PUSH1 0x20 PUSH1 0x0 KECCAK256 SWAP1 PUSH1 0x0 SWAP4 JUMPDEST PUSH1 0x1F NOT DUP5 AND DUP6 LT PUSH2 0x1FEA JUMPI PUSH1 0x1 SWAP5 POP DUP4 PUSH1 0x1F NOT DUP2 AND LT PUSH2 0x1FD1 JUMPI JUMPDEST POP POP POP DUP2 SHL ADD DUP3 SSTORE PUSH2 0x1C99 JUMP JUMPDEST ADD MLOAD PUSH1 0x0 NOT PUSH1 0xF8 DUP5 PUSH1 0x3 SHL AND SHR NOT AND SWAP1 SSTORE DUP7 DUP1 DUP1 PUSH2 0x1FC4 JUMP JUMPDEST DUP2 DUP2 ADD MLOAD DUP4 SSTORE PUSH1 0x20 SWAP5 DUP6 ADD SWAP5 PUSH1 0x1 SWAP1 SWAP4 ADD SWAP3 SWAP1 SWAP2 ADD SWAP1 PUSH2 0x1FA9 JUMP JUMPDEST SWAP1 SWAP2 POP DUP5 PUSH1 0x0 MSTORE PUSH1 0x20 PUSH1 0x0 KECCAK256 PUSH1 0x1F DUP5 ADD PUSH1 0x5 SHR DUP2 ADD PUSH1 0x20 DUP6 LT PUSH2 0x204E JUMPI JUMPDEST SWAP1 DUP5 SWAP4 SWAP3 SWAP2 JUMPDEST PUSH1 0x1F DUP4 ADD PUSH1 0x5 SHR DUP3 ADD DUP2 LT PUSH2 0x203F JUMPI POP POP PUSH2 0x1C6D JUMP JUMPDEST PUSH1 0x0 DUP2 SSTORE DUP6 SWAP5 POP PUSH1 0x1 ADD PUSH2 0x2029 JUMP JUMPDEST POP DUP1 PUSH2 0x2023 JUMP JUMPDEST PUSH1 0x40 MLOAD PUSH3 0x461BCD PUSH1 0xE5 SHL DUP2 MSTORE PUSH1 0x20 PUSH1 0x4 DUP3 ADD MSTORE PUSH1 0x18 PUSH1 0x24 DUP3 ADD MSTORE PUSH32 0x42617463682049442063616E6E6F7420626520656D7074790000000000000000 PUSH1 0x44 DUP3 ADD MSTORE PUSH1 0x64 SWAP1 REVERT JUMPDEST PUSH1 0x40 MLOAD PUSH3 0x461BCD PUSH1 0xE5 SHL DUP2 MSTORE PUSH1 0x20 PUSH1 0x4 DUP3 ADD MSTORE PUSH1 0x14 PUSH1 0x24 DUP3 ADD MSTORE PUSH20 0x426174636820616C726561647920657869737473 PUSH1 0x60 SHL PUSH1 0x44 DUP3 ADD MSTORE PUSH1 0x64 SWAP1 REVERT JUMPDEST POP CALLER PUSH1 0x0 SWAP1 DUP2 MSTORE PUSH1 0x1 PUSH1 0x20 MSTORE PUSH1 0x40 SWAP1 KECCAK256 SLOAD PUSH1 0xFF AND PUSH2 0x1BBC JUMP JUMPDEST CALLVALUE PUSH2 0x26D JUMPI PUSH1 0x20 CALLDATASIZE PUSH1 0x3 NOT ADD SLT PUSH2 0x26D JUMPI PUSH1 0x4 CALLDATALOAD PUSH1 0x1 PUSH1 0x1 PUSH1 0xA0 SHL SUB DUP2 AND SWAP1 DUP2 SWAP1 SUB PUSH2 0x26D JUMPI PUSH1 0x0 MSTORE PUSH1 0x1 PUSH1 0x20 MSTORE PUSH1 0x20 PUSH1 0xFF PUSH1 0x40 PUSH1 0x0 KECCAK256 SLOAD AND PUSH1 0x40 MLOAD SWAP1 ISZERO ISZERO DUP2 MSTORE RETURN JUMPDEST CALLVALUE PUSH2 0x26D JUMPI PUSH1 0x80 CALLDATASIZE PUSH1 0x3 NOT ADD SLT PUSH2 0x26D JUMPI PUSH1 0x4 CALLDATALOAD PUSH1 0x1 PUSH1 0x1 PUSH1 0x40 SHL SUB DUP2 GT PUSH2 0x26D JUMPI PUSH2 0x2162 SWAP1 CALLDATASIZE SWAP1 PUSH1 0x4 ADD PUSH2 0x2E9B JUMP JUMPDEST PUSH1 0x24 CALLDATALOAD PUSH1 0x1 PUSH1 0x1 PUSH1 0x40 SHL SUB DUP2 GT PUSH2 0x26D JUMPI PUSH2 0x2181 SWAP1 CALLDATASIZE SWAP1 PUSH1 0x4 ADD PUSH2 0x2E9B JUMP JUMPDEST PUSH1 0x44 CALLDATALOAD PUSH1 0x1 PUSH1 0x1 PUSH1 0x40 SHL SUB DUP2 GT PUSH2 0x26D JUMPI PUSH2 0x21A0 SWAP1 CALLDATASIZE SWAP1 PUSH1 0x4 ADD PUSH2 0x2E9B JUMP JUMPDEST SWAP2 PUSH1 0x64 CALLDATALOAD PUSH1 0x1 PUSH1 0x1 PUSH1 0x40 SHL SUB DUP2 GT PUSH2 0x26D JUMPI PUSH2 0x21C0 SWAP1 CALLDATASIZE SWAP1 PUSH1 0x4 ADD PUSH2 0x2E9B JUMP JUMPDEST PUSH1 0x0 SLOAD PUSH1 0x1 PUSH1 0x1 PUSH1 0xA0 SHL SUB AND CALLER EQ DUP1 ISZERO PUSH2 0x2676 JUMPI JUMPDEST PUSH2 0x21DE SWAP1 PUSH2 0x319C JUMP JUMPDEST PUSH2 0x2212 PUSH1 0x20 PUSH1 0x40 MLOAD PUSH2 0x2201 PUSH1 0xFF PUSH1 0x4 DUP8 MLOAD SWAP4 DUP6 DUP2 DUP2 DUP12 ADD SWAP7 PUSH2 0x871 DUP2 DUP4 DUP11 PUSH2 0x2F6B JUMP JUMPDEST PUSH1 0x40 MLOAD DUP1 SWAP4 DUP2 SWAP3 DUP8 MLOAD SWAP3 DUP4 SWAP2 PUSH2 0x2F6B JUMP JUMPDEST DUP2 ADD PUSH1 0x8 DUP2 MSTORE SUB ADD SWAP1 KECCAK256 PUSH1 0x40 MLOAD SWAP2 PUSH2 0x2229 DUP4 PUSH2 0x2E29 JUMP JUMPDEST DUP5 DUP4 MSTORE DUP6 PUSH1 0x20 DUP5 ADD MSTORE PUSH1 0x40 DUP4 ADD MSTORE TIMESTAMP PUSH1 0x60 DUP4 ADD MSTORE DUP1 SLOAD PUSH9 0x10000000000000000 DUP2 LT ISZERO PUSH2 0xB48 JUMPI PUSH2 0x225F SWAP2 PUSH1 0x1 DUP3 ADD DUP2 SSTORE PUSH2 0x30D9 JUMP JUMPDEST SWAP2 SWAP1 SWAP2 PUSH2 0x2660 JUMPI DUP1 MLOAD DUP1 MLOAD SWAP1 PUSH1 0x1 PUSH1 0x1 PUSH1 0x40 SHL SUB DUP3 GT PUSH2 0xB48 JUMPI DUP2 SWAP1 PUSH2 0x2285 DUP6 SLOAD PUSH2 0x3009 JUMP JUMPDEST PUSH1 0x1F DUP2 GT PUSH2 0x2610 JUMPI JUMPDEST POP PUSH1 0x20 SWAP1 PUSH1 0x1F DUP4 GT PUSH1 0x1 EQ PUSH2 0x25A4 JUMPI PUSH1 0x0 SWAP3 PUSH2 0x2599 JUMPI JUMPDEST POP POP DUP2 PUSH1 0x1 SHL SWAP2 PUSH1 0x0 NOT SWAP1 PUSH1 0x3 SHL SHR NOT AND OR DUP3 SSTORE JUMPDEST PUSH1 0x20 DUP2 ADD MLOAD DUP1 MLOAD SWAP1 PUSH1 0x1 PUSH1 0x1 PUSH1 0x40 SHL SUB DUP3 GT PUSH2 0xB48 JUMPI DUP2 SWAP1 PUSH2 0x22DF PUSH1 0x1 DUP7 ADD SLOAD PUSH2 0x3009 JUMP JUMPDEST PUSH1 0x1F DUP2 GT PUSH2 0x2546 JUMPI JUMPDEST POP PUSH1 0x20 SWAP1 PUSH1 0x1F DUP4 GT PUSH1 0x1 EQ PUSH2 0x24D4 JUMPI PUSH1 0x0 SWAP3 PUSH2 0x24C9 JUMPI JUMPDEST POP POP DUP2 PUSH1 0x1 SHL SWAP2 PUSH1 0x0 NOT SWAP1 PUSH1 0x3 SHL SHR NOT AND OR PUSH1 0x1 DUP4 ADD SSTORE JUMPDEST PUSH1 0x40 DUP2 ADD MLOAD DUP1 MLOAD SWAP1 PUSH1 0x1 PUSH1 0x1 PUSH1 0x40 SHL SUB DUP3 GT PUSH2 0xB48 JUMPI PUSH2 0x233A PUSH1 0x2 DUP6 ADD SLOAD PUSH2 0x3009 JUMP JUMPDEST PUSH1 0x1F DUP2 GT PUSH2 0x247E JUMPI JUMPDEST POP PUSH1 0x20 SWAP1 PUSH1 0x1F DUP4 GT PUSH1 0x1 EQ PUSH2 0x23DF JUMPI SWAP4 PUSH1 0x3 PUSH1 0x60 PUSH2 0xA7B SWAP6 DUP6 PUSH2 0x23B1 SWAP7 PUSH2 0x23C6 SWAP11 SWAP7 PUSH32 0xC2193173B83438AD63820A84CE0FB84B539D7F63F0DA296BB52F417F9AAC32D0 SWAP13 SWAP11 PUSH1 0x0 SWAP3 PUSH2 0x23D4 JUMPI JUMPDEST POP POP DUP2 PUSH1 0x1 SHL SWAP2 PUSH1 0x0 NOT SWAP1 DUP7 SHL SHR NOT AND OR PUSH1 0x2 DUP6 ADD SSTORE JUMPDEST ADD MLOAD SWAP2 ADD SSTORE PUSH2 0x31D9 JUMP JUMPDEST SWAP5 PUSH1 0x40 MLOAD SWAP4 DUP5 SWAP4 PUSH1 0x40 DUP6 MSTORE PUSH1 0x40 DUP6 ADD SWAP1 PUSH2 0x2F8E JUMP JUMPDEST SWAP1 DUP4 DUP3 SUB PUSH1 0x20 DUP6 ADD MSTORE PUSH2 0x2F8E JUMP JUMPDEST ADD MLOAD SWAP1 POP DUP14 DUP1 PUSH2 0x2390 JUMP JUMPDEST SWAP1 PUSH1 0x1F NOT DUP4 AND SWAP2 PUSH1 0x2 DUP7 ADD PUSH1 0x0 MSTORE PUSH1 0x20 PUSH1 0x0 KECCAK256 SWAP3 PUSH1 0x0 JUMPDEST DUP2 DUP2 LT PUSH2 0x2466 JUMPI POP PUSH2 0xA7B SWAP6 PUSH1 0x1 DUP7 PUSH2 0x23C6 SWAP11 SWAP7 PUSH32 0xC2193173B83438AD63820A84CE0FB84B539D7F63F0DA296BB52F417F9AAC32D0 SWAP13 SWAP11 SWAP7 PUSH1 0x3 SWAP7 PUSH2 0x23B1 SWAP11 PUSH1 0x60 SWAP8 LT PUSH2 0x244E JUMPI JUMPDEST POP POP POP DUP2 SHL ADD PUSH1 0x2 DUP6 ADD SSTORE PUSH2 0x23A7 JUMP JUMPDEST ADD MLOAD PUSH1 0x0 NOT DUP4 DUP9 SHL PUSH1 0xF8 AND SHR NOT AND SWAP1 SSTORE DUP14 DUP1 DUP1 PUSH2 0x243E JUMP JUMPDEST SWAP3 SWAP4 PUSH1 0x20 PUSH1 0x1 DUP2 SWAP3 DUP8 DUP7 ADD MLOAD DUP2 SSTORE ADD SWAP6 ADD SWAP4 ADD PUSH2 0x23F6 JUMP JUMPDEST PUSH1 0x2 DUP6 ADD PUSH1 0x0 MSTORE PUSH1 0x20 PUSH1 0x0 KECCAK256 PUSH1 0x1F DUP5 ADD PUSH1 0x5 SHR DUP2 ADD SWAP2 PUSH1 0x20 DUP6 LT PUSH2 0x24BF JUMPI JUMPDEST PUSH1 0x1F ADD PUSH1 0x5 SHR ADD SWAP1 JUMPDEST DUP2 DUP2 LT PUSH2 0x24B3 JUMPI POP PUSH2 0x2343 JUMP JUMPDEST PUSH1 0x0 DUP2 SSTORE PUSH1 0x1 ADD PUSH2 0x24A6 JUMP JUMPDEST SWAP1 SWAP2 POP DUP2 SWAP1 PUSH2 0x249D JUMP JUMPDEST ADD MLOAD SWAP1 POP DUP8 DUP1 PUSH2 0x22FF JUMP JUMPDEST SWAP3 POP PUSH1 0x1 DUP6 ADD PUSH1 0x0 MSTORE PUSH1 0x20 PUSH1 0x0 KECCAK256 SWAP1 PUSH1 0x0 SWAP4 JUMPDEST PUSH1 0x1F NOT DUP5 AND DUP6 LT PUSH2 0x252B JUMPI PUSH1 0x1 SWAP5 POP DUP4 PUSH1 0x1F NOT DUP2 AND LT PUSH2 0x2512 JUMPI JUMPDEST POP POP POP DUP2 SHL ADD PUSH1 0x1 DUP4 ADD SSTORE PUSH2 0x2317 JUMP JUMPDEST ADD MLOAD PUSH1 0x0 NOT PUSH1 0xF8 DUP5 PUSH1 0x3 SHL AND SHR NOT AND SWAP1 SSTORE DUP8 DUP1 DUP1 PUSH2 0x2502 JUMP JUMPDEST DUP2 DUP2 ADD MLOAD DUP4 SSTORE PUSH1 0x20 SWAP5 DUP6 ADD SWAP5 PUSH1 0x1 SWAP1 SWAP4 ADD SWAP3 SWAP1 SWAP2 ADD SWAP1 PUSH2 0x24E7 JUMP JUMPDEST SWAP1 SWAP2 POP PUSH1 0x1 DUP6 ADD PUSH1 0x0 MSTORE PUSH1 0x20 PUSH1 0x0 KECCAK256 PUSH1 0x1F DUP5 ADD PUSH1 0x5 SHR DUP2 ADD PUSH1 0x20 DUP6 LT PUSH2 0x2592 JUMPI JUMPDEST SWAP1 DUP5 SWAP4 SWAP3 SWAP2 JUMPDEST PUSH1 0x1F DUP4 ADD PUSH1 0x5 SHR DUP3 ADD DUP2 LT PUSH2 0x2583 JUMPI POP POP PUSH2 0x22E8 JUMP JUMPDEST PUSH1 0x0 DUP2 SSTORE DUP6 SWAP5 POP PUSH1 0x1 ADD PUSH2 0x256D JUMP JUMPDEST POP DUP1 PUSH2 0x2567 JUMP JUMPDEST ADD MLOAD SWAP1 POP DUP8 DUP1 PUSH2 0x22A5 JUMP JUMPDEST SWAP3 POP DUP5 PUSH1 0x0 MSTORE PUSH1 0x20 PUSH1 0x0 KECCAK256 SWAP1 PUSH1 0x0 SWAP4 JUMPDEST PUSH1 0x1F NOT DUP5 AND DUP6 LT PUSH2 0x25F5 JUMPI PUSH1 0x1 SWAP5 POP DUP4 PUSH1 0x1F NOT DUP2 AND LT PUSH2 0x25DC JUMPI JUMPDEST POP POP POP DUP2 SHL ADD DUP3 SSTORE PUSH2 0x22BA JUMP JUMPDEST ADD MLOAD PUSH1 0x0 NOT PUSH1 0xF8 DUP5 PUSH1 0x3 SHL AND SHR NOT AND SWAP1 SSTORE DUP8 DUP1 DUP1 PUSH2 0x25CF JUMP JUMPDEST DUP2 DUP2 ADD MLOAD DUP4 SSTORE PUSH1 0x20 SWAP5 DUP6 ADD SWAP5 PUSH1 0x1 SWAP1 SWAP4 ADD SWAP3 SWAP1 SWAP2 ADD SWAP1 PUSH2 0x25B4 JUMP JUMPDEST SWAP1 SWAP2 POP DUP5 PUSH1 0x0 MSTORE PUSH1 0x20 PUSH1 0x0 KECCAK256 PUSH1 0x1F DUP5 ADD PUSH1 0x5 SHR DUP2 ADD PUSH1 0x20 DUP6 LT PUSH2 0x2659 JUMPI JUMPDEST SWAP1 DUP5 SWAP4 SWAP3 SWAP2 JUMPDEST PUSH1 0x1F DUP4 ADD PUSH1 0x5 SHR DUP3 ADD DUP2 LT PUSH2 0x264A JUMPI POP POP PUSH2 0x228E JUMP JUMPDEST PUSH1 0x0 DUP2 SSTORE DUP6 SWAP5 POP PUSH1 0x1 ADD PUSH2 0x2634 JUMP JUMPDEST POP DUP1 PUSH2 0x262E JUMP JUMPDEST PUSH4 0x4E487B71 PUSH1 0xE0 SHL PUSH1 0x0 MSTORE PUSH1 0x0 PUSH1 0x4 MSTORE PUSH1 0x24 PUSH1 0x0 REVERT JUMPDEST POP CALLER PUSH1 0x0 SWAP1 DUP2 MSTORE PUSH1 0x1 PUSH1 0x20 MSTORE PUSH1 0x40 SWAP1 KECCAK256 SLOAD PUSH1 0xFF AND PUSH2 0x21D5 JUMP JUMPDEST CALLVALUE PUSH2 0x26D JUMPI PUSH2 0x269D CALLDATASIZE PUSH2 0x2EF1 JUMP JUMPDEST SWAP4 SWAP2 SWAP3 SWAP1 PUSH1 0x1 DUP1 PUSH1 0xA0 SHL SUB PUSH1 0x0 SLOAD AND CALLER EQ DUP1 ISZERO PUSH2 0x2785 JUMPI JUMPDEST PUSH2 0x26BE SWAP1 PUSH2 0x319C JUMP JUMPDEST PUSH1 0x40 MLOAD SWAP5 DUP4 MLOAD SWAP2 PUSH1 0x20 SWAP7 DUP8 DUP2 DUP2 DUP9 ADD SWAP6 PUSH2 0x26D9 DUP2 DUP4 DUP10 PUSH2 0x2F6B JUMP JUMPDEST DUP2 ADD PUSH1 0x2 DUP2 MSTORE SUB ADD SWAP1 KECCAK256 PUSH1 0x4 ADD SLOAD PUSH1 0xFF AND PUSH2 0x26F3 SWAP1 PUSH2 0x31F9 JUMP JUMPDEST PUSH1 0x40 MLOAD SWAP4 PUSH2 0x2700 DUP6 PUSH2 0x2E0E JUMP JUMPDEST DUP5 MSTORE DUP6 DUP8 DUP6 ADD MSTORE PUSH1 0x40 DUP5 ADD MSTORE PUSH1 0x60 DUP4 ADD MSTORE PUSH1 0x80 DUP3 ADD PUSH1 0x1 SWAP1 MSTORE DUP5 PUSH1 0x40 MLOAD DUP1 DUP1 SWAP4 DUP7 MLOAD DUP1 SWAP3 PUSH2 0x272D SWAP3 PUSH2 0x2F6B JUMP JUMPDEST DUP2 ADD PUSH1 0x7 DUP2 MSTORE SUB ADD SWAP1 KECCAK256 SWAP1 PUSH2 0x2741 SWAP2 PUSH2 0x323C JUMP JUMPDEST PUSH2 0x274A SWAP1 PUSH2 0x31D9 JUMP JUMPDEST SWAP2 PUSH1 0x40 MLOAD SWAP2 DUP2 DUP4 SWAP3 DUP4 MSTORE DUP3 ADD PUSH2 0x275F SWAP2 PUSH2 0x2F8E JUMP JUMPDEST SUB PUSH32 0x9FAD722725D0A8D47409199AAEF3C4642BD4796564C69F37AA36D86574346471 SWAP2 LOG2 STOP JUMPDEST POP CALLER PUSH1 0x0 SWAP1 DUP2 MSTORE PUSH1 0x1 PUSH1 0x20 MSTORE PUSH1 0x40 SWAP1 KECCAK256 SLOAD PUSH1 0xFF AND PUSH2 0x26B5 JUMP JUMPDEST CALLVALUE PUSH2 0x26D JUMPI PUSH1 0xA0 CALLDATASIZE PUSH1 0x3 NOT ADD SLT PUSH2 0x26D JUMPI PUSH1 0x4 CALLDATALOAD PUSH1 0x1 PUSH1 0x1 PUSH1 0x40 SHL SUB DUP2 GT PUSH2 0x26D JUMPI PUSH2 0x27CE SWAP1 CALLDATASIZE SWAP1 PUSH1 0x4 ADD PUSH2 0x2E9B JUMP JUMPDEST PUSH1 0x24 CALLDATALOAD PUSH1 0x1 PUSH1 0x1 PUSH1 0x40 SHL SUB DUP2 GT PUSH2 0x26D JUMPI PUSH2 0x27ED SWAP1 CALLDATASIZE SWAP1 PUSH1 0x4 ADD PUSH2 0x2E9B JUMP JUMPDEST SWAP1 PUSH1 0x44 CALLDATALOAD PUSH1 0x1 PUSH1 0x1 PUSH1 0x40 SHL SUB DUP2 GT PUSH2 0x26D JUMPI PUSH2 0x280D SWAP1 CALLDATASIZE SWAP1 PUSH1 0x4 ADD PUSH2 0x2E9B JUMP JUMPDEST PUSH1 0x64 CALLDATALOAD PUSH1 0x1 PUSH1 0x1 PUSH1 0x40 SHL SUB DUP2 GT PUSH2 0x26D JUMPI PUSH2 0x282C SWAP1 CALLDATASIZE SWAP1 PUSH1 0x4 ADD PUSH2 0x2E9B JUMP JUMPDEST PUSH1 0x84 CALLDATALOAD PUSH1 0x1 PUSH1 0x1 PUSH1 0x40 SHL SUB DUP2 GT PUSH2 0x26D JUMPI PUSH2 0x284B SWAP1 CALLDATASIZE SWAP1 PUSH1 0x4 ADD PUSH2 0x2E9B JUMP JUMPDEST SWAP1 PUSH1 0x1 DUP1 PUSH1 0xA0 SHL SUB PUSH1 0x0 SLOAD AND CALLER EQ DUP1 ISZERO PUSH2 0x2DF5 JUMPI JUMPDEST PUSH2 0x2869 SWAP1 PUSH2 0x319C JUMP JUMPDEST PUSH2 0x2887 PUSH1 0xFF PUSH1 0x4 PUSH1 0x40 MLOAD PUSH1 0x20 DUP2 DUP2 PUSH2 0x871 DUP12 DUP4 DUP2 MLOAD SWAP4 DUP5 SWAP3 ADD PUSH2 0x2F6B JUMP JUMPDEST PUSH1 0x40 MLOAD SWAP3 PUSH2 0x2894 DUP5 PUSH2 0x2E0E JUMP JUMPDEST DUP6 DUP5 MSTORE PUSH1 0x20 DUP5 ADD MSTORE PUSH1 0x40 DUP4 ADD MSTORE PUSH1 0x60 DUP3 ADD MSTORE PUSH1 0x1 PUSH1 0x80 DUP3 ADD MSTORE PUSH1 0x40 MLOAD PUSH1 0x20 DUP2 DUP5 MLOAD PUSH2 0x28C2 DUP2 DUP4 DUP6 DUP10 ADD PUSH2 0x2F6B JUMP JUMPDEST PUSH1 0x3 DUP2 DUP4 ADD MSTORE DUP2 ADD SUB ADD SWAP1 KECCAK256 SWAP1 DUP1 MLOAD DUP1 MLOAD SWAP1 PUSH1 0x1 PUSH1 0x1 PUSH1 0x40 SHL SUB DUP3 GT PUSH2 0xB48 JUMPI DUP2 SWAP1 PUSH2 0x28EE DUP6 SLOAD PUSH2 0x3009 JUMP JUMPDEST PUSH1 0x1F DUP2 GT PUSH2 0x2DA5 JUMPI JUMPDEST POP PUSH1 0x20 SWAP1 PUSH1 0x1F DUP4 GT PUSH1 0x1 EQ PUSH2 0x2D39 JUMPI PUSH1 0x0 SWAP3 PUSH2 0x2D2E JUMPI JUMPDEST POP POP DUP2 PUSH1 0x1 SHL SWAP2 PUSH1 0x0 NOT SWAP1 PUSH1 0x3 SHL SHR NOT AND OR DUP3 SSTORE JUMPDEST PUSH1 0x20 DUP2 ADD MLOAD DUP1 MLOAD SWAP1 PUSH1 0x1 PUSH1 0x1 PUSH1 0x40 SHL SUB DUP3 GT PUSH2 0xB48 JUMPI DUP2 SWAP1 PUSH2 0x2948 PUSH1 0x1 DUP7 ADD SLOAD PUSH2 0x3009 JUMP JUMPDEST PUSH1 0x1F DUP2 GT PUSH2 0x2CDB JUMPI JUMPDEST POP PUSH1 0x20 SWAP1 PUSH1 0x1F DUP4 GT PUSH1 0x1 EQ PUSH2 0x2C69 JUMPI PUSH1 0x0 SWAP3 PUSH2 0x2C5E JUMPI JUMPDEST POP POP DUP2 PUSH1 0x1 SHL SWAP2 PUSH1 0x0 NOT SWAP1 PUSH1 0x3 SHL SHR NOT AND OR PUSH1 0x1 DUP4 ADD SSTORE JUMPDEST PUSH1 0x40 DUP2 ADD MLOAD DUP1 MLOAD SWAP1 PUSH1 0x1 PUSH1 0x1 PUSH1 0x40 SHL SUB DUP3 GT PUSH2 0xB48 JUMPI DUP2 SWAP1 PUSH2 0x29A5 PUSH1 0x2 DUP7 ADD SLOAD PUSH2 0x3009 JUMP JUMPDEST PUSH1 0x1F DUP2 GT PUSH2 0x2C0B JUMPI JUMPDEST POP PUSH1 0x20 SWAP1 PUSH1 0x1F DUP4 GT PUSH1 0x1 EQ PUSH2 0x2B99 JUMPI PUSH1 0x0 SWAP3 PUSH2 0x2B8E JUMPI JUMPDEST POP POP DUP2 PUSH1 0x1 SHL SWAP2 PUSH1 0x0 NOT SWAP1 PUSH1 0x3 SHL SHR NOT AND OR PUSH1 0x2 DUP4 ADD SSTORE JUMPDEST PUSH1 0x60 DUP2 ADD MLOAD DUP1 MLOAD SWAP1 PUSH1 0x1 PUSH1 0x1 PUSH1 0x40 SHL SUB DUP3 GT PUSH2 0xB48 JUMPI PUSH2 0x2A00 PUSH1 0x3 DUP6 ADD SLOAD PUSH2 0x3009 JUMP JUMPDEST PUSH1 0x1F DUP2 GT PUSH2 0x2B43 JUMPI JUMPDEST POP PUSH1 0x20 SWAP1 PUSH1 0x1F DUP4 GT PUSH1 0x1 EQ PUSH2 0x2AA4 JUMPI SWAP4 PUSH1 0x4 PUSH1 0x80 PUSH2 0x2A84 SWAP6 DUP6 PUSH32 0x82582D8B639F0D4C5597A5D7983E8525ACDC8048269E653519313BCEA93487B3 SWAP10 SWAP7 PUSH2 0x1121 SWAP7 PUSH2 0xA7B SWAP11 PUSH1 0x0 SWAP3 PUSH2 0x2A99 JUMPI JUMPDEST POP POP DUP2 PUSH1 0x1 SHL SWAP2 PUSH1 0x0 NOT SWAP1 PUSH1 0x3 SHL SHR NOT AND OR PUSH1 0x3 DUP6 ADD SSTORE JUMPDEST ADD MLOAD ISZERO ISZERO SWAP2 ADD SWAP1 PUSH1 0xFF DUP1 NOT DUP4 SLOAD AND SWAP2 ISZERO ISZERO AND OR SWAP1 SSTORE JUMP JUMPDEST SWAP3 PUSH1 0x40 MLOAD SWAP2 DUP3 SWAP2 PUSH1 0x20 DUP4 MSTORE PUSH1 0x20 DUP4 ADD SWAP1 PUSH2 0x2F8E JUMP JUMPDEST ADD MLOAD SWAP1 POP DUP13 DUP1 PUSH2 0x2A55 JUMP JUMPDEST SWAP1 PUSH1 0x1F NOT DUP4 AND SWAP2 PUSH1 0x3 DUP7 ADD PUSH1 0x0 MSTORE PUSH1 0x20 PUSH1 0x0 KECCAK256 SWAP3 PUSH1 0x0 JUMPDEST DUP2 DUP2 LT PUSH2 0x2B2B JUMPI POP PUSH2 0x2A84 SWAP6 PUSH1 0x1 DUP7 PUSH2 0x1121 SWAP7 PUSH2 0xA7B SWAP11 SWAP7 PUSH1 0x4 SWAP7 PUSH32 0x82582D8B639F0D4C5597A5D7983E8525ACDC8048269E653519313BCEA93487B3 SWAP14 SWAP11 PUSH1 0x80 SWAP8 LT PUSH2 0x2B12 JUMPI JUMPDEST POP POP POP DUP2 SHL ADD PUSH1 0x3 DUP6 ADD SSTORE PUSH2 0x2A6D JUMP JUMPDEST ADD MLOAD PUSH1 0x0 NOT PUSH1 0xF8 DUP5 PUSH1 0x3 SHL AND SHR NOT AND SWAP1 SSTORE DUP13 DUP1 DUP1 PUSH2 0x2B02 JUMP JUMPDEST SWAP3 SWAP4 PUSH1 0x20 PUSH1 0x1 DUP2 SWAP3 DUP8 DUP7 ADD MLOAD DUP2 SSTORE ADD SWAP6 ADD SWAP4 ADD PUSH2 0x2ABB JUMP JUMPDEST PUSH1 0x3 DUP6 ADD PUSH1 0x0 MSTORE PUSH1 0x20 PUSH1 0x0 KECCAK256 PUSH1 0x1F DUP5 ADD PUSH1 0x5 SHR DUP2 ADD SWAP2 PUSH1 0x20 DUP6 LT PUSH2 0x2B84 JUMPI JUMPDEST PUSH1 0x1F ADD PUSH1 0x5 SHR ADD SWAP1 JUMPDEST DUP2 DUP2 LT PUSH2 0x2B78 JUMPI POP PUSH2 0x2A09 JUMP JUMPDEST PUSH1 0x0 DUP2 SSTORE PUSH1 0x1 ADD PUSH2 0x2B6B JUMP JUMPDEST SWAP1 SWAP2 POP DUP2 SWAP1 PUSH2 0x2B62 JUMP JUMPDEST ADD MLOAD SWAP1 POP DUP7 DUP1 PUSH2 0x29C5 JUMP JUMPDEST SWAP3 POP PUSH1 0x2 DUP6 ADD PUSH1 0x0 MSTORE PUSH1 0x20 PUSH1 0x0 KECCAK256 SWAP1 PUSH1 0x0 SWAP4 JUMPDEST PUSH1 0x1F NOT DUP5 AND DUP6 LT PUSH2 0x2BF0 JUMPI PUSH1 0x1 SWAP5 POP DUP4 PUSH1 0x1F NOT DUP2 AND LT PUSH2 0x2BD7 JUMPI JUMPDEST POP POP POP DUP2 SHL ADD PUSH1 0x2 DUP4 ADD SSTORE PUSH2 0x29DD JUMP JUMPDEST ADD MLOAD PUSH1 0x0 NOT PUSH1 0xF8 DUP5 PUSH1 0x3 SHL AND SHR NOT AND SWAP1 SSTORE DUP7 DUP1 DUP1 PUSH2 0x2BC7 JUMP JUMPDEST DUP2 DUP2 ADD MLOAD DUP4 SSTORE PUSH1 0x20 SWAP5 DUP6 ADD SWAP5 PUSH1 0x1 SWAP1 SWAP4 ADD SWAP3 SWAP1 SWAP2 ADD SWAP1 PUSH2 0x2BAC JUMP JUMPDEST SWAP1 SWAP2 POP PUSH1 0x2 DUP6 ADD PUSH1 0x0 MSTORE PUSH1 0x20 PUSH1 0x0 KECCAK256 PUSH1 0x1F DUP5 ADD PUSH1 0x5 SHR DUP2 ADD PUSH1 0x20 DUP6 LT PUSH2 0x2C57 JUMPI JUMPDEST SWAP1 DUP5 SWAP4 SWAP3 SWAP2 JUMPDEST PUSH1 0x1F DUP4 ADD PUSH1 0x5 SHR DUP3 ADD DUP2 LT PUSH2 0x2C48 JUMPI POP POP PUSH2 0x29AE JUMP JUMPDEST PUSH1 0x0 DUP2 SSTORE DUP6 SWAP5 POP PUSH1 0x1 ADD PUSH2 0x2C32 JUMP JUMPDEST POP DUP1 PUSH2 0x2C2C JUMP JUMPDEST ADD MLOAD SWAP1 POP DUP7 DUP1 PUSH2 0x2968 JUMP JUMPDEST SWAP3 POP PUSH1 0x1 DUP6 ADD PUSH1 0x0 MSTORE PUSH1 0x20 PUSH1 0x0 KECCAK256 SWAP1 PUSH1 0x0 SWAP4 JUMPDEST PUSH1 0x1F NOT DUP5 AND DUP6 LT PUSH2 0x2CC0 JUMPI PUSH1 0x1 SWAP5 POP DUP4 PUSH1 0x1F NOT DUP2 AND LT PUSH2 0x2CA7 JUMPI JUMPDEST POP POP POP DUP2 SHL ADD PUSH1 0x1 DUP4 ADD SSTORE PUSH2 0x2980 JUMP JUMPDEST ADD MLOAD PUSH1 0x0 NOT PUSH1 0xF8 DUP5 PUSH1 0x3 SHL AND SHR NOT AND SWAP1 SSTORE DUP7 DUP1 DUP1 PUSH2 0x2C97 JUMP JUMPDEST DUP2 DUP2 ADD MLOAD DUP4 SSTORE PUSH1 0x20 SWAP5 DUP6 ADD SWAP5 PUSH1 0x1 SWAP1 SWAP4 ADD SWAP3 SWAP1 SWAP2 ADD SWAP1 PUSH2 0x2C7C JUMP JUMPDEST SWAP1 SWAP2 POP PUSH1 0x1 DUP6 ADD PUSH1 0x0 MSTORE PUSH1 0x20 PUSH1 0x0 KECCAK256 PUSH1 0x1F DUP5 ADD PUSH1 0x5 SHR DUP2 ADD PUSH1 0x20 DUP6 LT PUSH2 0x2D27 JUMPI JUMPDEST SWAP1 DUP5 SWAP4 SWAP3 SWAP2 JUMPDEST PUSH1 0x1F DUP4 ADD PUSH1 0x5 SHR DUP3 ADD DUP2 LT PUSH2 0x2D18 JUMPI POP POP PUSH2 0x2951 JUMP JUMPDEST PUSH1 0x0 DUP2 SSTORE DUP6 SWAP5 POP PUSH1 0x1 ADD PUSH2 0x2D02 JUMP JUMPDEST POP DUP1 PUSH2 0x2CFC JUMP JUMPDEST ADD MLOAD SWAP1 POP DUP7 DUP1 PUSH2 0x290E JUMP JUMPDEST SWAP3 POP DUP5 PUSH1 0x0 MSTORE PUSH1 0x20 PUSH1 0x0 KECCAK256 SWAP1 PUSH1 0x0 SWAP4 JUMPDEST PUSH1 0x1F NOT DUP5 AND DUP6 LT PUSH2 0x2D8A JUMPI PUSH1 0x1 SWAP5 POP DUP4 PUSH1 0x1F NOT DUP2 AND LT PUSH2 0x2D71 JUMPI JUMPDEST POP POP POP DUP2 SHL ADD DUP3 SSTORE PUSH2 0x2923 JUMP JUMPDEST ADD MLOAD PUSH1 0x0 NOT PUSH1 0xF8 DUP5 PUSH1 0x3 SHL AND SHR NOT AND SWAP1 SSTORE DUP7 DUP1 DUP1 PUSH2 0x2D64 JUMP JUMPDEST DUP2 DUP2 ADD MLOAD DUP4 SSTORE PUSH1 0x20 SWAP5 DUP6 ADD SWAP5 PUSH1 0x1 SWAP1 SWAP4 ADD SWAP3 SWAP1 SWAP2 ADD SWAP1 PUSH2 0x2D49 JUMP JUMPDEST SWAP1 SWAP2 POP DUP5 PUSH1 0x0 MSTORE PUSH1 0x20 PUSH1 0x0 KECCAK256 PUSH1 0x1F DUP5 ADD PUSH1 0x5 SHR DUP2 ADD PUSH1 0x20 DUP6 LT PUSH2 0x2DEE JUMPI JUMPDEST SWAP1 DUP5 SWAP4 SWAP3 SWAP2 JUMPDEST PUSH1 0x1F DUP4 ADD PUSH1 0x5 SHR DUP3 ADD DUP2 LT PUSH2 0x2DDF JUMPI POP POP PUSH2 0x28F7 JUMP JUMPDEST PUSH1 0x0 DUP2 SSTORE DUP6 SWAP5 POP PUSH1 0x1 ADD PUSH2 0x2DC9 JUMP JUMPDEST POP DUP1 PUSH2 0x2DC3 JUMP JUMPDEST POP CALLER PUSH1 0x0 SWAP1 DUP2 MSTORE PUSH1 0x1 PUSH1 0x20 MSTORE PUSH1 0x40 SWAP1 KECCAK256 SLOAD PUSH1 0xFF AND PUSH2 0x2860 JUMP JUMPDEST PUSH1 0xA0 DUP2 ADD SWAP1 DUP2 LT PUSH1 0x1 PUSH1 0x1 PUSH1 0x40 SHL SUB DUP3 GT OR PUSH2 0xB48 JUMPI PUSH1 0x40 MSTORE JUMP JUMPDEST PUSH1 0x80 DUP2 ADD SWAP1 DUP2 LT PUSH1 0x1 PUSH1 0x1 PUSH1 0x40 SHL SUB DUP3 GT OR PUSH2 0xB48 JUMPI PUSH1 0x40 MSTORE JUMP JUMPDEST PUSH1 0xC0 DUP2 ADD SWAP1 DUP2 LT PUSH1 0x1 PUSH1 0x1 PUSH1 0x40 SHL SUB DUP3 GT OR PUSH2 0xB48 JUMPI PUSH1 0x40 MSTORE JUMP JUMPDEST PUSH1 0x60 DUP2 ADD SWAP1 DUP2 LT PUSH1 0x1 PUSH1 0x1 PUSH1 0x40 SHL SUB DUP3 GT OR PUSH2 0xB48 JUMPI PUSH1 0x40 MSTORE JUMP JUMPDEST SWAP1 PUSH1 0x1F DUP1 NOT SWAP2 ADD AND DUP2 ADD SWAP1 DUP2 LT PUSH1 0x1 PUSH1 0x1 PUSH1 0x40 SHL SUB DUP3 GT OR PUSH2 0xB48 JUMPI PUSH1 0x40 MSTORE JUMP JUMPDEST DUP2 PUSH1 0x1F DUP3 ADD SLT ISZERO PUSH2 0x26D JUMPI DUP1 CALLDATALOAD SWAP1 PUSH1 0x1 PUSH1 0x1 PUSH1 0x40 SHL SUB DUP3 GT PUSH2 0xB48 JUMPI PUSH1 0x40 MLOAD SWAP3 PUSH2 0x2ECF PUSH1 0x1F DUP5 ADD PUSH1 0x1F NOT AND PUSH1 0x20 ADD DUP6 PUSH2 0x2E7A JUMP JUMPDEST DUP3 DUP5 MSTORE PUSH1 0x20 DUP4 DUP4 ADD ADD GT PUSH2 0x26D JUMPI DUP2 PUSH1 0x0 SWAP3 PUSH1 0x20 DUP1 SWAP4 ADD DUP4 DUP7 ADD CALLDATACOPY DUP4 ADD ADD MSTORE SWAP1 JUMP JUMPDEST SWAP1 PUSH1 0xA0 PUSH1 0x3 NOT DUP4 ADD SLT PUSH2 0x26D JUMPI PUSH1 0x1 PUSH1 0x1 PUSH1 0x40 SHL SUB PUSH1 0x4 CALLDATALOAD DUP2 DUP2 GT PUSH2 0x26D JUMPI DUP4 PUSH2 0x2F1D SWAP2 PUSH1 0x4 ADD PUSH2 0x2E9B JUMP JUMPDEST SWAP3 PUSH1 0x24 CALLDATALOAD DUP3 DUP2 GT PUSH2 0x26D JUMPI DUP2 PUSH2 0x2F35 SWAP2 PUSH1 0x4 ADD PUSH2 0x2E9B JUMP JUMPDEST SWAP3 PUSH1 0x44 CALLDATALOAD DUP4 DUP2 GT PUSH2 0x26D JUMPI DUP3 PUSH2 0x2F4D SWAP2 PUSH1 0x4 ADD PUSH2 0x2E9B JUMP JUMPDEST SWAP3 PUSH1 0x64 CALLDATALOAD SWAP3 PUSH1 0x84 CALLDATALOAD SWAP2 DUP3 GT PUSH2 0x26D JUMPI PUSH2 0x2F68 SWAP2 PUSH1 0x4 ADD PUSH2 0x2E9B JUMP JUMPDEST SWAP1 JUMP JUMPDEST PUSH1 0x0 JUMPDEST DUP4 DUP2 LT PUSH2 0x2F7E JUMPI POP POP PUSH1 0x0 SWAP2 ADD MSTORE JUMP JUMPDEST DUP2 DUP2 ADD MLOAD DUP4 DUP3 ADD MSTORE PUSH1 0x20 ADD PUSH2 0x2F6E JUMP JUMPDEST SWAP1 PUSH1 0x20 SWAP2 PUSH2 0x2FA7 DUP2 MLOAD DUP1 SWAP3 DUP2 DUP6 MSTORE DUP6 DUP1 DUP7 ADD SWAP2 ADD PUSH2 0x2F6B JUMP JUMPDEST PUSH1 0x1F ADD PUSH1 0x1F NOT AND ADD ADD SWAP1 JUMP JUMPDEST SWAP1 PUSH1 0x80 DUP1 PUSH2 0x2FFE PUSH2 0x2FE2 PUSH2 0x2FD0 DUP7 MLOAD PUSH1 0xA0 DUP8 MSTORE PUSH1 0xA0 DUP8 ADD SWAP1 PUSH2 0x2F8E JUMP JUMPDEST PUSH1 0x20 DUP8 ADD MLOAD DUP7 DUP3 SUB PUSH1 0x20 DUP9 ADD MSTORE PUSH2 0x2F8E JUMP JUMPDEST PUSH1 0x40 DUP7 ADD MLOAD PUSH1 0x40 DUP7 ADD MSTORE PUSH1 0x60 DUP7 ADD MLOAD DUP6 DUP3 SUB PUSH1 0x60 DUP8 ADD MSTORE PUSH2 0x2F8E JUMP JUMPDEST SWAP4 ADD MLOAD ISZERO ISZERO SWAP2 ADD MSTORE SWAP1 JUMP JUMPDEST SWAP1 PUSH1 0x1 DUP3 DUP2 SHR SWAP3 AND DUP1 ISZERO PUSH2 0x3039 JUMPI JUMPDEST PUSH1 0x20 DUP4 LT EQ PUSH2 0x3023 JUMPI JUMP JUMPDEST PUSH4 0x4E487B71 PUSH1 0xE0 SHL PUSH1 0x0 MSTORE PUSH1 0x22 PUSH1 0x4 MSTORE PUSH1 0x24 PUSH1 0x0 REVERT JUMPDEST SWAP2 PUSH1 0x7F AND SWAP2 PUSH2 0x3018 JUMP JUMPDEST SWAP1 PUSH1 0x0 SWAP3 SWAP2 DUP1 SLOAD SWAP2 PUSH2 0x3054 DUP4 PUSH2 0x3009 JUMP JUMPDEST SWAP2 DUP3 DUP3 MSTORE PUSH1 0x1 SWAP4 DUP5 DUP2 AND SWAP1 DUP2 PUSH1 0x0 EQ PUSH2 0x30B6 JUMPI POP PUSH1 0x1 EQ PUSH2 0x3076 JUMPI JUMPDEST POP POP POP POP JUMP JUMPDEST SWAP1 SWAP2 SWAP4 SWAP5 POP PUSH1 0x0 MSTORE PUSH1 0x20 SWAP3 DUP4 PUSH1 0x0 KECCAK256 SWAP3 DUP5 PUSH1 0x0 SWAP5 JUMPDEST DUP4 DUP7 LT PUSH2 0x30A2 JUMPI POP POP POP POP ADD ADD SWAP1 CODESIZE DUP1 DUP1 DUP1 PUSH2 0x3070 JUMP JUMPDEST DUP1 SLOAD DUP6 DUP8 ADD DUP4 ADD MSTORE SWAP5 ADD SWAP4 DUP6 SWAP1 DUP3 ADD PUSH2 0x308B JUMP JUMPDEST SWAP3 SWAP5 POP POP POP PUSH1 0x20 SWAP4 SWAP5 POP PUSH1 0xFF NOT AND DUP4 DUP4 ADD MSTORE ISZERO ISZERO PUSH1 0x5 SHL ADD ADD SWAP1 CODESIZE DUP1 DUP1 DUP1 PUSH2 0x3070 JUMP JUMPDEST DUP1 SLOAD DUP3 LT ISZERO PUSH2 0x30F5 JUMPI PUSH1 0x0 MSTORE PUSH1 0x20 PUSH1 0x0 KECCAK256 SWAP1 PUSH1 0x2 SHL ADD SWAP1 PUSH1 0x0 SWAP1 JUMP JUMPDEST PUSH4 0x4E487B71 PUSH1 0xE0 SHL PUSH1 0x0 MSTORE PUSH1 0x32 PUSH1 0x4 MSTORE PUSH1 0x24 PUSH1 0x0 REVERT JUMPDEST SWAP4 PUSH2 0x312B PUSH2 0x313E SWAP4 PUSH2 0x1661 PUSH1 0x80 SWAP7 SWAP5 SWAP10 SWAP9 SWAP10 PUSH1 0xA0 DUP10 MSTORE PUSH1 0xA0 DUP10 ADD SWAP1 PUSH2 0x2F8E JUMP JUMPDEST SWAP2 PUSH1 0x40 DUP7 ADD MSTORE DUP5 DUP3 SUB PUSH1 0x60 DUP7 ADD MSTORE PUSH2 0x2F8E JUMP JUMPDEST SWAP4 ISZERO ISZERO SWAP2 ADD MSTORE JUMP JUMPDEST ISZERO PUSH2 0x314D JUMPI JUMP JUMPDEST PUSH1 0x40 MLOAD PUSH3 0x461BCD PUSH1 0xE5 SHL DUP2 MSTORE PUSH1 0x20 PUSH1 0x4 DUP3 ADD MSTORE PUSH1 0x21 PUSH1 0x24 DUP3 ADD MSTORE PUSH32 0x4F6E6C79206F776E65722063616E2063616C6C20746869732066756E6374696F PUSH1 0x44 DUP3 ADD MSTORE PUSH1 0x37 PUSH1 0xF9 SHL PUSH1 0x64 DUP3 ADD MSTORE PUSH1 0x84 SWAP1 REVERT JUMPDEST ISZERO PUSH2 0x31A3 JUMPI JUMP JUMPDEST PUSH1 0x40 MLOAD PUSH3 0x461BCD PUSH1 0xE5 SHL DUP2 MSTORE PUSH1 0x20 PUSH1 0x4 DUP3 ADD MSTORE PUSH1 0xE PUSH1 0x24 DUP3 ADD MSTORE PUSH14 0x139BDD08185D5D1A1BDC9A5E9959 PUSH1 0x92 SHL PUSH1 0x44 DUP3 ADD MSTORE PUSH1 0x64 SWAP1 REVERT JUMPDEST PUSH2 0x31F1 SWAP1 PUSH1 0x20 PUSH1 0x40 MLOAD SWAP3 DUP3 DUP5 DUP1 SWAP5 MLOAD SWAP4 DUP5 SWAP3 ADD PUSH2 0x2F6B JUMP JUMPDEST DUP2 ADD SUB SWAP1 KECCAK256 SWAP1 JUMP JUMPDEST ISZERO PUSH2 0x3200 JUMPI JUMP JUMPDEST PUSH1 0x40 MLOAD PUSH3 0x461BCD PUSH1 0xE5 SHL DUP2 MSTORE PUSH1 0x20 PUSH1 0x4 DUP3 ADD MSTORE PUSH1 0x14 PUSH1 0x24 DUP3 ADD MSTORE PUSH20 0x10985D18DA08191BD95CC81B9BDD08195E1A5CDD PUSH1 0x62 SHL PUSH1 0x44 DUP3 ADD MSTORE PUSH1 0x64 SWAP1 REVERT JUMPDEST SWAP1 DUP1 MLOAD DUP1 MLOAD PUSH1 0x1 PUSH1 0x1 PUSH1 0x40 SHL SUB SWAP1 DUP2 DUP2 GT PUSH2 0xB48 JUMPI DUP1 PUSH2 0x325C DUP7 SLOAD PUSH2 0x3009 JUMP JUMPDEST SWAP4 PUSH1 0x1F SWAP5 DUP6 DUP2 GT PUSH2 0x3558 JUMPI JUMPDEST POP PUSH1 0x20 SWAP1 DUP6 DUP4 GT PUSH1 0x1 EQ PUSH2 0x34F3 JUMPI PUSH1 0x0 SWAP3 PUSH2 0x34E8 JUMPI JUMPDEST POP POP DUP2 PUSH1 0x1 SHL SWAP2 PUSH1 0x0 NOT SWAP1 PUSH1 0x3 SHL SHR NOT AND OR DUP5 SSTORE JUMPDEST PUSH1 0x1 DUP1 DUP6 ADD PUSH1 0x20 DUP6 ADD MLOAD DUP1 MLOAD SWAP1 DUP5 DUP3 GT PUSH2 0xB48 JUMPI DUP2 SWAP1 PUSH2 0x32B3 DUP5 SLOAD PUSH2 0x3009 JUMP JUMPDEST DUP8 DUP2 GT PUSH2 0x3495 JUMPI JUMPDEST POP PUSH1 0x20 SWAP1 DUP8 DUP4 GT PUSH1 0x1 EQ PUSH2 0x3432 JUMPI PUSH1 0x0 SWAP3 PUSH2 0x3427 JUMPI JUMPDEST POP POP PUSH1 0x0 NOT PUSH1 0x3 DUP4 SWAP1 SHL SHR NOT AND SWAP1 DUP4 SHL OR SWAP1 SSTORE JUMPDEST PUSH1 0x40 DUP5 ADD MLOAD PUSH1 0x2 DUP7 ADD SSTORE PUSH1 0x3 DUP6 ADD SWAP3 PUSH1 0x60 DUP6 ADD MLOAD DUP1 MLOAD SWAP4 DUP5 GT PUSH2 0xB48 JUMPI PUSH2 0x330C DUP6 SLOAD PUSH2 0x3009 JUMP JUMPDEST DUP3 DUP2 GT PUSH2 0x33DF JUMPI JUMPDEST POP PUSH1 0x20 SWAP2 DUP5 GT PUSH1 0x1 EQ PUSH2 0x336E JUMPI SWAP3 DUP1 DUP1 PUSH2 0x3361 SWAP9 SWAP8 SWAP5 PUSH1 0x4 SWAP8 SWAP5 PUSH1 0x80 SWAP8 PUSH1 0x0 SWAP5 PUSH2 0x3363 JUMPI JUMPDEST POP POP SHL SWAP2 PUSH1 0x0 NOT SWAP1 PUSH1 0x3 SHL SHR NOT AND OR SWAP1 SSTORE ADD MLOAD ISZERO ISZERO SWAP2 ADD SWAP1 PUSH1 0xFF DUP1 NOT DUP4 SLOAD AND SWAP2 ISZERO ISZERO AND OR SWAP1 SSTORE JUMP JUMPDEST JUMP JUMPDEST ADD MLOAD SWAP3 POP CODESIZE DUP1 PUSH2 0x3339 JUMP JUMPDEST SWAP1 PUSH1 0x1F SWAP4 SWAP3 SWAP4 NOT DUP4 AND SWAP2 DUP6 PUSH1 0x0 MSTORE DUP2 PUSH1 0x0 KECCAK256 SWAP3 PUSH1 0x0 JUMPDEST DUP2 DUP2 LT PUSH2 0x33C9 JUMPI POP SWAP3 PUSH1 0x80 SWAP6 SWAP3 DUP6 SWAP3 PUSH2 0x3361 SWAP11 SWAP10 SWAP7 PUSH1 0x4 SWAP10 SWAP7 LT PUSH2 0x33B0 JUMPI JUMPDEST POP POP POP DUP2 SHL ADD SWAP1 SSTORE PUSH2 0x2A6D JUMP JUMPDEST ADD MLOAD PUSH1 0x0 NOT PUSH1 0xF8 DUP5 PUSH1 0x3 SHL AND SHR NOT AND SWAP1 SSTORE CODESIZE DUP1 DUP1 PUSH2 0x33A3 JUMP JUMPDEST DUP3 DUP5 ADD MLOAD DUP6 SSTORE SWAP4 DUP7 ADD SWAP4 PUSH1 0x20 SWAP4 DUP5 ADD SWAP4 ADD PUSH2 0x3384 JUMP JUMPDEST DUP6 PUSH1 0x0 MSTORE PUSH1 0x20 PUSH1 0x0 KECCAK256 DUP4 DUP1 DUP8 ADD PUSH1 0x5 SHR DUP3 ADD SWAP3 PUSH1 0x20 DUP9 LT PUSH2 0x341E JUMPI JUMPDEST ADD PUSH1 0x5 SHR ADD SWAP1 DUP5 SWAP1 JUMPDEST DUP3 DUP2 LT PUSH2 0x3412 JUMPI POP POP PUSH2 0x3314 JUMP JUMPDEST PUSH1 0x0 DUP2 SSTORE ADD DUP5 SWAP1 PUSH2 0x3404 JUMP JUMPDEST SWAP3 POP DUP2 SWAP3 PUSH2 0x33FB JUMP JUMPDEST ADD MLOAD SWAP1 POP CODESIZE DUP1 PUSH2 0x32D1 JUMP JUMPDEST SWAP1 DUP6 SWAP4 POP PUSH1 0x1F NOT DUP4 AND SWAP2 DUP6 PUSH1 0x0 MSTORE DUP2 PUSH1 0x0 KECCAK256 SWAP3 PUSH1 0x0 JUMPDEST DUP2 DUP2 LT PUSH2 0x347D JUMPI POP DUP5 GT PUSH2 0x3464 JUMPI JUMPDEST POP POP POP DUP2 SHL ADD SWAP1 SSTORE PUSH2 0x32E5 JUMP JUMPDEST ADD MLOAD PUSH1 0x0 NOT PUSH1 0xF8 DUP5 PUSH1 0x3 SHL AND SHR NOT AND SWAP1 SSTORE CODESIZE DUP1 DUP1 PUSH2 0x3457 JUMP JUMPDEST DUP3 DUP5 ADD MLOAD DUP6 SSTORE DUP9 SWAP7 SWAP1 SWAP5 ADD SWAP4 PUSH1 0x20 SWAP4 DUP5 ADD SWAP4 ADD PUSH2 0x3448 JUMP JUMPDEST SWAP1 SWAP2 POP DUP4 PUSH1 0x0 MSTORE PUSH1 0x20 PUSH1 0x0 KECCAK256 DUP8 DUP1 DUP6 ADD PUSH1 0x5 SHR DUP3 ADD SWAP3 PUSH1 0x20 DUP7 LT PUSH2 0x34DF JUMPI JUMPDEST SWAP2 DUP8 SWAP2 DUP7 SWAP6 SWAP5 SWAP4 ADD PUSH1 0x5 SHR ADD SWAP2 JUMPDEST DUP3 DUP2 LT PUSH2 0x34D0 JUMPI POP POP PUSH2 0x32BB JUMP JUMPDEST PUSH1 0x0 DUP2 SSTORE DUP6 SWAP5 POP DUP8 SWAP2 ADD PUSH2 0x34C2 JUMP JUMPDEST SWAP3 POP DUP2 SWAP3 PUSH2 0x34B4 JUMP JUMPDEST ADD MLOAD SWAP1 POP CODESIZE DUP1 PUSH2 0x327E JUMP JUMPDEST PUSH1 0x0 DUP9 DUP2 MSTORE DUP3 DUP2 KECCAK256 SWAP4 POP PUSH1 0x1F NOT DUP6 AND SWAP1 JUMPDEST DUP2 DUP2 LT PUSH2 0x3540 JUMPI POP SWAP1 DUP5 PUSH1 0x1 SWAP6 SWAP5 SWAP4 SWAP3 LT PUSH2 0x3527 JUMPI JUMPDEST POP POP POP DUP2 SHL ADD DUP5 SSTORE PUSH2 0x3293 JUMP JUMPDEST ADD MLOAD PUSH1 0x0 NOT PUSH1 0xF8 DUP5 PUSH1 0x3 SHL AND SHR NOT AND SWAP1 SSTORE CODESIZE DUP1 DUP1 PUSH2 0x351A JUMP JUMPDEST SWAP3 SWAP4 PUSH1 0x20 PUSH1 0x1 DUP2 SWAP3 DUP8 DUP7 ADD MLOAD DUP2 SSTORE ADD SWAP6 ADD SWAP4 ADD PUSH2 0x3504 JUMP JUMPDEST SWAP1 SWAP2 POP PUSH1 0x0 DUP8 DUP2 MSTORE PUSH1 0x20 DUP2 KECCAK256 DUP7 DUP1 DUP7 ADD PUSH1 0x5 SHR DUP3 ADD SWAP4 PUSH1 0x20 DUP8 LT PUSH2 0x35A1 JUMPI JUMPDEST SWAP1 DUP7 SWAP6 SWAP5 SWAP4 SWAP3 SWAP2 ADD PUSH1 0x5 SHR ADD SWAP2 JUMPDEST DUP3 DUP2 LT PUSH2 0x3593 JUMPI POP POP PUSH2 0x3268 JUMP JUMPDEST DUP2 DUP2 SSTORE DUP6 SWAP5 POP PUSH1 0x1 ADD PUSH2 0x3585 JUMP JUMPDEST SWAP4 POP DUP2 SWAP4 PUSH2 0x3577 JUMP JUMPDEST PUSH1 0x40 MLOAD SWAP1 PUSH2 0x35B7 DUP3 PUSH2 0x2E0E JUMP JUMPDEST PUSH1 0x0 PUSH1 0x80 DUP4 PUSH1 0x60 DUP2 MSTORE PUSH1 0x60 PUSH1 0x20 DUP3 ADD MSTORE DUP3 PUSH1 0x40 DUP3 ADD MSTORE PUSH1 0x60 DUP1 DUP3 ADD MSTORE ADD MSTORE JUMP JUMPDEST SWAP1 PUSH1 0x40 MLOAD PUSH2 0x35E4 DUP2 PUSH2 0x2E0E JUMP JUMPDEST PUSH1 0x80 PUSH1 0xFF PUSH1 0x4 DUP4 SWAP6 PUSH1 0x40 MLOAD PUSH2 0x35FD DUP2 PUSH2 0x1F6 DUP2 DUP6 PUSH2 0x3043 JUMP JUMPDEST DUP6 MSTORE PUSH1 0x40 MLOAD PUSH2 0x3613 DUP2 PUSH2 0x1F6 DUP2 PUSH1 0x1 DUP7 ADD PUSH2 0x3043 JUMP JUMPDEST PUSH1 0x20 DUP7 ADD MSTORE PUSH1 0x2 DUP2 ADD SLOAD PUSH1 0x40 DUP7 ADD MSTORE PUSH1 0x40 MLOAD PUSH2 0x3636 DUP2 PUSH2 0x1F6 DUP2 PUSH1 0x3 DUP7 ADD PUSH2 0x3043 JUMP JUMPDEST PUSH1 0x60 DUP7 ADD MSTORE ADD SLOAD AND ISZERO ISZERO SWAP2 ADD MSTORE JUMP INVALID LOG2 PUSH5 0x6970667358 0x22 SLT KECCAK256 0x5E LOG4 0xFB 0xD0 SWAP3 DUP15 ADD LOG0 0x29 ORIGIN SWAP16 SLOAD 0x2E ADD 0xD3 PUSH7 0x477397E132BA5F 0xF CALLVALUE 0xA7 SGT PUSH30 0xD778D7C964736F6C63430008140033000000000000000000000000000000 "},"methodIdentifiers":{"addCertificate(string,string,string,uint256,string)":"0a1bb211","addCultivationDetails(string,string,string,string,uint256,uint256)":"cad16eef","addFarmerInfo(string,string,string,string,string)":"06723008","addLabResult(string,string,string,uint256,string)":"cd8d4ca9","addProcessingInfo(string,string,string,uint256,string)":"9bd37cb8","addTraceData(string,string,string)":"958c5c1b","addTransferRecord(string,string,string,string)":"12f2d4ad","authorizeUser(address)":"67c2a360","authorizedUsers(address)":"1828983a","batches(string)":"7ef1446a","certificates(string)":"8f2b91ea","checkBatchExists(string)":"8ced45e9","createBatch(string,string,string,string,uint256)":"36ce367a","cultivationData(string)":"f158dfe5","farmerData(string)":"4dd7845a","getBatch(string)":"f9ca4274","getCertificate(string)":"ed0f2e75","getCultivationDetails(string)":"7803866b","getFarmerInfo(string)":"820b29dc","getLabResult(string)":"3d1b8693","getProcessingInfo(string)":"f19ac0d5","getTraceNotes(string)":"fcf7e5b1","getTransferRecordCount(string)":"8a84532c","getTransferRecords(string)":"9b6d0e30","labResults(string)":"749b713e","owner()":"8da5cb5b","processingData(string)":"6f3c8998","revokeUser(address)":"ef097fc4","traceRecords(string)":"fa0f9dbe","transferLogs(string,uint256)":"4ead36c5"}}}}}