{
  "_format": "hh-sol-artifact-1",
  "contractName": "AgroTrust",
  "sourceName": "contracts/AgroTrust.sol",
  "abi": [
    {
      "inputs": [],
      "stateMutability": "nonpayable",
      "type": "constructor"
    },
    {
      "anonymous": false,
      "inputs": [
        {
          "indexed": true,
          "internalType": "string",
          "name": "batchId",
          "type": "string"
        },
        {
          "indexed": false,
          "internalType": "string",
          "name": "giTag",
          "type": "string"
        },
        {
          "indexed": false,
          "internalType": "uint256",
          "name": "timestamp",
          "type": "uint256"
        }
      ],
      "name": "BatchCreated",
      "type": "event"
    },
    {
      "anonymous": false,
      "inputs": [
        {
          "indexed": true,
          "internalType": "string",
          "name": "batchId",
          "type": "string"
        },
        {
          "indexed": false,
          "internalType": "string",
          "name": "certificateType",
          "type": "string"
        }
      ],
      "name": "CertificateAdded",
      "type": "event"
    },
    {
      "anonymous": false,
      "inputs": [
        {
          "indexed": true,
          "internalType": "string",
          "name": "batchId",
          "type": "string"
        },
        {
          "indexed": false,
          "internalType": "string",
          "name": "cropName",
          "type": "string"
        }
      ],
      "name": "CultivationDetailsAdded",
      "type": "event"
    },
    {
      "anonymous": false,
      "inputs": [
        {
          "indexed": true,
          "internalType": "string",
          "name": "batchId",
          "type": "string"
        },
        {
          "indexed": false,
          "internalType": "string",
          "name": "farmerName",
          "type": "string"
        }
      ],
      "name": "FarmerInfoAdded",
      "type": "event"
    },
    {
      "anonymous": false,
      "inputs": [
        {
          "indexed": true,
          "internalType": "string",
          "name": "batchId",
          "type": "string"
        },
        {
          "indexed": false,
          "internalType": "string",
          "name": "labName",
          "type": "string"
        }
      ],
      "name": "LabResultAdded",
      "type": "event"
    },
    {
      "anonymous": false,
      "inputs": [
        {
          "indexed": true,
          "internalType": "string",
          "name": "batchId",
          "type": "string"
        },
        {
          "indexed": false,
          "internalType": "string",
          "name": "processorName",
          "type": "string"
        }
      ],
      "name": "ProcessingInfoAdded",
      "type": "event"
    },
    {
      "anonymous": false,
      "inputs": [
        {
          "indexed": true,
          "internalType": "string",
          "name": "batchId",
          "type": "string"
        }
      ],
      "name": "TraceDataAdded",
      "type": "event"
    },
    {
      "anonymous": false,
      "inputs": [
        {
          "indexed": true,
          "internalType": "string",
          "name": "batchId",
          "type": "string"
        },
        {
          "indexed": false,
          "internalType": "string",
          "name": "from",
          "type": "string"
        },
        {
          "indexed": false,
          "internalType": "string",
          "name": "to",
          "type": "string"
        }
      ],
      "name": "TransferRecorded",
      "type": "event"
    },
    {
      "anonymous": false,
      "inputs": [
        {
          "indexed": true,
          "internalType": "address",
          "name": "user",
          "type": "address"
        }
      ],
      "name": "UserAuthorized",
      "type": "event"
    },
    {
      "anonymous": false,
      "inputs": [
        {
          "indexed": true,
          "internalType": "address",
          "name": "user",
          "type": "address"
        }
      ],
      "name": "UserRevoked",
      "type": "event"
    },
    {
      "inputs": [
        {
          "internalType": "string",
          "name": "_batchId",
          "type": "string"
        },
        {
          "internalType": "string",
          "name": "_issuedBy",
          "type": "string"
        },
        {
          "internalType": "string",
          "name": "_certificateType",
          "type": "string"
        },
        {
          "internalType": "uint256",
          "name": "_issueDate",
          "type": "uint256"
        },
        {
          "internalType": "string",
          "name": "_certificateId",
          "type": "string"
        }
      ],
      "name": "addCertificate",
      "outputs": [],
      "stateMutability": "nonpayable",
      "type": "function"
    },
    {
      "inputs": [
        {
          "internalType": "string",
          "name": "_batchId",
          "type": "string"
        },
        {
          "internalType": "string",
          "name": "_soilType",
          "type": "string"
        },
        {
          "internalType": "string",
          "name": "_irrigationType",
          "type": "string"
        },
        {
          "internalType": "string",
          "name": "_pesticideUsed",
          "type": "string"
        },
        {
          "internalType": "uint256",
          "name": "_sowingDate",
          "type": "uint256"
        },
        {
          "internalType": "uint256",
          "name": "_area",
          "type": "uint256"
        }
      ],
      "name": "addCultivationDetails",
      "outputs": [],
      "stateMutability": "nonpayable",
      "type": "function"
    },
    {
      "inputs": [
        {
          "internalType": "string",
          "name": "_batchId",
          "type": "string"
        },
        {
          "internalType": "string",
          "name": "_farmerName",
          "type": "string"
        },
        {
          "internalType": "string",
          "name": "_farmLocation",
          "type": "string"
        },
        {
          "internalType": "string",
          "name": "_contact",
          "type": "string"
        },
        {
          "internalType": "string",
          "name": "_farmerId",
          "type": "string"
        }
      ],
      "name": "addFarmerInfo",
      "outputs": [],
      "stateMutability": "nonpayable",
      "type": "function"
    },
    {
      "inputs": [
        {
          "internalType": "string",
          "name": "_batchId",
          "type": "string"
        },
        {
          "internalType": "string",
          "name": "_labName",
          "type": "string"
        },
        {
          "internalType": "string",
          "name": "_result",
          "type": "string"
        },
        {
          "internalType": "uint256",
          "name": "_testDate",
          "type": "uint256"
        },
        {
          "internalType": "string",
          "name": "_reportHash",
          "type": "string"
        }
      ],
      "name": "addLabResult",
      "outputs": [],
      "stateMutability": "nonpayable",
      "type": "function"
    },
    {
      "inputs": [
        {
          "internalType": "string",
          "name": "_batchId",
          "type": "string"
        },
        {
          "internalType": "string",
          "name": "_processorName",
          "type": "string"
        },
        {
          "internalType": "string",
          "name": "_method",
          "type": "string"
        },
        {
          "internalType": "uint256",
          "name": "_processingDate",
          "type": "uint256"
        },
        {
          "internalType": "string",
          "name": "_processingUnitId",
          "type": "string"
        }
      ],
      "name": "addProcessingInfo",
      "outputs": [],
      "stateMutability": "nonpayable",
      "type": "function"
    },
    {
      "inputs": [
        {
          "internalType": "string",
          "name": "_batchId",
          "type": "string"
        },
        {
          "internalType": "string",
          "name": "_notes",
          "type": "string"
        },
        {
          "internalType": "string",
          "name": "_qrCodeHash",
          "type": "string"
        }
      ],
      "name": "addTraceData",
      "outputs": [],
      "stateMutability": "nonpayable",
      "type": "function"
    },
    {
      "inputs": [
        {
          "internalType": "string",
          "name": "_batchId",
          "type": "string"
        },
        {
          "internalType": "string",
          "name": "_from",
          "type": "string"
        },
        {
          "internalType": "string",
          "name": "_to",
          "type": "string"
        },
        {
          "internalType": "string",
          "name": "_purpose",
          "type": "string"
        }
      ],
      "name": "addTransferRecord",
      "outputs": [],
      "stateMutability": "nonpayable",
      "type": "function"
    },
    {
      "inputs": [
        {
          "internalType": "address",
          "name": "_user",
          "type": "address"
        }
      ],
      "name": "authorizeUser",
      "outputs": [],
      "stateMutability": "nonpayable",
      "type": "function"
    },
    {
      "inputs": [
        {
          "internalType": "address",
          "name": "",
          "type": "address"
        }
      ],
      "name": "authorizedUsers",
      "outputs": [
        {
          "internalType": "bool",
          "name": "",
          "type": "bool"
        }
      ],
      "stateMutability": "view",
      "type": "function"
    },
    {
      "inputs": [
        {
          "internalType": "string",
          "name": "",
          "type": "string"
        }
      ],
      "name": "batches",
      "outputs": [
        {
          "internalType": "string",
          "name": "cropName",
          "type": "string"
        },
        {
          "internalType": "string",
          "name": "variety",
          "type": "string"
        },
        {
          "internalType": "string",
          "name": "location",
          "type": "string"
        },
        {
          "internalType": "uint256",
          "name": "harvestDate",
          "type": "uint256"
        },
        {
          "internalType": "bool",
          "name": "exists",
          "type": "bool"
        }
      ],
      "stateMutability": "view",
      "type": "function"
    },
    {
      "inputs": [
        {
          "internalType": "string",
          "name": "",
          "type": "string"
        }
      ],
      "name": "certificates",
      "outputs": [
        {
          "internalType": "string",
          "name": "issuedBy",
          "type": "string"
        },
        {
          "internalType": "string",
          "name": "certificateType",
          "type": "string"
        },
        {
          "internalType": "uint256",
          "name": "issueDate",
          "type": "uint256"
        },
        {
          "internalType": "string",
          "name": "certificateId",
          "type": "string"
        },
        {
          "internalType": "bool",
          "name": "exists",
          "type": "bool"
        }
      ],
      "stateMutability": "view",
      "type": "function"
    },
    {
      "inputs": [
        {
          "internalType": "string",
          "name": "_batchId",
          "type": "string"
        }
      ],
      "name": "checkBatchExists",
      "outputs": [
        {
          "internalType": "bool",
          "name": "",
          "type": "bool"
        }
      ],
      "stateMutability": "view",
      "type": "function"
    },
    {
      "inputs": [
        {
          "internalType": "string",
          "name": "_batchId",
          "type": "string"
        },
        {
          "internalType": "string",
          "name": "_cropName",
          "type": "string"
        },
        {
          "internalType": "string",
          "name": "_variety",
          "type": "string"
        },
        {
          "internalType": "string",
          "name": "_location",
          "type": "string"
        },
        {
          "internalType": "uint256",
          "name": "_harvestDate",
          "type": "uint256"
        }
      ],
      "name": "createBatch",
      "outputs": [],
      "stateMutability": "nonpayable",
      "type": "function"
    },
    {
      "inputs": [
        {
          "internalType": "string",
          "name": "",
          "type": "string"
        }
      ],
      "name": "cultivationData",
      "outputs": [
        {
          "internalType": "string",
          "name": "soilType",
          "type": "string"
        },
        {
          "internalType": "string",
          "name": "irrigationType",
          "type": "string"
        },
        {
          "internalType": "string",
          "name": "pesticideUsed",
          "type": "string"
        },
        {
          "internalType": "uint256",
          "name": "sowingDate",
          "type": "uint256"
        },
        {
          "internalType": "uint256",
          "name": "area",
          "type": "uint256"
        },
        {
          "internalType": "bool",
          "name": "exists",
          "type": "bool"
        }
      ],
      "stateMutability": "view",
      "type": "function"
    },
    {
      "inputs": [
        {
          "internalType": "string",
          "name": "",
          "type": "string"
        }
      ],
      "name": "farmerData",
      "outputs": [
        {
          "internalType": "string",
          "name": "farmerName",
          "type": "string"
        },
        {
          "internalType": "string",
          "name": "farmLocation",
          "type": "string"
        },
        {
          "internalType": "string",
          "name": "contact",
          "type": "string"
        },
        {
          "internalType": "string",
          "name": "farmerId",
          "type": "string"
        },
        {
          "internalType": "bool",
          "name": "exists",
          "type": "bool"
        }
      ],
      "stateMutability": "view",
      "type": "function"
    },
    {
      "inputs": [
        {
          "internalType": "string",
          "name": "_batchId",
          "type": "string"
        }
      ],
      "name": "getBatch",
      "outputs": [
        {
          "components": [
            {
              "internalType": "string",
              "name": "cropName",
              "type": "string"
            },
            {
              "internalType": "string",
              "name": "variety",
              "type": "string"
            },
            {
              "internalType": "string",
              "name": "location",
              "type": "string"
            },
            {
              "internalType": "uint256",
              "name": "harvestDate",
              "type": "uint256"
            },
            {
              "internalType": "bool",
              "name": "exists",
              "type": "bool"
            }
          ],
          "internalType": "struct AgroTrust.Batch",
          "name": "",
          "type": "tuple"
        }
      ],
      "stateMutability": "view",
      "type": "function"
    },
    {
      "inputs": [
        {
          "internalType": "string",
          "name": "_batchId",
          "type": "string"
        }
      ],
      "name": "getCertificate",
      "outputs": [
        {
          "components": [
            {
              "internalType": "string",
              "name": "issuedBy",
              "type": "string"
            },
            {
              "internalType": "string",
              "name": "certificateType",
              "type": "string"
            },
            {
              "internalType": "uint256",
              "name": "issueDate",
              "type": "uint256"
            },
            {
              "internalType": "string",
              "name": "certificateId",
              "type": "string"
            },
            {
              "internalType": "bool",
              "name": "exists",
              "type": "bool"
            }
          ],
          "internalType": "struct AgroTrust.Certificate",
          "name": "",
          "type": "tuple"
        }
      ],
      "stateMutability": "view",
      "type": "function"
    },
    {
      "inputs": [
        {
          "internalType": "string",
          "name": "_batchId",
          "type": "string"
        }
      ],
      "name": "getCultivationDetails",
      "outputs": [
        {
          "components": [
            {
              "internalType": "string",
              "name": "soilType",
              "type": "string"
            },
            {
              "internalType": "string",
              "name": "irrigationType",
              "type": "string"
            },
            {
              "internalType": "string",
              "name": "pesticideUsed",
              "type": "string"
            },
            {
              "internalType": "uint256",
              "name": "sowingDate",
              "type": "uint256"
            },
            {
              "internalType": "uint256",
              "name": "area",
              "type": "uint256"
            },
            {
              "internalType": "bool",
              "name": "exists",
              "type": "bool"
            }
          ],
          "internalType": "struct AgroTrust.CultivationDetails",
          "name": "",
          "type": "tuple"
        }
      ],
      "stateMutability": "view",
      "type": "function"
    },
    {
      "inputs": [
        {
          "internalType": "string",
          "name": "_batchId",
          "type": "string"
        }
      ],
      "name": "getFarmerInfo",
      "outputs": [
        {
          "components": [
            {
              "internalType": "string",
              "name": "farmerName",
              "type": "string"
            },
            {
              "internalType": "string",
              "name": "farmLocation",
              "type": "string"
            },
            {
              "internalType": "string",
              "name": "contact",
              "type": "string"
            },
            {
              "internalType": "string",
              "name": "farmerId",
              "type": "string"
            },
            {
              "internalType": "bool",
              "name": "exists",
              "type": "bool"
            }
          ],
          "internalType": "struct AgroTrust.FarmerInfo",
          "name": "",
          "type": "tuple"
        }
      ],
      "stateMutability": "view",
      "type": "function"
    },
    {
      "inputs": [
        {
          "internalType": "string",
          "name": "_batchId",
          "type": "string"
        }
      ],
      "name": "getLabResult",
      "outputs": [
        {
          "components": [
            {
              "internalType": "string",
              "name": "labName",
              "type": "string"
            },
            {
              "internalType": "string",
              "name": "result",
              "type": "string"
            },
            {
              "internalType": "uint256",
              "name": "testDate",
              "type": "uint256"
            },
            {
              "internalType": "string",
              "name": "reportHash",
              "type": "string"
            },
            {
              "internalType": "bool",
              "name": "exists",
              "type": "bool"
            }
          ],
          "internalType": "struct AgroTrust.LabResult",
          "name": "",
          "type": "tuple"
        }
      ],
      "stateMutability": "view",
      "type": "function"
    },
    {
      "inputs": [
        {
          "internalType": "string",
          "name": "_batchId",
          "type": "string"
        }
      ],
      "name": "getProcessingInfo",
      "outputs": [
        {
          "components": [
            {
              "internalType": "string",
              "name": "processorName",
              "type": "string"
            },
            {
              "internalType": "string",
              "name": "method",
              "type": "string"
            },
            {
              "internalType": "uint256",
              "name": "processingDate",
              "type": "uint256"
            },
            {
              "internalType": "string",
              "name": "processingUnitId",
              "type": "string"
            },
            {
              "internalType": "bool",
              "name": "exists",
              "type": "bool"
            }
          ],
          "internalType": "struct AgroTrust.ProcessingInfo",
          "name": "",
          "type": "tuple"
        }
      ],
      "stateMutability": "view",
      "type": "function"
    },
    {
      "inputs": [
        {
          "internalType": "string",
          "name": "_batchId",
          "type": "string"
        }
      ],
      "name": "getTraceNotes",
      "outputs": [
        {
          "components": [
            {
              "internalType": "string",
              "name": "notes",
              "type": "string"
            },
            {
              "internalType": "string",
              "name": "qrCodeHash",
              "type": "string"
            },
            {
              "internalType": "bool",
              "name": "exists",
              "type": "bool"
            }
          ],
          "internalType": "struct AgroTrust.TraceData",
          "name": "",
          "type": "tuple"
        }
      ],
      "stateMutability": "view",
      "type": "function"
    },
    {
      "inputs": [
        {
          "internalType": "string",
          "name": "_batchId",
          "type": "string"
        }
      ],
      "name": "getTransferRecordCount",
      "outputs": [
        {
          "internalType": "uint256",
          "name": "",
          "type": "uint256"
        }
      ],
      "stateMutability": "view",
      "type": "function"
    },
    {
      "inputs": [
        {
          "internalType": "string",
          "name": "_batchId",
          "type": "string"
        }
      ],
      "name": "getTransferRecords",
      "outputs": [
        {
          "components": [
            {
              "internalType": "string",
              "name": "from",
              "type": "string"
            },
            {
              "internalType": "string",
              "name": "to",
              "type": "string"
            },
            {
              "internalType": "string",
              "name": "purpose",
              "type": "string"
            },
            {
              "internalType": "uint256",
              "name": "transferDate",
              "type": "uint256"
            }
          ],
          "internalType": "struct AgroTrust.TransferRecord[]",
          "name": "",
          "type": "tuple[]"
        }
      ],
      "stateMutability": "view",
      "type": "function"
    },
    {
      "inputs": [
        {
          "internalType": "string",
          "name": "",
          "type": "string"
        }
      ],
      "name": "labResults",
      "outputs": [
        {
          "internalType": "string",
          "name": "labName",
          "type": "string"
        },
        {
          "internalType": "string",
          "name": "result",
          "type": "string"
        },
        {
          "internalType": "uint256",
          "name": "testDate",
          "type": "uint256"
        },
        {
          "internalType": "string",
          "name": "reportHash",
          "type": "string"
        },
        {
          "internalType": "bool",
          "name": "exists",
          "type": "bool"
        }
      ],
      "stateMutability": "view",
      "type": "function"
    },
    {
      "inputs": [],
      "name": "owner",
      "outputs": [
        {
          "internalType": "address",
          "name": "",
          "type": "address"
        }
      ],
      "stateMutability": "view",
      "type": "function"
    },
    {
      "inputs": [
        {
          "internalType": "string",
          "name": "",
          "type": "string"
        }
      ],
      "name": "processingData",
      "outputs": [
        {
          "internalType": "string",
          "name": "processorName",
          "type": "string"
        },
        {
          "internalType": "string",
          "name": "method",
          "type": "string"
        },
        {
          "internalType": "uint256",
          "name": "processingDate",
          "type": "uint256"
        },
        {
          "internalType": "string",
          "name": "processingUnitId",
          "type": "string"
        },
        {
          "internalType": "bool",
          "name": "exists",
          "type": "bool"
        }
      ],
      "stateMutability": "view",
      "type": "function"
    },
    {
      "inputs": [
        {
          "internalType": "address",
          "name": "_user",
          "type": "address"
        }
      ],
      "name": "revokeUser",
      "outputs": [],
      "stateMutability": "nonpayable",
      "type": "function"
    },
    {
      "inputs": [
        {
          "internalType": "string",
          "name": "",
          "type": "string"
        }
      ],
      "name": "traceRecords",
      "outputs": [
        {
          "internalType": "string",
          "name": "notes",
          "type": "string"
        },
        {
          "internalType": "string",
          "name": "qrCodeHash",
          "type": "string"
        },
        {
          "internalType": "bool",
          "name": "exists",
          "type": "bool"
        }
      ],
      "stateMutability": "view",
      "type": "function"
    },
    {
      "inputs": [
        {
          "internalType": "string",
          "name": "",
          "type": "string"
        },
        {
          "internalType": "uint256",
          "name": "",
          "type": "uint256"
        }
      ],
      "name": "transferLogs",
      "outputs": [
        {
          "internalType": "string",
          "name": "from",
          "type": "string"
        },
        {
          "internalType": "string",
          "name": "to",
          "type": "string"
        },
        {
          "internalType": "string",
          "name": "purpose",
          "type": "string"
        },
        {
          "internalType": "uint256",
          "name": "transferDate",
          "type": "uint256"
        }
      ],
      "stateMutability": "view",
      "type": "function"
    }
  ],
  "bytecode": "0x60808060405234610040573360018060a01b031960005416176000553360005260016020526040600020600160ff1982541617905561367b90816100468239f35b600080fdfe6080604052600436101561001257600080fd5b60003560e01c8063067230081461279e5780630a1bb2111461268f57806312f2d4ad146121325780631828983a146120ef57806336ce367a14611b195780633d1b869314611acf5780634dd7845a146119f75780634ead36c51461190957806367c2a360146118935780636f3c899814611843578063749b713e146117f35780637803866b1461168e5780637ef1446a146115bd578063820b29dc1461144b5780638a84532c146114025780638ced45e9146113b25780638da5cb5b146113895780638f2b91ea146112eb578063958c5c1b14610f865780639b6d0e3014610dfe5780639bd37cb814610cf0578063cad16eef146107a8578063cd8d4ca91461069a578063ed0f2e7514610650578063ef097fc4146105dd578063f158dfe514610500578063f19ac0d514610482578063f9ca42741461032e578063fa0f9dbe146102725763fcf7e5b11461016657600080fd5b3461026d5760208060031936011261026d57600435906001600160401b03821161026d576101ca8161019e6060943690600401612e9b565b6000604080516101ad81612e5f565b878152878582015201528160405193828580945193849201612f6b565b8101600981520301902090610260604051926101e584612e5f565b6040516101fd816101f68185613043565b0382612e7a565b845261024d60ff6002604051936102228561021b8160018501613043565b0386612e7a565b8688019485520154169360408601941515855260405196879682885251918701526080860190612f8e565b9051848203601f19016040860152612f8e565b9051151560608301520390f35b600080fd5b3461026d57602036600319011261026d576004356001600160401b03811161026d576102bd60206102aa610314933690600401612e9b565b8160405193828580945193849201612f6b565b81016009815203019020604051906102e0826102d98184613043565b0383612e7a565b61032260ff6002604051936102fc8561021b8160018501613043565b01541691604051948594606086526060860190612f8e565b908482036020860152612f8e565b90151560408301520390f35b3461026d5760208060031936011261026d57600435906001600160401b03821161026d5761036260a0923690600401612e9b565b906103a3816040519361037485612e0e565b600060806060968781528785820152876040820152828882015201528160405193828580945193849201612f6b565b810160028152030190209061046f604051936103be85612e0e565b6040516103cf816101f68188613043565b85526040516103e5816101f68160018901613043565b83860190815260405191610407836104008160028a01613043565b0384612e7a565b6040870192835261045f61044960ff600460038a015499858c019a8b520154169660808a0197151588526040519a8b9a828c5251918b015260c08a0190612f8e565b925192601f1993848a83030160408b0152612f8e565b9251918784030190870152612f8e565b9151608084015251151560a08301520390f35b3461026d57602036600319011261026d576004356001600160401b03811161026d576104e86104d960206104bd6104fc943690600401612e9b565b6104c56135aa565b508160405193828580945193849201612f6b565b810160058152030190206135d7565b604051918291602083526020830190612fb3565b0390f35b3461026d57602036600319011261026d576004356001600160401b03811161026d5761053860206102aa6105ab933690600401612e9b565b8101600481520301902060405190610554826102d98184613043565b604051610568816101f68160018601613043565b6040519161057d836104008160028501613043565b6105c76003820154936105b960ff60056004860154950154169460405198899860c08a5260c08a0190612f8e565b9088820360208a0152612f8e565b908682036040880152612f8e565b9260608501526080840152151560a08301520390f35b3461026d57602036600319011261026d576004356001600160a01b038181169182900361026d5761061390600054163314613146565b806000526001602052604060002060ff1981541690557fb43ac7bf01d16ebcb8c868a4c03fecb1f6984ea4fa1a52c116ef282b8dbb17c5600080a2005b3461026d57602036600319011261026d576004356001600160401b03811161026d576104e861068b60206104bd6104fc943690600401612e9b565b810160078152030190206135d7565b3461026d576106a836612ef1565b93919060018060a01b03600054163314801561078f575b6106c89061319c565b604051948351916020968781818801956106e3818389612f6b565b810160028152030190206004015460ff166106fd906131f9565b6040519361070a85612e0e565b86855287850152604084015260608301526080820160019052846040518080938651809261073792612f6b565b810160068152030190209061074b9161323c565b610754906131d9565b91604051918183928352820161076991612f8e565b037f3ec9558f8e31341d443d91d650fbcea03f0bbe6d24d2e0d24e8f421536ba79bd91a2005b503360009081526001602052604090205460ff166106bf565b3461026d5760c036600319011261026d576004356001600160401b03811161026d576107d8903690600401612e9b565b6024356001600160401b03811161026d576107f7903690600401612e9b565b6044356001600160401b03811161026d57610816903690600401612e9b565b6064356001600160401b03811161026d57610835903690600401612e9b565b9060018060a01b036000541633148015610cd7575b6108539061319c565b61088360ff6004604051602081816108718b83815193849201612f6b565b810160028152030190200154166131f9565b6040519261089084612e44565b835260208301526040820152608435606082015260a4356080820152600160a082015260405160208184516108c88183858901612f6b565b810160048152030190209080519283516001600160401b038111610b48576108f08454613009565b601f8111610c93575b506020601f8211600114610c2a578192939495600092610c1f575b50508160011b916000199060031b1c19161783555b60208201519283516001600160401b038111610b485761094c6001830154613009565b601f8111610bd8575b506020601f8211600114610b69578192939495600092610b5e575b50508160011b916000199060031b1c19161760018201555b60408301519283516001600160401b038111610b48576109ab6002840154613009565b601f8111610b01575b506020601f8211600114610a8b57918160a092600594610a1a9798600092610a80575b50508160011b916000199060031b1c19161760028501555b60608101516003850155608081015160048501550151151591019060ff801983541691151516179055565b7fdc0edd93d108c2ac79c6cf89fa9345d7bfc5fcea6c0de8c3a1920414a500bd68610a7b610a666040516020818651610a568183858b01612f6b565b81016002815203019020936131d9565b92604051918291602083526020830190613043565b0390a2005b0151905088806109d7565b601f198216956002850160005260206000209660005b818110610ae9575092610a1a9697600595936001938360a09710610ad0575b505050811b0160028501556109ef565b015160001960f88460031b161c19169055888080610ac0565b83830151895560019098019760209384019301610aa1565b600284016000526020600020601f830160051c810160208410610b41575b601f830160051c82018110610b355750506109b4565b60008155600101610b1f565b5080610b1f565b634e487b7160e01b600052604160045260246000fd5b015190508580610970565b6001830160005260206000209060005b601f1984168110610bc0575060019394959683601f19811610610ba7575b505050811b016001820155610988565b015160001960f88460031b161c19169055858080610b97565b9091602060018192858b015181550193019101610b79565b600183016000526020600020601f830160051c810160208410610c18575b601f830160051c82018110610c0c575050610955565b60008155600101610bf6565b5080610bf6565b015190508580610914565b8460005260206000209060005b601f1984168110610c7b575060019394959683601f19811610610c62575b505050811b018355610929565b015160001960f88460031b161c19169055858080610c55565b9091602060018192858b015181550193019101610c37565b846000526020600020601f830160051c810160208410610cd0575b601f830160051c82018110610cc45750506108f9565b60008155600101610cae565b5080610cae565b503360009081526001602052604090205460ff1661084a565b3461026d57610cfe36612ef1565b93919060018060a01b036000541633148015610de5575b610d1e9061319c565b60405194835191602096878181880195610d39818389612f6b565b810160028152030190206004015460ff16610d53906131f9565b60405193610d6085612e0e565b868552878501526040840152606083015260808201600190528460405180809386518092610d8d92612f6b565b8101600581520301902090610da19161323c565b610daa906131d9565b916040519181839283528201610dbf91612f8e565b037fbf68b6c807826ba70f2d9b022a71229d2a854cb7264e05e07f027ce3ba4cf30291a2005b503360009081526001602052604090205460ff16610d15565b3461026d5760208060031936011261026d576001600160401b0360043581811161026d57826102aa610e34923690600401612e9b565b810160088152030190208054918211610b4857829060405192610e5c838260051b0185612e7a565b8084528284018092600052836000206000915b838310610f135750505050604051918083019381845251809452604083019360408160051b85010192916000955b828710610eaa5785850386f35b909192938280600192603f19898203018552875190610ef9610ee7610ed784516080808652850190612f8e565b8585015184820387860152612f8e565b60408401518382036040850152612f8e565b916060809101519101529601920196019592919092610e9d565b600486600192604099989951610f2881612e29565b604051610f39816101f6818a613043565b8152604051610f4e816101f681898b01613043565b83820152604051610f66816101f68160028b01613043565b604082015260038601546060820152815201920192019190959495610e6f565b3461026d57606036600319011261026d576001600160401b0360043581811161026d57610fb7903690600401612e9b565b60243582811161026d57610fcf903690600401612e9b565b9160443581811161026d57610fe8903690600401612e9b565b6000546001600160a01b0316331480156112d2575b6110069061319c565b60405191835161102760ff60046020968781818b019661087181838a612f6b565b6040519561103487612e5f565b8652838601928352604086019361105c81600193848852604051809381928b51928391612f6b565b810160098152030190209651908151848111610b48578061107d8a54613009565b93601f94858111611281575b50839085831160011461121e57600092611213575b5050600019600383901b1c191690841b1788555b8288019451908151948511610b48576110cb8654613009565b8381116111cd575b5080928511600114611158575092808061112197946111269a979460029760009461114d575b50501b916000199060031b1c19161790555b51151591019060ff801983541691151516179055565b6131d9565b7f2d33d74cca76ea140d21832e718983d638a88b2959a1b070bcfc844952552d0f600080a2005b015192508b806110f9565b9190601f9493941984168660005283600020936000905b8282106111b65750509260029592859261112199966111269c99961061119d575b505050811b01905561110b565b015160001960f88460031b161c19169055898080611190565b80888697829497870151815501960194019061116f565b86600052816000208480880160051c82019284891061120a575b0160051c019085905b8281106111fe5750506110d3565b600081550185906111f0565b925081926111e7565b015190508a8061109e565b90869350601f198316918c600052856000209260005b8782821061126b5750508411611252575b505050811b0188556110b2565b015160001960f88460031b161c191690558a8080611245565b8385015186558a97909501949384019301611234565b9091508a600052836000208580850160051c8201928686106112c9575b918891869594930160051c01915b8281106112ba575050611089565b600081558594508891016112ac565b9250819261129e565b503360009081526001602052604090205460ff16610ffd565b3461026d57602036600319011261026d576004356001600160401b03811161026d5760206102aa611320923690600401612e9b565b8101600781520301902060405161133b816101f68185613043565b6104fc6040519261135a846113538160018501613043565b0385612e7a565b60028101549060ff600460405192611379846113538160038501613043565b015416916040519586958661310b565b3461026d57600036600319011261026d576000546040516001600160a01b039091168152602090f35b3461026d57602036600319011261026d576004356001600160401b03811161026d5760ff60046113eb60206102aa819536908501612e9b565b810160028152030190200154166040519015158152f35b3461026d57602036600319011261026d576004356001600160401b03811161026d5761143860206102aa81933690600401612e9b565b8101600881520301902054604051908152f35b3461026d5760208060031936011261026d57600435906001600160401b03821161026d5761147f60a0923690600401612e9b565b906115b06114c3826040519461149486612e0e565b600060806060978881528885820152886040820152888082015201528160405193828580945193849201612f6b565b81016003815203019020604051936114da85612e0e565b6040516114eb816101f68186613043565b855261159f60405191611505836104008160018801613043565b85870192835260405190611520826102d98160028901613043565b6040880191825261158e61157860ff60046040519861154d8a6115468160038501613043565b038b612e7a565b858d01998a520154169860808b019915158a526040519b8c9b828d5251918c015260c08b0190612f8e565b945194601f1995868b83030160408c0152612f8e565b915190848984030190890152612f8e565b915190858303016080860152612f8e565b9051151560a08301520390f35b3461026d57602036600319011261026d576004356001600160401b03811161026d576115f560206102aa611661933690600401612e9b565b8101600281520301902060405190611611826102d98184613043565b604051611625816101f68160018601613043565b61167d60405161163c816101f68160028801613043565b61166f60ff60046003870154960154169360405197889760a0895260a0890190612f8e565b908782036020890152612f8e565b908582036040870152612f8e565b916060840152151560808301520390f35b3461026d5760208060031936011261026d57600435906001600160401b03821161026d576116c260c0923690600401612e9b565b61170882604051926116d384612e44565b600060a06060958681528685820152866040820152828782015282608082015201528160405193828580945193849201612f6b565b81016004815203019020916040519261172084612e44565b604051611731816101f68185613043565b84526117da60405161174a816101f68160018701613043565b83860190815260405190611765826102d98160028801613043565b604087019182526003840154958088019687526117ca6117b460ff600560048901549860808d01998a520154169760a08b0198151589526040519b8c9b828d5251918c015260e08b0190612f8e565b925192601f1993848b83030160408c0152612f8e565b9251918884030190880152612f8e565b925160808501525160a084015251151560c08301520390f35b3461026d57602036600319011261026d576004356001600160401b03811161026d5760206102aa611828923690600401612e9b565b8101600681520301902060405161133b816101f68185613043565b3461026d57602036600319011261026d576004356001600160401b03811161026d5760206102aa611878923690600401612e9b565b8101600581520301902060405161133b816101f68185613043565b3461026d57602036600319011261026d576004356001600160a01b038181169182900361026d576118c990600054163314613146565b8060005260016020526040600020600160ff198254161790557fb0be505cf6e26533f3066ac7722c3f8a5e8a123f43187c7832d333c49603b146600080a2005b3461026d57604036600319011261026d576004356001600160401b03811161026d57611939903690600401612e9b565b6119556020602435928160405193828580945193849201612f6b565b81016008815203019020805482101561026d576119d191611975916130d9565b5060405190611988826102d98184613043565b6119ed604051916119a0836104008160018501613043565b6119df6003604051926119ba846113538160028501613043565b015493604051968796608088526080880190612f8e565b908682036020880152612f8e565b908482036040860152612f8e565b9060608301520390f35b3461026d57602036600319011261026d576004356001600160401b03811161026d57611a2f60206102aa6105ab933690600401612e9b565b8101600381520301902060405190611a4b826102d98184613043565b611ac360405191611a63836104008160018501613043565b611ab5604051611a7a816101f68160028701613043565b6105b960ff600460405195611a9d87611a968160038501613043565b0388612e7a565b0154169560405198899860a08a5260a08a0190612f8e565b908482036060860152612f8e565b90151560808301520390f35b3461026d57602036600319011261026d576004356001600160401b03811161026d576104e8611b0a60206104bd6104fc943690600401612e9b565b810160068152030190206135d7565b3461026d5760a036600319011261026d576004356001600160401b03811161026d57611b49903690600401612e9b565b6024356001600160401b03811161026d57611b68903690600401612e9b565b906044356001600160401b03811161026d57611b88903690600401612e9b565b6064356001600160401b03811161026d57611ba7903690600401612e9b565b6000546001600160a01b0316331480156120d6575b611bc59061319c565b6040519060ff600485519360208181890196611be281838a612f6b565b8101600281520301902001541661209a5783511561205557611c3a9160209160405194611c0e86612e0e565b878652838601526040850152608435606085015260016080850152604051809381928751928391612f6b565b810160028152030190209080518051906001600160401b038211610b48578190611c648554613009565b601f8111612005575b50602090601f8311600114611f9957600092611f8e575b50508160011b916000199060031b1c19161782555b60208101518051906001600160401b038211610b48578190611cbe6001860154613009565b601f8111611f3b575b50602090601f8311600114611ec957600092611ebe575b50508160011b916000199060031b1c19161760018301555b60408101518051906001600160401b038211610b4857611d196002850154613009565b601f8111611e73575b50602090601f8311600114611dd2579360046080611da795857fecbf2b320132381834a8a7b4ef8177133abdd15d8f4c6602b4f7515400423fd5999661112196611dbc9a600092611dc7575b50508160011b916000199060031b1c19161760028501555b606081015160038501550151151591019060ff801983541691151516179055565b92604051918291604083526040830190612f8e565b4260208301520390a2005b015190508c80611d6e565b906002850160005260206000209160005b601f1985168110611e5b57506080611da79560018661112196611dbc9a966004967fecbf2b320132381834a8a7b4ef8177133abdd15d8f4c6602b4f7515400423fd59d9a601f19811610611e42575b505050811b016002850155611d86565b015160001960f88460031b161c191690558c8080611e32565b91926020600181928685015181550194019201611de3565b600285016000526020600020601f840160051c81019160208510611eb4575b601f0160051c01905b818110611ea85750611d22565b60008155600101611e9b565b9091508190611e92565b015190508680611cde565b9250600185016000526020600020906000935b601f1984168510611f20576001945083601f19811610611f07575b505050811b016001830155611cf6565b015160001960f88460031b161c19169055868080611ef7565b81810151835560209485019460019093019290910190611edc565b909150600185016000526020600020601f840160051c810160208510611f87575b90849392915b601f830160051c82018110611f78575050611cc7565b60008155859450600101611f62565b5080611f5c565b015190508680611c84565b9250846000526020600020906000935b601f1984168510611fea576001945083601f19811610611fd1575b505050811b018255611c99565b015160001960f88460031b161c19169055868080611fc4565b81810151835560209485019460019093019290910190611fa9565b909150846000526020600020601f840160051c81016020851061204e575b90849392915b601f830160051c8201811061203f575050611c6d565b60008155859450600101612029565b5080612023565b60405162461bcd60e51b815260206004820152601860248201527f42617463682049442063616e6e6f7420626520656d70747900000000000000006044820152606490fd5b60405162461bcd60e51b8152602060048201526014602482015273426174636820616c72656164792065786973747360601b6044820152606490fd5b503360009081526001602052604090205460ff16611bbc565b3461026d57602036600319011261026d576004356001600160a01b0381169081900361026d576000526001602052602060ff604060002054166040519015158152f35b3461026d57608036600319011261026d576004356001600160401b03811161026d57612162903690600401612e9b565b6024356001600160401b03811161026d57612181903690600401612e9b565b6044356001600160401b03811161026d576121a0903690600401612e9b565b916064356001600160401b03811161026d576121c0903690600401612e9b565b6000546001600160a01b031633148015612676575b6121de9061319c565b612212602060405161220160ff60048751938581818b019661087181838a612f6b565b604051809381928751928391612f6b565b810160088152030190206040519161222983612e29565b8483528560208401526040830152426060830152805468010000000000000000811015610b485761225f916001820181556130d9565b9190916126605780518051906001600160401b038211610b485781906122858554613009565b601f8111612610575b50602090601f83116001146125a457600092612599575b50508160011b916000199060031b1c19161782555b60208101518051906001600160401b038211610b485781906122df6001860154613009565b601f8111612546575b50602090601f83116001146124d4576000926124c9575b50508160011b916000199060031b1c19161760018301555b60408101518051906001600160401b038211610b485761233a6002850154613009565b601f811161247e575b50602090601f83116001146123df579360036060610a7b95856123b1966123c69a967fc2193173b83438ad63820a84ce0fb84b539d7f63f0da296bb52f417f9aac32d09c9a6000926123d4575b50508160011b9160001990861b1c19161760028501555b01519101556131d9565b94604051938493604085526040850190612f8e565b908382036020850152612f8e565b015190508d80612390565b90601f198316916002860160005260206000209260005b8181106124665750610a7b956001866123c69a967fc2193173b83438ad63820a84ce0fb84b539d7f63f0da296bb52f417f9aac32d09c9a966003966123b19a6060971061244e575b505050811b0160028501556123a7565b015160001983881b60f8161c191690558d808061243e565b929360206001819287860151815501950193016123f6565b600285016000526020600020601f840160051c810191602085106124bf575b601f0160051c01905b8181106124b35750612343565b600081556001016124a6565b909150819061249d565b0151905087806122ff565b9250600185016000526020600020906000935b601f198416851061252b576001945083601f19811610612512575b505050811b016001830155612317565b015160001960f88460031b161c19169055878080612502565b818101518355602094850194600190930192909101906124e7565b909150600185016000526020600020601f840160051c810160208510612592575b90849392915b601f830160051c820181106125835750506122e8565b6000815585945060010161256d565b5080612567565b0151905087806122a5565b9250846000526020600020906000935b601f19841685106125f5576001945083601f198116106125dc575b505050811b0182556122ba565b015160001960f88460031b161c191690558780806125cf565b818101518355602094850194600190930192909101906125b4565b909150846000526020600020601f840160051c810160208510612659575b90849392915b601f830160051c8201811061264a57505061228e565b60008155859450600101612634565b508061262e565b634e487b7160e01b600052600060045260246000fd5b503360009081526001602052604090205460ff166121d5565b3461026d5761269d36612ef1565b9391929060018060a01b036000541633148015612785575b6126be9061319c565b604051948351916020968781818801956126d9818389612f6b565b810160028152030190206004015460ff166126f3906131f9565b6040519361270085612e0e565b84528587850152604084015260608301526080820160019052846040518080938651809261272d92612f6b565b81016007815203019020906127419161323c565b61274a906131d9565b91604051918183928352820161275f91612f8e565b037f9fad722725d0a8d47409199aaef3c4642bd4796564c69f37aa36d8657434647191a2005b503360009081526001602052604090205460ff166126b5565b3461026d5760a036600319011261026d576004356001600160401b03811161026d576127ce903690600401612e9b565b6024356001600160401b03811161026d576127ed903690600401612e9b565b906044356001600160401b03811161026d5761280d903690600401612e9b565b6064356001600160401b03811161026d5761282c903690600401612e9b565b6084356001600160401b03811161026d5761284b903690600401612e9b565b9060018060a01b036000541633148015612df5575b6128699061319c565b61288760ff6004604051602081816108718b83815193849201612f6b565b6040519261289484612e0e565b8584526020840152604083015260608201526001608082015260405160208184516128c28183858901612f6b565b6003818301528101030190209080518051906001600160401b038211610b485781906128ee8554613009565b601f8111612da5575b50602090601f8311600114612d3957600092612d2e575b50508160011b916000199060031b1c19161782555b60208101518051906001600160401b038211610b485781906129486001860154613009565b601f8111612cdb575b50602090601f8311600114612c6957600092612c5e575b50508160011b916000199060031b1c19161760018301555b60408101518051906001600160401b038211610b485781906129a56002860154613009565b601f8111612c0b575b50602090601f8311600114612b9957600092612b8e575b50508160011b916000199060031b1c19161760028301555b60608101518051906001600160401b038211610b4857612a006003850154613009565b601f8111612b43575b50602090601f8311600114612aa4579360046080612a8495857f82582d8b639f0d4c5597a5d7983e8525acdc8048269e653519313bcea93487b3999661112196610a7b9a600092612a99575b50508160011b916000199060031b1c19161760038501555b0151151591019060ff801983541691151516179055565b92604051918291602083526020830190612f8e565b015190508c80612a55565b90601f198316916003860160005260206000209260005b818110612b2b5750612a849560018661112196610a7b9a966004967f82582d8b639f0d4c5597a5d7983e8525acdc8048269e653519313bcea93487b39d9a60809710612b12575b505050811b016003850155612a6d565b015160001960f88460031b161c191690558c8080612b02565b92936020600181928786015181550195019301612abb565b600385016000526020600020601f840160051c81019160208510612b84575b601f0160051c01905b818110612b785750612a09565b60008155600101612b6b565b9091508190612b62565b0151905086806129c5565b9250600285016000526020600020906000935b601f1984168510612bf0576001945083601f19811610612bd7575b505050811b0160028301556129dd565b015160001960f88460031b161c19169055868080612bc7565b81810151835560209485019460019093019290910190612bac565b909150600285016000526020600020601f840160051c810160208510612c57575b90849392915b601f830160051c82018110612c485750506129ae565b60008155859450600101612c32565b5080612c2c565b015190508680612968565b9250600185016000526020600020906000935b601f1984168510612cc0576001945083601f19811610612ca7575b505050811b016001830155612980565b015160001960f88460031b161c19169055868080612c97565b81810151835560209485019460019093019290910190612c7c565b909150600185016000526020600020601f840160051c810160208510612d27575b90849392915b601f830160051c82018110612d18575050612951565b60008155859450600101612d02565b5080612cfc565b01519050868061290e565b9250846000526020600020906000935b601f1984168510612d8a576001945083601f19811610612d71575b505050811b018255612923565b015160001960f88460031b161c19169055868080612d64565b81810151835560209485019460019093019290910190612d49565b909150846000526020600020601f840160051c810160208510612dee575b90849392915b601f830160051c82018110612ddf5750506128f7565b60008155859450600101612dc9565b5080612dc3565b503360009081526001602052604090205460ff16612860565b60a081019081106001600160401b03821117610b4857604052565b608081019081106001600160401b03821117610b4857604052565b60c081019081106001600160401b03821117610b4857604052565b606081019081106001600160401b03821117610b4857604052565b90601f801991011681019081106001600160401b03821117610b4857604052565b81601f8201121561026d578035906001600160401b038211610b485760405192612ecf601f8401601f191660200185612e7a565b8284526020838301011161026d57816000926020809301838601378301015290565b9060a060031983011261026d576001600160401b0360043581811161026d5783612f1d91600401612e9b565b9260243582811161026d5781612f3591600401612e9b565b9260443583811161026d5782612f4d91600401612e9b565b926064359260843591821161026d57612f6891600401612e9b565b90565b60005b838110612f7e5750506000910152565b8181015183820152602001612f6e565b90602091612fa781518092818552858086019101612f6b565b601f01601f1916010190565b90608080612ffe612fe2612fd0865160a0875260a0870190612f8e565b60208701518682036020880152612f8e565b6040860151604086015260608601518582036060870152612f8e565b930151151591015290565b90600182811c92168015613039575b602083101461302357565b634e487b7160e01b600052602260045260246000fd5b91607f1691613018565b906000929180549161305483613009565b9182825260019384811690816000146130b65750600114613076575b50505050565b90919394506000526020928360002092846000945b8386106130a2575050505001019038808080613070565b80548587018301529401938590820161308b565b9294505050602093945060ff191683830152151560051b01019038808080613070565b80548210156130f55760005260206000209060021b0190600090565b634e487b7160e01b600052603260045260246000fd5b9361312b61313e936116616080969499989960a0895260a0890190612f8e565b9160408601528482036060860152612f8e565b931515910152565b1561314d57565b60405162461bcd60e51b815260206004820152602160248201527f4f6e6c79206f776e65722063616e2063616c6c20746869732066756e6374696f6044820152603760f91b6064820152608490fd5b156131a357565b60405162461bcd60e51b815260206004820152600e60248201526d139bdd08185d5d1a1bdc9a5e995960921b6044820152606490fd5b6131f190602060405192828480945193849201612f6b565b810103902090565b1561320057565b60405162461bcd60e51b815260206004820152601460248201527310985d18da08191bd95cc81b9bdd08195e1a5cdd60621b6044820152606490fd5b90805180516001600160401b0390818111610b48578061325c8654613009565b93601f94858111613558575b506020908583116001146134f3576000926134e8575b50508160011b916000199060031b1c19161784555b60018085016020850151805190848211610b485781906132b38454613009565b878111613495575b5060209087831160011461343257600092613427575b5050600019600383901b1c191690831b1790555b60408401516002860155600385019260608501518051938411610b485761330c8554613009565b8281116133df575b50602091841160011461336e5792808061336198979460049794608097600094613363575b50501b916000199060031b1c19161790550151151591019060ff801983541691151516179055565b565b015192503880613339565b90601f9392931983169185600052816000209260005b8181106133c95750926080959285926133619a999660049996106133b0575b505050811b019055612a6d565b015160001960f88460031b161c191690553880806133a3565b8284015185559386019360209384019301613384565b8560005260206000208380870160051c8201926020881061341e575b0160051c019084905b828110613412575050613314565b60008155018490613404565b925081926133fb565b0151905038806132d1565b90859350601f1983169185600052816000209260005b81811061347d57508411613464575b505050811b0190556132e5565b015160001960f88460031b161c19169055388080613457565b82840151855588969094019360209384019301613448565b9091508360005260206000208780850160051c820192602086106134df575b918791869594930160051c01915b8281106134d05750506132bb565b600081558594508791016134c2565b925081926134b4565b01519050388061327e565b60008881528281209350601f198516905b8181106135405750908460019594939210613527575b505050811b018455613293565b015160001960f88460031b161c1916905538808061351a565b92936020600181928786015181550195019301613504565b9091506000878152602081208680860160051c820193602087106135a1575b908695949392910160051c01915b828110613593575050613268565b818155859450600101613585565b93508193613577565b604051906135b782612e0e565b600060808360608152606060208201528260408201526060808201520152565b906040516135e481612e0e565b608060ff600483956040516135fd816101f68185613043565b8552604051613613816101f68160018601613043565b602086015260028101546040860152604051613636816101f68160038601613043565b6060860152015416151591015256fea26469706673582212205ea4fbd0928e01a029329f542e01d366477397e132ba5f0f34a7137dd778d7c964736f6c63430008140033",
  "linkReferences": {},
  "deployedLinkReferences": {}
}